:1000000002000E2200000000000000021273758141
:1000100076120979E582600302007A780479007A21
:100020003E7B007C067D00EC4D601C88828983E469
:1000300093A3A882A9838A828B83F0A3AA82AB832D
:100040001CBCFFE31D80E07582007583007C3E7D53
:1000500000EC4D600AE4F0A31CBCFFF51D80F275B6
:1000600082007583007C007D00EC4D600AE4F0A303
:100070001CBCFFF51D80F212000312034280FE41FA
:10008000542B44564944303930310D0A0041542B29
:1000900052464944303930320D0A0041542B5645FE
:1000A000520D0A0041542B424155440D0A0041545F
:1000B0002B524649440D0A0041542B445649440DE5
:1000C0000A0041542B5246430D0A0041542B504F15
:1000D00057450D0A0041542B434C53530D0A000D54
:1000E000507265737320616E6420686F6C64207455
:1000F000686520424F4F5420627574746F6E20748F
:100100006F207472616E736D69742E0D0A004D65F7
:1001100074616C20446574656374696E67202000A7
:1001200020202020526F626F742121202020202067
:1001300020004D6F64652053656C6563742020203A
:1001400020202020202020005374616E646172649E
:100150002020202020202020202020202000537735
:10016000656570204D6F64652020202020202020B0
:1001700020202020200052657475726E20746F203C
:10018000486F6D65202020202020202000537461BE
:100190006E64617264204D6F6465202020202020F1
:1001A0002020200052657475726E696E6720686F3A
:1001B0006D65002020204E6F204D6574616C2020FD
:1001C000202020002020446574656374656421212B
:1001D00020202020004D6574616C20537472656E80
:1001E000677468004C656E67746820202020205773
:1001F00069647468002020202020202020202020F6
:10020000202020202000496E2072657475726E20B7
:10021000686F6D65202020002566002323202020A4
:1002200020202020202020202020202000232323E5
:1002300020202020202020202020202020200023DB
:1002400023232320202020202020202020202020A5
:1002500000232323232320202020202020202020AF
:10026000202000232323232323202020202020209C
:100270002020202000232323232323232020202089
:100280002020202020200023232323232323232076
:100290002020202020202020002323232323232369
:1002A0002323202020202020202000232323232359
:1002B0002323232323202020202020200023232346
:1002C0002323232323232323202020202020002333
:1002D00023232323232323232323232020202020FD
:1002E0000023232323232323232323232323202007
:1002F00020200023232323232323232323232323F7
:1003000023202020002323232323232323232323E9
:1003100023232323200023232323232323232323D3
:1003200023232323232300436F6D6D616E643A20E2
:10033000257300526573706F6E73653A2025730DD7
:100340000A00E4F539F53A753D01E4F53E7E017F9A
:1003500000C006C007120AA3902580E4F5F0120E33
:100360009C90007F75F08012106E90008D75F0806B
:1003700012106E90009B75F08012106E9000A475A4
:10038000F08012106E9000AE75F08012106E90002A
:10039000B875F08012106E9000C275F08012106E69
:1003A0009000CB75F08012106E9000D575F0801221
:1003B000106E74DFC0E07400C0E07480C0E01213FF
:1003C000AB158115811581751001D20090010E7554
:1003D000F080120AD5751002D20090012075F080CD
:1003E000120AD57517027582021210F97517037576
:1003F00082021210F91210DFD007D00675820FC0EA
:1004000006C00712117975171D751807121350E5EC
:10041000828583F0F52285F023758210121179759B
:10042000171D751807121350E5828583F0F5248592
:10043000F025A2A1E433FC7D008C268D278C178D3E
:1004400018900064121379AC82AD83D007D0068572
:10045000241785251890000AC004C005C006C007EF
:10046000121379AA82AB83D007D006D005D004EA54
:100470002CFCEB3DFDE5222CFAE5233DFB30A503EA
:10048000020596900032C002C003C006C007120ADF
:1004900011D007D006D003D00230A5030205963054
:1004A000A5FD751001D20090013275F080C002C028
:1004B00003C006C007120AD5751002D20090014889
:1004C00075F080120AD5D007D006D003D0027C0187
:1004D0007D00BC0105BD0002800302059630A50326
:1004E00002058030A5FDE539453A702E753901E4E5
:1004F000F53A751002D20090015E75F080C002C01E
:1005000003C004C005C006C007120AD5D007D00634
:10051000D005D004D003D00280667401B53906E45A
:10052000B53A028002802E753902E4F53A75100260
:10053000D20090017675F080C002C003C004C005EF
:10054000C006C007120AD5D007D006D005D004D007
:1005500003D002802BE4F539F53A751002D20090F1
:10056000018D75F080C002C003C004C005C006C084
:1005700007120AD5D007D006D005D004D003D00288
:1005800030B0030204D230B0030204D230B0FD7C9C
:10059000007D000204D2E539453A600302074E743B
:1005A00001B53F06E4B540028002803F20B03C75B3
:1005B0001001D2009001A475F080C002C003C006F3
:1005C000C007120AD5D007D006D003D00230B0FD44
:1005D000900061C002C003C006C007120F0DD00713
:1005E000D006D003D002E4F53FF5408A828B83C069
:1005F00006C007120F0D75822E1213D99000C81273
:10060000101712100ED007D00640030203FCC006DC
:10061000C007120F5CAA82AB83D007D006EA4B70EA
:100620002AC006C007121270751001D2009001B3E3
:1006300075F080120AD5751002D2009001C475F0D1
:1006400080120AD5D007D0060203FC751001D20033
:100650009001D575F080C002C003C006C007120A21
:10066000D5D007D006D003D0028A828B83C002C0C7
:1006700003C006C007120C20D007D006D003D0025A
:10068000C374199AE464808BF063F08095F0E433CE
:10069000FC7011900005C006C00712118AD007D067
:1006A000060203FCEC6021C374329AE464808BF090
:1006B00063F08095F04011900004C006C00712114D
:1006C0008AD007D0060203FCC374329AE464808B9C
:1006D000F063F08095F05021C3744B9AE464808BF2
:1006E000F063F08095F04011900003C006C007123F
:1006F000118AD007D0060203FCC3744B9AE46480CD
:100700008BF063F08095F05021C374969AE4648076
:100710008BF063F08095F04011900002C006C00796
:1007200012118AD007D0060203FCC374969AE464BF
:10073000808BF063F08095F040030203FC90000191
:10074000C006C00712118AD007D0060203FC74014C
:10075000B53906E4B53A02800302090B751001D2DF
:10076000009001E475F080C006C007120AD575102C
:1007700002D2009001F575F080120AD5853D828580
:100780003E831213CCAA82AB83ACF0FD75110275C7
:100790001201E4F513751401E4F515D2018A828B78
:1007A000838CF0ED120B5DD007D0068E828F83C054
:1007B00006C0071213CCAA82AB83ACF0FD75110200
:1007C00075120CE4F513751401E4F515D2018A8253
:1007D0008B838CF0ED120B5D900063120F0D758210
:1007E0002E1213D9D007D006E4F53BF53CE53B4586
:1007F0003C60030203FC30A60302088030A6FD74AF
:1008000009B53D06E4B53E0280028008753D01E46D
:10081000F53E8008053DE4B53D02053E853D8285F7
:100820003E83C006C0071213CCAC82AD83AAF0FB96
:10083000751102751201E4F513751401E4F515D272
:10084000018C828D838AF0EB120B5DD007D0068E6F
:10085000828F83C006C0071213CCAA82AB83ACF090
:10086000FD75110275120CE4F513751401E4F5150C
:10087000D2018A828B838CF0ED120B5DD007D006FB
:1008800020A54530A5FDBE0909BF00067E017F00F9
:1008900080050EBE00010F8E828F83C006C0071236
:1008A00013CCAA82AB83ACF0FD75110275120CE477
:1008B000F513751401E4F515D2018A828B838CF04F
:1008C000ED120B5DD007D00630B0030207ED30B05B
:1008D000FD753B01E4F53CE4F539F53A853D1785B6
:1008E0003E1890000AC006C007121379E58285837E
:1008F000F0D007D0062EF582EF35F0F583C006C0A4
:1009000007120F0DD007D0060207ED751001D200B7
:1009100090020675F080C006C007120AD5900062EA
:10092000120F0DD007D006753F01E4F54075820F18
:10093000C006C00712117975171D751807121350DC
:10094000AA82AB83D007D006BA0426BB00237582E7
:1009500010C006C00712117975171D7518071213FC
:1009600050AA82AB83D007D006BA0405BB00028030
:10097000BCE4F539F53A0203FC75A7007597DE75FE
:1009800097AD75FF8075EF0675A71075C11075A737
:100990000075A90075A900E5A930E7FB75A90775E1
:1009A000A907E5A930E7FB43A41543A61075E101AB
:1009B00075E20075E341C28CC28D438E045389F009
:1009C000438901758AAC758CB9D2A9D2AF759810DC
:1009D000438E08758D30858D8B53890F438920D2C6
:1009E0008ED29975820022AA82438E407592D0756C
:1009F00093FF8592948593957591047B00C3EB9A40
:100A0000500BE59130E7FB53917F0B80F07591001F
:100A100022AA82AB837C007D00C3EC9AED9B502B15
:100A20007E00BE0400501D7582FAC002C003C004DF
:100A3000C005C0061209E7D006D005D004D003D007
:100A4000020E80DE0CBC00D10D80CE22D2A07582B9
:100A5000281209E7C2A022AA828AE0A2E79290A205
:100A6000E69291A2E59292A2E49293C002120A4CFD
:100A70007582281209E7D0028AE0A2E39290A2E2EE
:100A80009291A2E19292A2E09293020A4CD2971222
:100A90000A57900002020A11C297120A57900005E5
:100AA000020A11C2A0900014120A11758233120AB0
:100AB00098758233120A98758232120A98758228C4
:100AC000120A9875820C120A98758201120A98907F
:100AD0000014020A11AA82AB83ACF07402B51004B0
:100AE0007DC080027D808D82C002C003C004120AD6
:100AF00098900005120A11D004D003D0027D007E28
:100B000000ED2AFFEE3BF88C018F82888389F0127A
:100B100013EEFF60208F82C002C003C004C005C076
:100B200006120A8DD006D005D004D003D0020DBD28
:100B300000CF0E80CC3000248D028E03C3EA9410C7
:100B4000EB648094805015758220C002C003120AA5
:100B50008DD003D0020ABA00E30B80E022AA82AB58
:100B600083ACF0FD900000EAF0A3EBF0A3ECF0A35F
:100B7000EDF0900000E0C0E0A3E0C0E0A3E0C0E042
:100B8000A3E0C0E07418C0E07402C0E07480C0E06C
:100B90007404C0E07400C0E0E4C0E0121459E581C0
:100BA00024F6F5817401B5110B74802512FAE43531
:100BB00013FB800974C02512FAE43513FB8A8212F4
:100BC0000A98900005120A117A007B00C3EA951476
:100BD000EB64808515F063F08095F0501FEA2404E3
:100BE000F582EB3400F583E0F582C002C003120AFF
:100BF0008DD003D0020ABA00D30B80D0300120C3BD
:100C0000EA9410EB648094805015758220C002C075
:100C100003120A8DD003D0020ABA00E30B80E0224F
:100C2000AA82AB83C374109AE464808BF063F08073
:100C300095F0E433FC700E751002D20090021B7523
:100C4000F080020AD5EC601EC374209AE464808BA5
:100C5000F063F08095F0400E751002D20090022DE6
:100C600075F080020AD5C374209AE464808BF06327
:100C7000F08095F0501EC374309AE464808BF0636A
:100C8000F08095F0400E751002D20090023F75F092
:100C900080020AD5C374309AE464808BF063F080DC
:100CA00095F0501EC374409AE464808BF063F0802A
:100CB00095F0400E751002D20090025175F080023E
:100CC0000AD5C374409AE464808BF063F08095F099
:100CD000501EC374509AE464808BF063F08095F0EA
:100CE000400E751002D20090026375F080020AD5A2
:100CF000C374509AE464808BF063F08095F0501ECA
:100D0000C374609AE464808BF063F08095F0400EC9
:100D1000751002D20090027575F080020AD5C37476
:100D2000609AE464808BF063F08095F0501EC37489
:100D3000709AE464808BF063F08095F0400E75103B
:100D400002D20090028775F080020AD5C374709AAF
:100D5000E464808BF063F08095F0501EC374809A39
:100D6000E464808BF063F08095F0400E751002D241
:100D70000090029975F080020AD5C374809AE464E9
:100D8000808BF063F08095F0501EC374909AE464F9
:100D9000808BF063F08095F0400E751002D20090C9
:100DA00002AB75F080020AD5C374909AE464808B1C
:100DB000F063F08095F0501EC374A09AE464808BB9
:100DC000F063F08095F0400E751002D2009002BDE5
:100DD00075F080020AD5C374A09AE464808BF06336
:100DE000F08095F0501EC374B09AE464808BF06379
:100DF000F08095F0400E751002D2009002CF75F091
:100E000080020AD5C374B09AE464808BF063F080EA
:100E100095F0501EC374C09AE464808BF063F08038
:100E200095F0400E751002D2009002E175F080023C
:100E30000AD5C374C09AE464808BF063F08095F0A7
:100E4000501EC374D09AE464808BF063F08095F0F8
:100E5000400E751002D2009002F375F080020AD5A0
:100E6000C374D09AE464808BF063F08095F0501ED8
:100E7000C374E09AE464808BF063F08095F0400ED8
:100E8000751002D20090030575F080020AD5751026
:100E900002D20090031675F080020AD5AA82AB83B5
:100EA000ACF0FD75A72075930C75C8107594008A79
:100EB000178B188C198D1A906C0075F0DC74021267
:100EC000149FAA82AB83ACF0FD751718E4F518F5F2
:100ED00019F51A8A828B838CF0ED12149FAA82ABCB
:100EE00083ACF0FDE4C39AFAE49BFB74019CE49D9F
:100EF0008A958B96D2C943944075A70022AA827521
:100F0000A72010C90280FB8A9275A70022AA82AB93
:100F10008375A72010C90280FB8A9275A70022AAB8
:100F200082AB83ACF08A828B838CF01213EEFD606F
:100F3000188D82C002C003C004120EFDD004D0037D
:100F4000D0020ABA00DF0B80DC2275A72010C8028D
:100F500080FB53C83F85928275A7002275A7207A2F
:100F6000007B0020C82675A700758214C002C0034C
:100F70001209E7D003D00275A7200ABA00010BBA04
:100F8000A8E1BB61DE75A70090000A22C2C853C861
:100F90003FAA927B0075A7008A828B832275A720C7
:100FA0007A007B0020C82675A700758214C002C095
:100FB000031209E7D003D00275A7200ABA00010B7B
:100FC000BAA8E1BB61DE75A70075820A22C2C853C8
:100FD000C83F85928275A70022AA82AB83ACF0C07D
:100FE00002C003C004120F9DAD82D004D003D00212
:100FF000BD0A0A8A828B838CF0E40215048A828BF4
:10100000838CF0ED121504A3AA82AB8380D175A75F
:1010100020A2C875A70022AA82AB837C007D00C3F2
:10102000EC9AED9B50477E00BE04005039C002C0D0
:1010300003C004C005C00612100EE433D006D0056C
:10104000D004D003D0026001227582FAC002C0032E
:10105000C004C005C0061209E7D006D005D004D0F0
:1010600003D0020E80C20CBC00B50D80B222AA8251
:10107000AB83ACF0C002C003C004C002C003C00414
:101080007427C0E07403C0E07480C0E01213ABE5C5
:101090008124FAF581C282900005120A11D004D091
:1010A00003D0028A828B838CF0120F1F900053753D
:1010B000F040120FD990000A120A11D2827453C064
:1010C000E07400C0E07440C0E07433C0E07403C05A
:1010D000E07480C0E01213ABE58124FAF58122753B
:1010E000A700C2EF75B28075BC1075B91E75E80017
:1010F00075DF3F75B300D2EF22AA828517F005F0A5
:101100007401800225E0D5F0FBFB75A720BA000230
:10111000800ABA0102800FBA021E8014EBF4FA5260
:10112000F1EB42D48012EBF4FA52F2EB42D5800894
:10113000EBF4FA52F3EB42CC75A70022AA82851891
:10114000F005F07401800225E0D5F0FBFB75A720C7
:10115000BA0002800ABA0102800DBA02188010EBB0
:1011600042F1EB42D4800EEB42F2EB42D58006EB2B
:1011700042F3EB42CC75A700228582BBC2EDD2ECD4
:1011800030EDFD85BD8285BE8322AA82E583FB30DA
:10119000E703021262C374099AE464808BF063F07F
:1011A0008095F05003021262EA2A2A9011AF73026E
:1011B00012620211CD0211DD0211ED0211FE0212C6
:1011C0000F02122002123102124202125190003616
:1011D0007464F0E4A3F0A3F0A3F002126D90003663
:1011E00074C8F0E4A3F0A3F0A3F002126D900036EF
:1011F000742CF0A37401F0A3E4F0A3F0806F9000CE
:101200003674F4F0A37401F0A3E4F0A3F0805E90D0
:10121000003674EEF0A37402F0A3E4F0A3F0804D66
:1012200090003674E8F0A37403F0A3E4F0A3F08018
:101230003C90003674DCF0A37405F0A3E4F0A3F056
:10124000802B90003674B8F0A3740BF0A3E4F0A3E5
:10125000F09000367410F0A37427F0A3E4F0A3F02C
:10126000800B900036E4F0A3F0A3F0A3F0D28C2220
:10127000C28C22C0E0C082C083C002C003C004C0D0
:1012800005C006C007C000C001C0D075D00075A75A
:1012900000758AAC758CB9900040E02401F0A3E0A1
:1012A0003400F0A3E03400F0A3E03400F0900040FC
:1012B000E0FAA3E0FBA3E0FCA3E0FD900036E0FE33
:1012C000A3E0FFA3E0F8A3E0F9C3EA9EEB9FEC984C
:1012D000ED99502590003EE02401F0A3E03400F0A9
:1012E00090003EE0FAA3E0FBBA054CBB0049900039
:1012F0003EE4F0A3F0B2A4803E900036E0FAA3E012
:10130000FBA3E0FCA3E0FDEA2AFAEB33FBEC33FCA1
:10131000ED33FD900040E0FEA3E0FFA3E0F8A3E082
:10132000F9C3EE9AEF9BE89CE99D400B900040E4E6
:10133000F0A3F0A3F0A3F0D0D0D001D000D007D01C
:1013400006D005D004D003D002D083D082D0E032C2
:101350007A10E4FBFCE58225E0F582E58333F58332
:10136000EB33FBEC33FCEB9517F5F0EC95184006EE
:10137000FCABF0438201DADD22E5828517F0A4C5DB
:1013800082C0F08518F0A4D0F025F0C5838517F051
:10139000A42583F583220213D985824F8583508546
:1013A000F0518516529013960218FCC008858108EA
:1013B000E50824FBF552E50824FBF8864F08865023
:1013C0000886519013961218FCD00822AC83AB8289
:1013D0007A007900748E021EB2AA82BA0A081099A5
:1013E0000280FB75990D10990280FB8A992220F7E3
:1013F0001430F6148883A88220F507E6A883758345
:101400000022E280F7E49322E022AA82AB09AC0A30
:10141000AD0B8B828C838DF0EA1215040509E4B5BF
:101420000902050A2285820985830A85F00B850C4D
:101430004F850D50850E51850F5290140A1218FCDD
:10144000AA82AB83AC09AD0AAE0B8C828D838EF081
:10145000E41215048A828B8322C008858108E5087E
:1014600024F8F552E50824FBF8860908860A088660
:101470000BE50824F8F8864F08865008865190142A
:101480000A1218FCAA82AB83AC09AD0AAE0B8C829F
:101490008D838EF0E41215048A828B83D00822FBA0
:1014A0007A20E4FCFDFEFFE5822582F582E58333A8
:1014B000F583E5F033F5F0EB33FB4017DAE98042D2
:1014C000E5822582F582E58333F583E5F033F5F097
:1014D000EB33FBEC33FCED33FDEE33FEEF33FFEC8F
:1014E0009517ED9518EE9519EF951A4013EC951791
:1014F000FCED9518FDEE9519FEEF951AFF4382015C
:10150000DABEEB2220F71030F6118883A88220F58E
:1015100007F6A88375830022F280F7F022AA82746E
:101520002EC0E07415C0E0C041C0428A8222054846
:10153000E4B54802054922AA8274302AFA24C6502A
:101540000A74072AFA3002034302208A8202151D18
:10155000E582FAC4540FF582C002121537D0027426
:101560000F5AF582021537AA43AB44AC45AD46AEDF
:1015700047754E20EE2EFEED235401FF4206EA2A67
:10158000FAEB33FBEC33FCED33FDC3EE954A400838
:10159000EEC3954AFE430201D54ED98A438B448C53
:1015A000458D468E47227873E624D075F00AA4FA5A
:1015B0007874E624D02AFA78728603BB2D04C3E43B
:1015C0009AFA754A01C3E464808AF063F08095F06A
:1015D0005029754E038A0374F6254E401C054AE5D2
:1015E0004E142467F8E54E2467F98704A604772E85
:1015F0001BEBFA6004054E80DE8B02EA30E70D78C3
:101600006886037869A6037868762E0AE54C600A36
:10161000E54C04FB254AF54A8005300D02054A7861
:10162000678603E4BB2D0104FB7006200803300924
:1016300002054A3006030216ED300757EB600C75C1
:10164000822DC00212151DD002801C30080C75823C
:101650002BC00212151DD002800D30090A758220A0
:10166000C00212151DD00278688604BC2E0C75824B
:1016700030C00212151DD002154BAC4B154BC3E503
:101680004A9C4003021731758230C00212151DD0EA
:101690000280E7AC4B154BC3E54A9C500C75822089
:1016A000C00212151DD00280EA78678604BC2D0C9A
:1016B00075822DC00212151DD002801C30080C75D9
:1016C000822BC00212151DD002800D30090A7582CE
:1016D00020C00212151DD00278688604BC2E5275F7
:1016E0008230C00212151DD002154B8044EB600EF3
:1016F00075822DC00212151DD002154B80203008B6
:101700000E75822BC00212151DD002154B800F30B2
:10171000090C758220C00212151DD002154B786885
:101720008603BB2E0C758230C00212151DD0021527
:101730004B754E01C20FE54E2467F88603BB450387
:101740000217EEBB2E348A03C3E464808BF063F08F
:101750008095F0500F758230C00312151DD0031B09
:101760008B0280E48B02D20FE54C7038200D03020F
:1017700017EE75822E12151D8074300F278A03EB29
:1017800030E71FC3E46480854CF063F08095F0502F
:101790000C758230C00312151DD003154C0B8B0243
:1017A00080DD8B02300F0EC3E46480854CF063F063
:1017B0008095F05021E54E2467F886038B82C002A5
:1017C00012151DD002300F0EE54E2467F88603BBBC
:1017D0002E028002154C154BC3E46480854CF063E7
:1017E000F08095F04003200F05054E021736C3E444
:1017F0006480854CF063F08095F0500A7582301259
:10180000151D154C80E830060FAA4B154BEA6008F1
:1018100075822012151D80F122E54C7003300D0DEC
:101820007407254CFAE54BC39AF54B8006E54B242B
:10183000FAF54B754E0078678602BA2B0F20080C1C
:1018400078677620200905754E01054B200619AAF8
:101850004BC3E464808AF063F08095F0500A75828F
:101860002012151D154B80E7C20FE54E2467F88640
:1018700002BA00028069BA451F3002027665C3E4ED
:101880006480854CF063F08095F0500A75823012C8
:10189000151D154C80E8D20FC3E54E9402E433FACF
:1018A0007014EA700EC3E46480854CF063F0809598
:1018B000F04003300F16E54E2467F886028A821244
:1018C000151DE54E24FD5012154C800E7402B54EC8
:1018D00009300D0675822E12151D054E02186A304C
:1018E0000619AA4BC3E464808AF063F08095F05037
:1018F0000A75822012151D154B80E72285824185CD
:101900008342E4F548F549AA4FAB50AC518A828B2B
:10191000838CF01213EEFD74012AF54FE43BF55071
:101920008C51EDFA7003021EA2BA25028003021E3A
:101930009AC206C207C208C209C20AC20BC20CC2BE
:101940000DC203C204C205754A00754B00754CFFF9
:10195000AB4FAC50AD518B828C838DF01213EEFAED
:10196000A3AB82AC838B4F8C508D51BA25078A82F2
:1019700012151D80928A06BE3000402E8A06EE2483
:10198000C6402774FFB54C13E54B75F00AA4FEEA78
:1019900024D02EF54B70BFD20780BBE54C75F00A02
:1019A000A4FEEA24D02EF54C80ACBA2E0A74FFB502
:1019B0004CA4754C00809F8A06BE6100400E8A06CA
:1019C000EE248540075302DFD2028002C202BA2011
:1019D000028075BA2303021A57BA2A03021A5CBAA4
:1019E0002B02805FBA2D028055BA4202805FBA4353
:1019F00003021AA1BA4403021BDCBA4503021BF618
:101A0000BA4603021BF2BA4703021BFABA490302A1
:101A10001BDCBA4C02803BBA4E03021BFEBA4F03DA
:101A2000021BE3BA5003021B75BA5303021AC5BA6C
:101A30005503021BE8BA5803021BED021C28D2060C
:101A4000021956D208021956D209021956D20B02AF
:101A50001956D20C021956D20D02195674FFB54C04
:101A600020300B0BE55214F88852864B021956E5CC
:101A70005224FEF888528606088607188E4B0219F3
:101A800056300B0BE55214F88852864C021956E575
:101A90005224FEF888528606088607188E4C0219D2
:101AA00056300B0AE55214F888528602800FE55230
:101AB00024FEF888528603088604188B028A821254
:101AC000151D021C2DE55224FDF888528603088658
:101AD0000408860518188B438C448D458B828C83B3
:101AE0008DF0121FF5AB82AC838B4D74FFB54C03A8
:101AF000854D4C20061DC3E54D954B5016E54BC357
:101B0000954DF54BAB4B154BEB60087582201215CC
:101B10001D80F18543828544838545F01213EEFBD9
:101B2000FA6029AB4C154CC3E464808BF063F08001
:101B300095F050188A8212151DAB43AC44AD450B8D
:101B4000BB00010C8B438C448D4580C720060302EB
:101B50001C2DC3E54D954B4003021C2DE54BC39551
:101B60004DF54BAB4B154BEB7003021C2D758220D2
:101B700012151D80EEE55224FDF888528603088672
:101B80000408860518188B438C448D45E545FB30C9
:101B9000E7047A438013EB546060047A50800AEBC8
:101BA00030E6047A4980027A588A82C00212151DF2
:101BB00075823A12151D75823012151D75827812C4
:101BC000151DD002BA4902800BBA50028006854426
:101BD000821215508543821215508051D20A754ADF
:101BE0000A804A754A088045754A0A8040754A103D
:101BF000803BD2038037D2048033D205802FE55258
:101C000024FDF88852860308860408860518188B78
:101C1000438C448D458B828C838DF0E548121504EE
:101C2000A3E54912150480058A8212151D200306BA
:101C3000200403300570E55224FCF888528603081E
:101C400086040886050886061818188B438C448D70
:101C5000458E46E543E544E545E5468B828C838D1C
:101C6000F0EE121ED674FFB54C03754C06300527F6
:101C7000747F5546FB8B47E547EB2BFB8B47E545D0
:101C800030E70674014547F547E547246840067488
:101C90009925474002D20430040612181902190788
:101CA0001215A6021907E54A70030219077B6C306A
:101CB0000B2BE55214F88852E6FC3395E0FDFEFF4D
:101CC0008C438D448E458F46200A5EAC437D007E5A
:101CD000007F008C438D448E458F46804C300C1F16
:101CE000E55224FCF8885286040886050886060812
:101CF00086071818188C438D448E458F46802AE538
:101D00005224FEF88852860408860518ED3395E0C3
:101D1000FEFF8C438D448E458F46200A0CAC43ADAC
:101D2000447E007F008E458F46300D43E543454499
:101D30004545454660397408B54A0C758230C00384
:101D400012151DD00380287410B54A23758230C047
:101D50000312151DD00330020C758278C0031215D2
:101D60001DD003800A758258C00312151DD00330A0
:101D70000A25AC43AD44AE45E546FF30E717C3E462
:101D80009CFCE49DFDE49EFEE49FFF8C438D448E0D
:101D9000458F468002C20A754D00D20E8B007547F2
:101DA00000C000121567D000200E0DE547C4FCE608
:101DB000FD4CF61888038002A647054DB20EE54398
:101DC00045444545454670D68803E54B7003754B41
:101DD0000120071A200617E54D04FCC3954B500E51
:101DE000758220C00312151DD003154B80E9300AFF
:101DF0000E75822DC00312151DD003154B8024E5EE
:101E00004D602030080E75822BC00312151DD003C3
:101E1000154B800F30090C758220C00312151DD0A0
:101E200003154B20061EAC4B154BC3E54D9C5027AC
:101E30003007047C3080027C208C82C00312151D88
:101E4000D00380E2C3E54D954B5009E54BC3954D5A
:101E5000F54B8003754B008B00AB4D154DEB6022AD
:101E6000B20E200E0A08E6C4540FFB8B478007868B
:101E700003740F5BF547854782C000121537D00009
:101E800080D7200603021907AB4B154BEB700302FA
:101E9000190775822012151D80EE8A8212151D0207
:101EA000190785488285498322FCABF0AA83A98261
:101EB000749EF582C2D1EC30E716D2D1E9F4240148
:101EC000F9EAF43400FAEBF43400FBECF43400FCEF
:101ED00012206C02201DC0E0F84582458345F07059
:101EE00009F5F0FBFCFDFE021FA4E823A2F792E037
:101EF000F8A982AA83D2F7ABF07C007E07C374975F
:101F000098404074FF2EFE740A89F0A4F985F0828F
:101F1000740A8AF0A4FA85F083740A8BF0A4FB7427
:101F20000529F9EA3582FAEB3583FB740035F0FCBC
:101F3000C3EC13FCEB13FBEA13FAE913F908EC709A
:101F4000EF80BAE8C3947FF88B838EF0E4FBFCFD4E
:101F5000FEFF08C3E933F9EA33FAE58333F583EB8F
:101F60003BD4FBEC3CD4FCED3DD4FDEE3ED4FEEF87
:101F70003FD4FF602D05F074052BD4FBE43CD4FC6A
:101F8000E43DD4FDE43ED4FEE43FD4FF758204C3B7
:101F9000EF13FFEE13FEED13FDEC13FCEB13FBD57B
:101FA00082EDD8AF7867D0E020E704762B80027608
:101FB0002D087906E7C4540F4430F608B9060376B5
:101FC0002E08E7540F4430F60819B902E7764508A1
:101FD000E5F020E704762B8004762DF4040875F0F4
:101FE0000A844430F608E5F04430F608E4F6900040
:101FF0006775F04022AA82AB83ACF07D007E008A38
:10200000828B838CF01213EEFFA3AA82AB83EF6066
:10201000070DBD00EA0E80E78D828E8322B9800312
:10202000EA13B34010EA2401FAE43BFBE43CFC5021
:10203000047C800582BC000EBB000BBA0008E4F5EE
:10204000F0F583F58222A2D1E582138CF092F78B12
:10205000838A8222E4F583F58275F080F4A2D1139D
:1020600022E4F583F58275F0C0747F227804EC7069
:1020700011E58224F8500AF582E4C9CACBFCD8EFF6
:1020800022EC7820058220E713D5820122C3E933B0
:10209000F9EA33FAEB33FBEC33FCD8EA1582220081
:00000001FF
