:020000040800F2
:1000000000200020B9000008010A0008150A0008B5
:1000100000000000000000000000000000000000E0
:10002000000000000000000000000000010A0008BD
:100030000000000000000000010A0008010A00089A
:10004000010A0008010A0008010A0008010A000864
:10005000010A0008010A0008010A0008010A000854
:1000600000000000010A0008010A0008010A000857
:10007000010A0008010A000800000000010A000847
:1000800000000000010A000800000000000000005D
:10009000010A000800000000010A0008010A000827
:1000A000010A0008010A0008010A00088D0C000876
:1000B000010A0008010A000800F01EFC00F0E0FB45
:1000C000E1235B02180000F039FD62B6C04600F083
:1000D000E5FA024B180000F0A1FEFEE708820008D6
:1000E00080B582B000AF7860C0467B685A1E7A60E7
:1000F000002BFAD1C046C046BD4602B080BD80B5D7
:1001000000AF0B4B0B4A5A60094B00229A60084B18
:1001100005221A60C046064B1A6880235B02134012
:10012000F9D0034B00221A60C046BD4680BDC046D0
:1001300010E000E0FF7C000080B582B000AF786086
:1001400001E0FFF7DCFF7B685A1E7A60002BF8D1D4
:10015000C046C046BD4602B080BD80B584B000AF89
:1001600078603A4B3A4A5A60384B394A9A60374B72
:1001700005221A6007E0354B1A6880235B021340A2
:1001800001D000235EE0A023DB051A6980235B0019
:100190001340F0D12D4B00221A602C4B2C4A5A6090
:1001A0002A4B2B4A9A60294B05221A6007E0274BFD
:1001B0001A6880235B02134001D0002342E0A02391
:1001C000DB051A6980235B001340F0D01F4B00222F
:1001D0001A601E4B1E4A5A601C4B1D4A9A601B4BEC
:1001E00005221A600023FB6021E0184B1A68802367
:1001F0005B02134001D0002324E0A023DB051A6931
:1002000080235B001340F0D107E0104B1A68802375
:100210005B02134001D0002314E0A023DB051A6920
:1002200080235B001340F0D0FB680133FB60FA6869
:100230007B689A42E1DB054B00221A60034B9B6806
:10024000034AD31A1800BD4604B080BD10E000E098
:10025000FFFFFF0080B500AF3D4BDA6A3C4B012148
:100260000A43DA62A023DB051B68032293431A00CA
:10027000A023DB0501210A431A60A023DB055A688D
:10028000A023DB0501218A435A60A023DB051B68FC
:100290000C2293431A00A023DB0504210A431A60B1
:1002A000A023DB055A68A023DB0502218A435A609C
:1002B000A023DB051B68302293431A00A023DB0533
:1002C00010210A431A60A023DB055A68A023DB052E
:1002D00004218A435A60A023DB051B68C022934394
:1002E0001A00A023DB0540210A431A60A023DB0586
:1002F0005A68A023DB0508218A435A60A023DB0546
:100300001B68144A1A40A023DB05802149000A43D8
:100310001A60A023DB055A68A023DB0510218A435D
:100320005A60A023DB051B680B4A1A40A023DB059B
:100330008021C9000A431A60A023DB055A68A02364
:10034000DB0520218A435A60C046BD4680BDC046B9
:1003500000100240FFFCFFFFFFF3FFFF80B582B0FB
:1003600000AF0200FB1D1A70FB1D1B78190010481E
:1003700000F082FF030019000E4800F07DFF03002B
:100380005A1E0D4B5A600C4B00229A600A4B0522F4
:100390001A60C046084B1A6880235B021340F9D0EC
:1003A000054B00221A60C046BD4602B080BDC04663
:1003B00040420F000048E80110E000E080B500AFC7
:1003C000A023DB055A69A023DB0502210A435A61F9
:1003D0002820FFF7C3FFA023DB055A69A023DB0514
:1003E00002218A435A61C046BD4680BD80B582B0B5
:1003F00000AF0200FB1D1A70FB1D1B785BB2002BC7
:1004000008DAA023DB055A69A023DB0520210A4373
:100410005A6107E0A023DB055A69A023DB052021F0
:100420008A435A61FB1D1B784022134008D0A02349
:10043000DB055A69A023DB0510210A435A6107E056
:10044000A023DB055A69A023DB0510218A435A61EA
:10045000FB1D1B782022134008D0A023DB055A691E
:10046000A023DB0508210A435A6107E0A023DB052E
:100470005A69A023DB0508218A435A61FB1D1B78BA
:100480001022134008D0A023DB055A69A023DB0506
:1004900004210A435A6107E0A023DB055A69A0231F
:1004A000DB0504218A435A61FFF788FF2820FFF704
:1004B00055FFFB1D1B780822134008D0A023DB0545
:1004C0005A69A023DB0520210A435A6107E0A023D3
:1004D000DB055A69A023DB0520218A435A61FB1DF5
:1004E0001B780422134008D0A023DB055A69A023FF
:1004F000DB0510210A435A6107E0A023DB055A6996
:10050000A023DB0510218A435A61FB1D1B780222C0
:10051000134008D0A023DB055A69A023DB0508217E
:100520000A435A6107E0A023DB055A69A023DB05D3
:1005300008218A435A61FB1D1B780122134008D011
:10054000A023DB055A69A023DB0504210A435A6175
:1005500007E0A023DB055A69A023DB0504218A43B9
:100560005A61FFF72BFFC046BD4602B080BD80B583
:1005700082B000AF0200FB1D1A70A023DB055A6990
:10058000A023DB0501210A435A61FB1D1B781800DB
:10059000FFF72CFF0220FFF7CFFDC046BD4602B09B
:1005A00080BD80B582B000AF0200FB1D1A70A02391
:1005B000DB055A69A023DB0501218A435A61FB1D33
:1005C0001B781800FFF712FF0520FFF7B5FDC046A6
:1005D000BD4602B080BD80B500AFA023DB055A69DF
:1005E000A023DB0502218A435A611420FFF7A4FDF2
:1005F0003320FFF7D6FF3320FFF7D3FF3220FFF77A
:10060000D0FF2820FFF7CDFF0C20FFF7CAFF012005
:10061000FFF7C7FF1420FFF78FFDC046BD4680BD22
:1006200080B584B000AF786008001100FB1C021C8C
:100630001A70BB1C0A1C1A70FB1C1B78022B01D100
:10064000C02300E080231800FFF7ABFF0520FFF771
:1006500073FD0023FB6009E0FB687A68D3181B7800
:100660001800FFF784FFFB680133FB60FB687A68C2
:10067000D3181B78002BEFD1BB1C1B78002B09D0A3
:1006800005E02020FFF773FFFB680133FB60FB6888
:100690000F2BF6DDC046BD4604B080BD80B588B0E6
:1006A00000AF634BDA6A624B01210A43DA62A0238E
:1006B000DB051A68A023DB055E490A401A60A02307
:1006C000DB05DA68A023DB05802149020A43DA60F2
:1006D000A023DB05DA68A023DB0557490A40DA606E
:1006E000FA235B001800FFF727FD544B180003F0B6
:1006F000B7FDFFF7AFFDFFF76EFFFA235B001800B1
:10070000FFF71AFD4E4B180003F0AAFD4D4B0122D6
:1007100001211800FFF784FF4B4B01220221180032
:10072000FFF77EFF6420FFF718FD0300FB61FB6904
:10073000002B6FDDF86902F0E9F90022434B01F06C
:1007400005FC02000B001000190002F057FA031C10
:10075000BB61B969FE20800500F0B4FE031C7B611B
:10076000786902F003FA3A4A3A4B01F00BFF0200B3
:100770000B0010001900384A384B01F089F80200CC
:100780000B001000190002F039FA031C7B61344998
:10079000786900F06FFE031E1BD0786902F0E6F95D
:1007A00002000B002F49380003F092FD3B000122AC
:1007B00001211800FFF734FF2B4A3B0011001800FD
:1007C00003F086FD3B00012202211800FFF728FFFD
:1007D00024E02649786900F075FE031C181C02F01D
:1007E000C5F902000B002249380003F071FD3B00FF
:1007F000012201211800FFF713FF1E4A3B001100E0
:10080000180003F065FD3B00012202211800FFF7EC
:1008100007FF03E0184B180003F098FC174B1B6808
:100820009B68180002F0DAFBC820FFF785FC79E727
:1008300000100240FFFFFCFFFFFFFDFF00810008EA
:10084000608100088C8100089C81000884D7E74102
:10085000CD3033D52EA141BFB29DEFA7C67359400D
:1008600000002041AC810008B881000800007A44F3
:10087000C8810008D4810008E88100080400002035
:1008800080B582B000AF164B7B60164B3B6007E033
:100890007A68131D7B603B68191D396012681A6005
:1008A0003A68114B9A42F3D304E03B681A1D3A6050
:1008B00000221A603A680D4B9A42F6D30C4B3B600B
:1008C00004E03B681A1D3A601B6898473A68094B78
:1008D0009A42F6D3C046C046BD4602B080BDC0466F
:1008E0009887000800000020D4010020900200201A
:1008F000988700089887000880B500AF3B4B1A68BE
:100900003A4B01210A431A60C046384B1B68042247
:100910001340FAD0354B0122DA60C046334BDB6816
:100920000C221340042BF9D1314B1A68304B0221B1
:100930000A431A602E4B1A682D4B01210A431A6094
:100940002A4B9A6B294B802149050A439A63294B0C
:10095000802212011A60C046264B5B6810221340A9
:10096000FAD1224BDA68214B23490A40DA601F4B47
:10097000DA681E4B8821C9030A43DA601B4A1B4B05
:10098000D268DA60194A194BD268DA60174A174BF5
:10099000D268DA60154B1A68144B18490A401A607D
:1009A000124B1A68114B802149040A431A60C04651
:1009B0000E4B1A6880239B041340F9D00B4BDA6866
:1009C0000A4B03218A43DA60084BDA68074B03219C
:1009D0000A43DA60C046054BDB680C2213400C2B3F
:1009E000F9D1C046C046BD4680BDC0460010024099
:1009F0000020024000700040FFFF02FFFFFFFFFEEB
:100A000080B500AF024B180000F008FAFEE7C046C0
:100A10003082000880B500AF024B180000F0FEF9EC
:100A2000FEE7C0466082000890B585B000AF7860F0
:100A30003960184B1B68002B02D101235B4224E074
:100A40000023FB600AE0FB685A1CFA603A68D4187D
:100A5000114B180000F0ADF9030023707B68013BD7
:100A60001A00FB68934205D20B4B180000F0CCF93A
:100A7000031EE8D1FB68002B06D03A68FB68D31848
:100A800000221A70FB6800E000231800BD4605B084
:100A900090BDC0466C020020D401002080B584B017
:100AA00000AF78603960224B1B68002B02D1012314
:100AB0005B4238E07B683F2B0BDCC0461D4B1800C7
:100AC00000F0A2F903004022D21A7B689A42F5D3C3
:100AD00002E002235B4226E00023FB600BE03A6861
:100AE000FB68D3181A78134B1100180000F030F986
:100AF000FB680133FB607B68FA689A42EFD30E4BC8
:100B00001B68082213400DD10B4B1A680A4B0821B1
:100B10000A431A60074B180000F04BF903001A0053
:100B2000054B9A6200231800BD4604B080BDC04644
:100B30006C020020200200200038014080B584B003
:100B400000AF786072B6C046454B00229A64444BB1
:100B50009A6C434B5A64424B5A6C414B1A64414B5A
:100B600000229A643F4B9A6C3E4B5A643D4B5A6C40
:100B70003C4B1A643C4B01221A603C4B00221A6029
:100B80003B4BDA6A3A4B01210A43DA62394BFB608C
:100B90007968F86800F070FB0300FB60A023DB05B8
:100BA0009A68A023DB058021C9020A439A60A0232A
:100BB000DB055A68A023DB052F490A405A60A023B1
:100BC000DB051B682D4A1A40A023DB0580210903A1
:100BD0000A431A60A023DB055A6AA023DB054021E3
:100BE0000A435A62A023DB051B68254A1A40A0234A
:100BF000DB05802189030A431A60A023DB055A6ABA
:100C0000A023DB058021C9000A435A62184B5A6BA6
:100C1000174B8021C9010A435A631A4B1A68194BB2
:100C20006C210A431A60174B00225A60154B0022B0
:100C30009A60144BFA68DA60124B1A68114B012162
:100C40000A431A60104B1A680F4B802109050A43AA
:100C50001A6062B6C046C046BD4604B080BDC046FC
:100C6000D4010020200200206C020020700200202D
:100C7000001002400048E801FFFDFFFFFFFFF3FF07
:100C8000FFFFCFFF0038014000E100E080B500AF7A
:100C9000084BDB698022134001D000F025F8054B9A
:100CA000DB692022134001D000F006F8C046BD46A3
:100CB00080BDC0460038014080B500AF074B5B6A7D
:100CC000DAB2074B1100180000F042F8031E02D000
:100CD000044B01221A60C046BD4680BD0038014069
:100CE000D40100207002002080B500AF164B180020
:100CF00000F08AF8031E08D0134B180000F059F8D2
:100D000003001A00114B9A621BE0104B1A680F4B3C
:100D100008218A431A600D4BDB694022134005D03D
:100D20000A4B1A6A094B40210A431A62074BDB69D6
:100D30008022134005D0054B9A69044B10210A43C9
:100D40009A61C046BD4680BD2002002000380140A7
:100D500080B582B000AF78600A00FB1C1A707B6817
:100D60001A6C7B685B6C9A4205D17B689B6C002B8C
:100D700001D0012319E072B6C0467B681B6C591C78
:100D80007A6811647A68F91C0978D1547B689B6C85
:100D90005A1C7B689A647B681B6C402B02D17B6871
:100DA00000221A6462B6C04600231800BD4602B095
:100DB00080BD80B584B000AF78607B689B6C002BF1
:100DC00001D100231CE072B6C0467B685B6C591CE5
:100DD0007A6851640F22BA187968CB5C13707B680B
:100DE0005B6C402B02D17B6800225A647B689B6C51
:100DF0005A1E7B689A6462B6C0460F23FB181B78A4
:100E00001800BD4604B080BD80B582B000AF7860E8
:100E10007B689B6C1800BD4602B080BD80B582B077
:100E200000AF78600B4B1B68002B09D101235B429C
:100E30000BE07B685A1C7A6019000120FFF72EFE38
:100E40007B681B78002BF4D100231800BD4602B04C
:100E500080BDC0466C02002080B582B000AF0200A9
:100E6000FB1D1A70FB1D19000120FFF717FEC0467D
:100E7000BD4602B080BD80B500AF044B1800FFF73F
:100E800098FF03001800BD4680BDC046D401002075
:100E9000B0B584B000AF786039601E4B1B68002B82
:100EA00002D101235B4231E00023FB600B23FB18DE
:100EB00000221A7017E0C046174B1800FFF7A4FF76
:100EC000031EF9D00B257C19134B1800FFF771FF97
:100ED00003002370FB685A1CFA601A007B689B1899
:100EE0007A1912781A703B68013BFA689A4204DA60
:100EF0000B23FB181B780D2BDDD1FB68002B04DDC9
:100F0000FB687A68D31800221A70FB681800BD4687
:100F100004B0B0BD6C020020D401002090B583B0B5
:100F200000AFFC1DFFF7A7FF03002370FB1D1B781C
:100F30001800FFF791FFFB1D1B781800BD4603B09A
:100F400090BDB0B584B000AF78603960214B1B68AC
:100F5000002B02D101235B4237E00023FB600B230F
:100F6000FB1800221A701DE0C0461B4B1800FFF74B
:100F70004BFF031EF9D00B257C19174B1800FFF708
:100F800018FF030023702C003B191B781800FFF793
:100F900063FFFB685A1CFA601A007B689B183A19B9
:100FA00012781A703B68013BFA689A4204DA0B2304
:100FB000FB181B780D2BD7D1FB68002B04DDFB68D9
:100FC0007A68D31800221A70FB681800BD4604B076
:100FD000B0BDC0466C020020D401002080B582B0B4
:100FE00000AF7860FEE780B582B000AF7860012383
:100FF0005B421800BD4602B080BD80B584B000AF32
:10100000F860B9607A60044B0C221A6001235B42DD
:101010001800BD4604B080BD8002002080B500AF3E
:10102000034B0B221A6001235B421800BD4680BDB2
:101030008002002080B582B000AF786039603B68E4
:10104000802292015A6000231800BD4602B080BD84
:1010500080B500AF01231800BD4680BD80B582B0C9
:1010600000AF78603960044B16221A6001235B429E
:101070001800BD4602B080BD8002002080B582B05D
:1010800000AF78603960044B1F221A6001235B4275
:101090001800BD4602B080BD8002002080B584B03B
:1010A00000AFF860B9607A6000231800BD4604B054
:1010B00080BD80B582B000AF786039603B68802227
:1010C00092015A6000231800BD4602B080BD80B571
:1010D00082B000AF786001235B421800BD4602B0C9
:1010E00080BD80B582B000AF7860044B02221A60E8
:1010F00001235B421800BD4602B080BD8002002083
:1011000080B582B000AF7860044B0A221A600123D8
:101110005B421800BD4602B080BDC0468002002080
:1011200080B582B000AF78607B68022B01D80123C4
:1011300003E0044B09221A6000231800BD4602B0E8
:1011400080BDC0468002002080B586B000AF7860C8
:10115000124B7B61124B3B61124B1B68002B02D17F
:10116000104B7A691A600F4B1B68FB600D4B1A68B5
:101170007B68D3183A699A4205D20B4B0C221A604D
:1011800001235B4206E0074B1A687B68D218054BC7
:101190001A60FB681800BD4606B080BD90020020B2
:1011A000001000207C0200208002002080B588B062
:1011B00000AFF860B9607A600023BB61FB68002B68
:1011C00022D10023FB611AE0FFF755FE03001A004D
:1011D00017217B181A70BB685A1CBA607A181278EB
:1011E000D2B21A70BB690133BB617B181B78DBB2CA
:1011F0000A2B01D1BB690EE0FB690133FB61FA697F
:101200007B689A42E0DB05E0054B09221A60012366
:101210005B4200E0BB691800BD4608B080BDC04617
:101220008002002080B586B000AFF860B9607A60B7
:10123000FB68013B012B11D800237B6109E0BB68EF
:101240005A1CBA601B781800FFF706FE7B69013351
:101250007B617A697B689A42F1DB05E0054B0922E4
:101260001A6001235B4200E07B681800BD4606B0AF
:1012700080BDC0468002002003460B437FD400227D
:1012800043088B4274D303098B425FD3030A8B421A
:1012900044D3030B8B4228D3030C8B420DD3FF2284
:1012A000090212BA030C8B4202D31212090265D052
:1012B000030B8B4219D300E0090AC30B8B4201D305
:1012C000CB03C01A5241830B8B4201D38B03C01A4C
:1012D0005241430B8B4201D34B03C01A5241030BC3
:1012E0008B4201D30B03C01A5241C30A8B4201D374
:1012F000CB02C01A5241830A8B4201D38B02C01A1F
:101300005241430A8B4201D34B02C01A5241030A95
:101310008B4201D30B02C01A5241CDD2C3098B427A
:1013200001D3CB01C01A524183098B4201D38B01F7
:10133000C01A524143098B4201D34B01C01A52419A
:1013400003098B4201D30B01C01A5241C3088B42DF
:1013500001D3CB00C01A524183088B4201D38B00CA
:10136000C01A524143088B4201D34B00C01A52416C
:10137000411A00D201465241104670475DE0CA0F43
:1013800000D04942031000D34042534000229C4603
:1013900003098B422DD3030A8B4212D3FC2289010D
:1013A00012BA030A8B420CD3890192118B4208D3E3
:1013B000890192118B4204D389013AD0921100E045
:1013C0008909C3098B4201D3CB01C01A5241830959
:1013D0008B4201D38B01C01A524143098B4201D386
:1013E0004B01C01A524103098B4201D30B01C01AB1
:1013F0005241C3088B4201D3CB00C01A524183082B
:101400008B4201D38B00C01A5241D9D243088B4280
:1014100001D34B00C01A5241411A00D20146634623
:1014200052415B10104601D34042002B00D5494287
:10143000704763465B1000D3404201B5002000F0C6
:1014400005F802BD0029F8D016E770477047C0467E
:10145000844608006146FFE71FB500F0CBF900287D
:1014600001D40021C8421FBD10B500F04BF9404225
:10147000013010BD10B500F0BDF9002801DB0020DF
:1014800010BD012010BDC04610B500F0B3F9002812
:1014900001DD002010BD012010BDC04610B500F0D8
:1014A00059F9002801DC002010BD012010BDC04604
:1014B00010B500F04FF9002801DA002010BD01201E
:1014C00010BDC046F0B54F464646D6464402C0B5AC
:1014D00047000E1C640A3F0EC50F002F3CD0FF2FA3
:1014E00042D00023802299469A46E400D204144355
:1014F0007F3F73025B0A984673001B0EF60F002BAA
:101500001BD0FF2B13D042468021D200C9041143C7
:10151000884600207F3B2900FF1A4B467140C9B224
:101520000F2B00D9B5E0744A9B00D3589F46434621
:10153000002B3FD1FF3F023303E04346002B2DD168
:10154000012329004A467140C9B21A430E2A38D8ED
:101550006A48920082589746002C13D1042399467A
:10156000033B00279A46C4E7002C05D1082399467F
:10157000063BFF279A46BCE70C239946093BFF2709
:101580009A46B6E7200001F04FFC7627431F9C40A7
:1015900000237F4299469A463F1AAAE7404601F047
:1015A00043FC4246431F9A4076235B421B1A9046F7
:1015B0000020B0E703234A461A4391460320FC3338
:1015C000A9E70D00FF200022C005ED0710432843C6
:1015D000E0BCBA46B146A846F0BD0D00002000228E
:1015E000F2E75346022BEDD0032B33D0A046012B5C
:1015F00005D100200022E7E7350003287AD03B0020
:101600007F33002B2DDD4246520707D00F22414683
:101610000A40042A02D004229446E04442461201C1
:1016200005D54246364B1A403B0090468033FE2B90
:10163000C8DC42469201520AD8B2C5E78022002592
:10164000FF20D203C0E78022D203144202D04346D7
:10165000134249D08022D20322435202FF20520A71
:10166000B2E70122D31A1B2BC3DC4246DA404346C1
:101670009E37BB40591E8B411A43530704D00F239A
:101680001340042B00D00432530129D5012000223D
:101690009AE7424663015501AB4215D21B20002256
:1016A000013F01261C0052005B00002C01DB9D4223
:1016B00001D85B1B324301380028F3D1581E834107
:1016C000134398460D009AE71A2001225B1BE8E7B6
:1016D000023B5A4253415B4235000022D8B273E7C5
:1016E00092010020520A6FE71A4352023500FF2090
:1016F000520A69E74446ADE784820008C4820008C4
:10170000FFFFFFF770B542004E024C0045026D0A24
:10171000120EC30F760A240EC90FFF2A10D0FF2C19
:101720000CD00120A2420AD1B54208D18B420FD081
:10173000002A04D12800431E984100E0012070BD1A
:101740000120FF2CFBD13543F9D14B401800F6E7BF
:101750000020F4E730B5420044024D02C30F4800B8
:10176000640A120E6D0A000EC90FFF2A19D0FF2855
:101770000BD0002A1ED100280BD1002D27D0002C21
:1017800034D100292FD0080030BD002D28D1002AE7
:1017900001D1002CF5D08B4207D1002B23D01800AB
:1017A000F2E7002C1CD1FF2814D0581E0223184049
:1017B0000138E9E70028F8D08B42F6D18242F4DC08
:1017C000EBDBAC42F1D80020AC42DDD2E5E7002CE7
:1017D000DAD0EAE7002D03D18B42E6D10020D3E72F
:1017E00002204042D0E701204042CDE78B42E8D0C2
:1017F000DBE7C04630B5420044024D02C30F48004B
:10180000640A120E6D0A000EC90FFF2A1AD0FF28B3
:101810000ED0002A1ED100280ED1002D2AD0002C77
:101820000CD08B421DD0581E02231840013810E006
:10183000002D0DD1002A20D1002C1ED1002923D04B
:10184000080006E0002C03D1FF28ECD1002D17D0B2
:10185000022030BD0028E6D08B42E4D18242E2DC97
:1018600004DBAC42DFD80020AC42F2D2002B0BD01C
:101870001800EEE7002CECD0D5E78B42D3D1F5E78A
:1018800000208B42E5D0CEE701204042E1E7C04690
:10189000F0B557464E464546DE46E0B583B000906B
:1018A00001910C034F00CE0F610A009C1D03640FD1
:1018B0000C43009900920193C80059004B0D9946C2
:1018C000009A019B6D0AD90F530F2B439A46009B38
:1018D0007F0DDA0094464A46B046BA1A8E4200D1CD
:1018E000B0E0002A00DC78E04946002900D1E9E0B8
:1018F000C8498F4200D193E10125382A16DC8021A6
:10190000534609040B439A461F2A00DDE5E12021D6
:1019100055468B1A61469D40D1400D436146994022
:101920004B1E99415346D3400D43E41A451BA84230
:1019300080414042241A230200D40EE16402640A6A
:10194000002C00D138E1200001F06EFA0300083BC2
:1019500020212800CA1AD0409C4002009D4022430A
:101960009F4200DD71E1D81B0130091A2C008D4027
:10197000C4406B1E9D411300C2408B40254300278D
:1019800014001D436B0709D00F232B40042B05D0F7
:101990002B1DAB42AD416D4264191D00230200D4E2
:1019A0002CE19C4A0137974200D1D2E046469A4941
:1019B000EA08214048074D027C0502432D0B640DC7
:1019C00024052C43F60734431000210003B0F0BC7B
:1019D000BB46B246A946A046F0BD002A00D184E02D
:1019E0004A46D21B002F00D06BE12500054300D1F1
:1019F00025E1561E012A00D136E2864DAA4200D1C9
:101A0000F6E10125382E12DC32001F2A00DDFEE14E
:101A100020262500B61A07005346B040D440B540F2
:101A2000D740461EB0411B1B9A463D4305436246C4
:101A3000551BAC459241534652420E004F468846D4
:101A40009C1A78E7002A00DC8DE04946002974D111
:101A500061465346194300D1F4E0511E012A00D1DA
:101A600091E16C4DAA4200D1DAE00125382914DC5D
:101A70000A001F2A00DDA2E120215346891A8B406B
:101A80001D006346D3401D4363468B4019004B1E27
:101A900099415346D3400D43E4182D1885428041A7
:101AA00040422418230258D55A4B01379F4250D048
:101AB0000121594B6A081C4029400A43E507154398
:101AC00064085FE761465346194300D1BAE0511EEE
:101AD000012A00D164E14F4DAA4200D16AE10125FB
:101AE000382900DD22E70A000EE74C4A7D1C15422A
:101AF00000D0CEE022000243002F00D037E1002AC0
:101B000000D1BDE1624653461A4300D16BE1634602
:101B1000C51A5346E21AA8429B415B42D31A1A02E5
:101B200000D4F7E163461D1AAC4592415346524238
:101B30001C1B0E008846A41A24E736498F426FD03A
:101B40000125382AA9DC8021534609040B439A4613
:101B50008FE73C000025002232E707232B40002BB3
:101B600000D011E792E0002A73D04A46D21B002F22
:101B700000D1C6E02749894500D141E10125382A35
:101B800012DC802109040C431F2A00DDA7E120217B
:101B90002500891A070088408D40D740411E8841A2
:101BA000D4403D430543A2446544654592415242B9
:101BB000524414004F4675E7280001F035F9030040
:101BC00018331F2B00DCC3E62A00083882409F42EE
:101BD00000DDA7E0DB1B581C1F2800DCA8E1150076
:101BE0001F3BDD40202805D040231B1A9A40531E7E
:101BF0009A411543072300272B40B0E7ED08054B1A
:101C000062072A43E4089F420ED02403250B7C057B
:101C1000640DD5E6FF070000FFFF7FFFFE07000011
:101C2000C00862070243E4081300234300D183E1A4
:101C300080252D0325432D03C14C2D0BC0E66046A6
:101C400054460E001700C508D9E7BE4CFF1A1440D1
:101C500098E6BD4A791C11426AD122000243002F46
:101C600000D0E3E0002A00D132E1624653461A4335
:101C700000D1B8E06346C5188542804154444042D3
:101C80002418230202D50F00AE4B1C403A00280056
:101C9000D8E76246851AA84292415346524291467D
:101CA000E31A1A004B46D21A130091461A0253D473
:101CB0004A464C462A4300D042E60026002400252E
:101CC0007EE69F4DA94500D192E00125382A00DD2E
:101CD000ADE680252D042C4397E6110055462039AA
:101CE000CD40A946202A06D0402153468A1A934067
:101CF00062461A43944665466B1E9D414B461D4302
:101D000014E62100014300D1C7E0511E012A00D191
:101D1000F8E08B4DAA4273D00125382900DD43E756
:101D20000A0031E7874CFF1A14406207E4086CE7A9
:101D3000834A914200D1E1E06346C2188242804169
:101D40002300404253441B18DD075C080723520858
:101D500015430F002B4002E763461D1AAC45924124
:101D6000534652421C1B0E008846A41AE8E5002A7E
:101D700000D095E0624653461A4300D0D0E080245C
:101D80000026240354E76346C51885428041544425
:101D9000404224180127230200D4DEE6022787E60A
:101DA0006346C51AA842804153464042E41A0127BF
:101DB000241AC0E56307C2081A43E40834E7110097
:101DC00053462039CB409946202A06D0402153461D
:101DD0008A1A934062461A43944665466B1E9D419B
:101DE0004B461D4359E66207C0080243E4080CE76E
:101DF0006346DA08534658070E000243DC0813E72F
:101E00006346DA08534658070243DC080CE715001E
:101E10002600203DEE40202A03D04025AA1A9440F7
:101E20002043421E90410500354300E6002AE7D0DA
:101E300062465346C0081A4300D1F2E662071043D7
:101E40008022E4081203144208D0D908114205D1B7
:101E50006346D80853460C005B071843430FC00085
:101E6000C2085B071A43DFE663461D1AAC45924180
:101E7000534652421C1B0E008846A41A01375AE5ED
:101E8000624653461A4300D117E76346DA085346C1
:101E900058070E000243DC08B7E660465446D1E618
:101EA00062465346C0081A4300D1BAE6620710439F
:101EB0008022E40812031442D0D0DD081542CDD1AF
:101EC0006346D80853465B070E002C001843C5E74D
:101ED0006346DA08534658070243DC0895E61100CA
:101EE00027002039CF40202A03D040218A1A94406D
:101EF0002043421E904105003D4355E60C0000255D
:101F000000225DE560446045924154445242050020
:101F1000A4183FE71A001C002A4300D0B6E6CCE61E
:101F200058076346DA0853460E000243DC087BE696
:101F300020210025091A1EE500220025004C3FE55E
:101F4000FF070000FFFF7FFFFE070000F0B5DE4641
:101F5000454657464E46E0B587B0009201930B03C5
:101F60001B0B9B46CA0F4B00040080465B0D029280
:101F700000D16AE1D44A934200D18CE15946420F24
:101F8000C9000A43802109041143C2009046CF4A88
:101F9000894692469A44002300240393009E019FA1
:101FA0003B031B0B9B467B0030005B0DFD0F002BA2
:101FB00000D128E1C44A934200D177E15946720F1B
:101FC000C9000A438021090411438B46BF49F2002E
:101FD0008C4651466344CB1A9A460023029E6E40BB
:101FE0000F2C27D8BA49A40009598F46CB46424640
:101FF000029E039B022B16D0032B00D1A9E2012BDA
:1020000000D0DFE000220023002490461B0523437C
:10201000F60733434046190007B0F0BCBB46B24652
:10202000A946A046F0BD002200249046A64BEDE74D
:102030002E00DFE7CB4500D2D8E100D1D3E1012368
:102040005B429C46444648460027E2445B46150EE8
:102050001B021D43190C2B04120200951D0C914606
:102060000291039500F0DCFE02006A430B04210C90
:10207000804619438A4209D9009D0123AC465B4240
:1020800061449C46E0448D4200D8FFE1881A0299E1
:1020900000F0C6FE039A240442430904240C030002
:1020A0000C43A24206D90099013B8C466444A142EC
:1020B00000D8E5E1A01A424612041A4393464B4663
:1020C00059461B0C1D0004930B0449460904090CD6
:1020D0000C001B0C5C43120C6B43884651436A4353
:1020E000250CAC465B186344994203D98021490210
:1020F0008C466244190C24041B04240C8A181C19F5
:10210000904202D316D1A74214D25B46009D013BF8
:102110004F4405934F459B41AC465B426344C01816
:10212000854200D3A5E1824200D9F9E100D1F4E172
:10213000059B9B463C1BA742BF41009D801A7F42E6
:10214000C01B854200D1D4E1029900F069FE039AD8
:102150000B044243210C070019438A4200D97CE159
:10216000881A029900F05CFE039A24044243090491
:10217000240C03000C43A24200D961E14146A41A99
:102180003A041A43049D13041B0C594347466B43FE
:102190009C46100C47430B0CBC44634468439F426D
:1021A00003D980256D02AC4660441F0C09041B0452
:1021B000090C3F185B18BC4200D206E100D101E1D6
:1021C00001231A43434B5344002B00DCB2E0510778
:1021D00000D09BE15946C90106D559463E4B1940EE
:1021E00080238B46DB0053443C498B4200DD1AE7D9
:1021F0005946D208490711435A465B05540288469E
:10220000240B5B0D02E75A46009B1A4300D182E083
:102210005B46002B00D104E1584600F005FE0200A9
:1022200003000B3A1D27009EBA1A19005846D640E3
:1022300008398840320002439346009A8A40284970
:1022400053448A469A440023C8E65B4603439946B2
:102250005AD05B46002B00D1D1E0584600F0E4FD97
:102260000B235B429C460200844466461D239B1B55
:10227000260011005846DE400839884033000343E9
:10228000994623008B409846164B00249B1A9A4689
:102290000023039382E65A46024391462ED1002240
:1022A0009A46022390460824039377E65A46009BF9
:1022B0001A431BD102231C430B4B9C460023E244D0
:1022C0009B4602338AE6C046FF07000001FCFFFF81
:1022D00000830008FF030000FFFFFFFEFE07000071
:1022E000F30300000DFCFFFF01F8FFFF03231C4375
:1022F0009F4B32009C460323E2446FE69A46032339
:10230000D9460C24039349E6002398469A460133A4
:102310000424039342E601231C4300239B4601331C
:102320005CE60023802498460026924B24036DE649
:10233000012252420121C91A382900DD62E61F2913
:1023400000DCABE01F204042C31A5846D8400300CF
:10235000202904D058468849514488400243511EE0
:102360008A411A43072319000024114013420CD05C
:102370000F231340042B00D1F8E0111D91429B4123
:102380000A005B4259075B021C0BD2080A439046C5
:1023900000233BE680244B462403234209D05B46BE
:1023A000234206D11C4324032E009046714B240B7C
:1023B0002CE680244B4624031C432403029E6D4BD1
:1023C000240B23E6002B00D1FCE60098511E844626
:1023D0006444844200D284E0BC4200D2ADE000D12B
:1023E000C0E00A00ECE6424500D928E64B46DC078F
:1023F000580843465B081C434346DF0726E600F0C7
:1024000013FD15239C4684440200634620321C2B96
:1024100000DC2AE7230008388340994600239846C9
:1024200032E700F001FD02000300153220331C2AC0
:1024300000DCF7E600990838814000228B46FEE672
:102440000099013B8C466444A14200D996E6A24221
:1024500000D893E6831E644490E6AC466144013F95
:102460008D4200D97CE68A4200D879E6871E614415
:1024700076E6854200D05BE6B94500D958E652E6DB
:10248000A24200D816E6831E644413E68A4200D8AE
:10249000FCE5AC46831E98466144F7E537481400D6
:1024A000504482405B4617008340CC407A1E9741DF
:1024B00023433B431A005B46CB40510709D00F2111
:1024C0001140042905D0111D9142924152429B189E
:1024D0000A00190200D455E7002201230024904687
:1024E00094E50A00BC4200D06AE64B4500D067E69E
:1024F00068E6234B5344002B00DC19E701214942D5
:102500000A1D8A42894149428B4463E60F211140EA
:10251000042900D15EE61100F2E7BC4200D807E6CC
:1025200002235B429C4600994F444F459B41E34444
:102530008C465B426344C018FCE54946009D480058
:1025400048458941AC46494261448146023A641893
:10255000C8E780245B4624031C4324039046054BB4
:10256000240B53E59945E8D30A00BEE7002309E7A9
:1025700001F8FFFFFF0700003E0400001E040000FA
:10258000FF030000F0B55746DE464E464546E0B52F
:102590001F000B031B0B16009A46CA0F4B000400CA
:1025A000934687B05B0D00D1D2E0B94A934200D187
:1025B000F5E05146420FC9000A4380210904114346
:1025C000C2009146B34A8A469D180023984602935A
:1025D0003C037B00FA0F3000240B5B0D009200D10E
:1025E00093E0AB4A934231D0E400720F224380243F
:1025F00024041443A74AF000944663445B195A1C10
:102600000192424600250A2A3FDC5A4600994A4078
:1026100093464246022A2FDC013A012A00D945E1BD
:10262000022D00D1C7E0012D3AD100230024002261
:1026300010005A461B052343D2071343190007B065
:10264000F0BCBB46B246A946A046F0BD264300D129
:10265000BBE00322414611435A46884600998C4B01
:102660004A4080210901691801914146EB180A2965
:1026700000DD31E293460325424601279740A6211B
:102680003A00C9000A400F4231D0029D022D00D10C
:1026900033E2032D00D1D0E154464846012DC4D089
:1026A000019A7D4B94466344002B00DCC0E0420756
:1026B00009D00F220240042A05D0021D8242804127
:1026C000404224181000E20106D5744B019A1C40C8
:1026D00080239446DB006344714A93426BDC6207BB
:1026E000C00864025B050243240B5B0DA0E7902148
:1026F00089000F4263D188223A4200D1D6E0009B84
:10270000A2469B4681460295BFE72300334300D192
:102710007FE0002C00D1ABE1200000F085FB02003F
:1027200003000B3A1D201900821A30000839D040EE
:102730008C400443300088405A4AEB1A9446634464
:102740005A1C0192424600250A2A00DC5DE79CE7FC
:1027500053460343994654D05346002B00D175E1AC
:10276000504600F061FB0B235B429C460200844410
:1027700011005046083988401D23804660461B1AC8
:102780002000D8400300404603439A4623008B4074
:1027900099460023434D9846AD1A029318E75246D6
:1027A0000243914626D100221D00022392460832A0
:1027B000904602930CE700240022354B38E70023B3
:1027C00080249B462403324B32E7022342461A43BD
:1027D00080231B01EB18904601930A2A00DD54E781
:1027E0005A46002000992A4B4A40EB1893460400B1
:1027F00002250EE70C221D0003238146904602931A
:10280000E6E600239A4604339846033B00250293EC
:10281000DEE6424601331A432B0090465A1C0192D1
:1028200042460024002001250A2A00DCEDE62CE7C0
:102830000122D21A382A00DDF7E61F2A00DC28E13F
:102840001F214942CB1A2100D9400B00202A05D074
:10285000154A019E94466644B4402043421E90416E
:102860001843072319000024014003420CD00F2312
:102870000340042B00D13EE1031D8342A441180014
:10288000644261076402240BC20800230A43CFE6B6
:10289000FF07000001FCFFFFFF030000FFFFFFFE3A
:1028A000FE0700000DFCFFFF3E04000049464A46BB
:1028B0000904090C0E00150C020C0004000C464320
:1028C000B44606006E43B04616000F006E430092F9
:1028D00002963200009E77436646360CB146474466
:1028E0004F44B84505D9160080225202904646440E
:1028F00002963E0C0396664636043F04360CB446F8
:102900003E0066440496260C2404240CB44626009B
:102910006E43B04666460F007143414489466743A3
:10292000390C49447543884503D9802252029046A8
:1029300045440E0CB04645440595039D3F04A8460A
:102940003F0C0904C91988444546039555462F0C88
:102950002D042D0C2E004643784381463800B046A6
:10296000360CB246009A50436A434A445244914559
:1029700003D980267602B1464844160CB146464635
:102980003604360CB04666467E43120448449044F2
:10299000B1462A006646624375437C43170C2D19E5
:1029A0007F19BC4203D980246402A446E144029CFE
:1029B000039DA446059E65448D428941B446120498
:1029C0003C04120CA2186244494254184544A446DF
:1029D0004545A44182466442A046B24292418C459C
:1029E0008941E244D044494252420A43A045A441AD
:1029F00082458941644249420C4341463F0CD21909
:102A00001219CC0D049968020843411E88414146C1
:102A10004A44ED0D52022843490214430843D201AF
:102A200035D50122430802401343E00718436408E8
:102A300036E6009BA2469B468146802453462403EB
:102A40001C4324034A462F4B240BF1E500F0ECF91C
:102A500015239C4684440200634620321C2B00DC74
:102A600086E6002399462300083883409A4690E67C
:102A700000F0DAF902000300153220331C2A00DCD2
:102A800050E602003400083A0020944054E60193D6
:102A900006E61D4B21009C460300019ED340664480
:102AA000B14019430300B340581E83411943080045
:102AB000D4404B0709D00F230B40042B05D00B1D2E
:102AC0008B428041404224181800230200D4D8E6EB
:102AD000012300240022ABE50F29AAD1802352460E
:102AE0001B031A42A9D01C42A7D11C43009B020021
:102AF0009B46044B9CE50024C3E60024014B2200C6
:102B000096E5C046FF0700001E04000070B50028CF
:102B100016D0C317C5185D40C40F280000F084F913
:102B2000114B1B1A0A2816DC02002E0015329640A3
:102B30000B22121AD5405B052D032D0B5B0D03E014
:102B400000240023002500261B052B43E407234314
:102B50003000190070BD0B3885405B052D03002641
:102B60002D0B5B0DF0E7C0461E04000070B542025D
:102B70004300C40FFE201B0E591C550A08420CD0FE
:102B8000E02189008C466D07120B63441B0513433B
:102B9000E40723432800190070BD002B14D1002D39
:102BA0001BD0280000F040F90A281CDC0B232A0067
:102BB0001B1ADA40030015339D400E4B12031B1AFB
:102BC0005B05120B5B0DE1E7002D09D0130B802292
:102BD00012031A436D07084BD8E700230022D5E7FC
:102BE0000022054BD2E703002A000B3B9A40002548
:102BF000E3E7C04689030000FF070000F0B54B0083
:102C00000F035B0D3F4C450F83B07F0A5E1C2F43C3
:102C100000900191CA0FC50026420BD03A495C18BA
:102C2000FE2C13DDFF200023C0051843D2071043FC
:102C300003B0F0BD002B02D100200023F4E73D4398
:102C4000F0D08023DB03FF203B43EDE7002C14DDB5
:102C5000009BFF009B01581E8341690F3B430B43C0
:102C6000590741D00F211940042947D00433590195
:102C700042D501340023E0B2D6E721001731DBDB77
:102C800080211E2009043943001B1F281BDD02265A
:102C90007642341B0E00E6403400202804D01B4846
:102CA0008446634499400D436B1E9D4125436B0749
:102CB0001DD00F2100242940EB0804291BD15B0201
:102CC0005B0AE0B2B0E7124C1C192B00A540C340D0
:102CD000A140681E854129430B4300245907C1D1F7
:102CE0009B0100205B0A9FE7DB08E0B29CE7AD0197
:102CF00000206B0A98E72B1DDB08E0E79B015B0ACD
:102D0000E0B291E7FE07000080FCFFFFA2FCFFFF9E
:102D100082FCFFFF002243088B4274D303098B42DD
:102D20005FD3030A8B4244D3030B8B4228D3030C9B
:102D30008B420DD3FF22090212BA030C8B4202D33D
:102D40001212090265D0030B8B4219D300E0090A65
:102D5000C30B8B4201D3CB03C01A5241830B8B426E
:102D600001D38B03C01A5241430B8B4201D34B0357
:102D7000C01A5241030B8B4201D30B03C01A5241BC
:102D8000C30A8B4201D3CB02C01A5241830A8B4241
:102D900001D38B02C01A5241430A8B4201D34B022A
:102DA000C01A5241030A8B4201D30B02C01A52418E
:102DB000CDD2C3098B4201D3CB01C01A5241830942
:102DC0008B4201D38B01C01A524143098B4201D37C
:102DD0004B01C01A524103098B4201D30B01C01AA7
:102DE0005241C3088B4201D3CB00C01A5241830821
:102DF0008B4201D38B00C01A524143088B4201D34E
:102E00004B00C01A5241411A00D2014652411046AD
:102E10007047FFE701B50020FEF718FB02BDC04672
:102E20000029F7D076E770471C2101231B04984244
:102E300001D3000C10391B0A984201D3000A08394B
:102E40001B09984201D30009043902A2105C401802
:102E50007047C046040302020101010100000000A6
:102E600000000000F0B5C64600B58B8980460C0016
:102E70001A0743D44A68002A61DDE56A002D39D07B
:102E800042464146166800220A60DA045BD40123F8
:102E900000224046216AA847431C5FD0A389E56A07
:102EA0005B0706D56368C01A636B002B01D0236CE7
:102EB000C01A00230200216A4046A847431C44D19F
:102EC00043461B68002B40D01D2B01D0162B4DD143
:102ED00000236360236923604346616B1E60002901
:102EE00008D023004433994202D0404600F086FACD
:102EF00000236363002080BCB846F0BD0E69002E3D
:102F0000F8D00A680E60951B00229B0700D14A6921
:102F1000A260002D04DCEDE736182D1A002DE9DD46
:102F20002B0032004046216AA76AB8470028F3DC2C
:102F300040220120A38940421343A381DBE70A6CAE
:102F4000002A9ADCD6E7606DAAE700236360236954
:102F50002360A389DB04BFD56065BDE743461B68DA
:102F6000002B9BD01D2B06D0162B04D04022A3890A
:102F70001343A381BFE7434600201E60BBE7C04662
:102F80000B6970B505000C00002B16D0002802D08C
:102F90008369002B15D00E4B9C4210D00D4B9C42E8
:102FA00012D00D4B9C4211D00C22A35E002B04D0FA
:102FB00021002800FFF756FF00E0002070BD6C687C
:102FC000F2E700F05BF9E6E7AC68EDE7EC68EBE709
:102FD00080830008608300084083000870B5041EE9
:102FE00029D00369002B1DD0184B1D68002D02D07D
:102FF000AB69002B18D0164B9C420ED0154B9C424F
:103000001FD0154B9C421ED00C22A35E002B09D072
:1030100021002800FFF726FF70BD6C680C22A35E1C
:10302000002BF5D10020F7E7280000F027F9084B26
:103030009C42E3D1F1E7094B0949186800F066F9B1
:10304000EAE7AC68E0E7EC68DEE7C0460400002091
:10305000808300086083000840830008A083000884
:10306000812F00080020704710B5024900F04EF98A
:1030700010BDC046812F00080020704770B568253C
:103080004A1E55430E002900743100F017FA041E41
:1030900009D000232A00036046600C300021A060A4
:1030A000683200F057F9200070BDC046F0B5C64642
:1030B000274B07001E6800B5B369002B2AD00423F4
:1030C000984648367368B468013B03D51DE0683400
:1030D000013B1AD30C22A55E002DF8D120001D4B18
:1030E00008220021656625606560A560E3602561B2
:1030F0006561A5615C3000F02DF96563A563A56489
:10310000E564200080BCB846F0BD3568002D05D0D0
:103110002E00D7E7300000F01FF8D0E7D6213800A6
:10312000490000F0CBF9041E0DD04346D0220560C3
:10313000250043600C300021A060520000F00AF925
:1031400034602E00BEE70C2330603B60D9E7C046F8
:10315000A08300080100FFFFF0B5D6464F46464663
:10316000384BC0B5836200238364C3640365364B68
:1031700082B01B6805000193984260D02800FFF7D9
:1031800095FF68602800FFF791FFA8602800FFF70F
:103190008DFF6E680024E86004233000746634609C
:1031A0007460B460F36034617461B461082200211A
:1031B0005C3000F0CFF8254B254F9A467362254BC3
:1031C00037639946B362244B3662F362AE68984621
:1031D0003000224B746634607460B460F360346114
:1031E0007461B461082200215C3000F0B3F85346EA
:1031F00073624B46B36243463763F3623662EE68EE
:10320000174B3000F360082200217466346074604C
:10321000B46034617461B4615C3000F09BF8534673
:1032200073624B46B3624346F362012336623763EF
:10323000AB6102B0E0BCBA46B146A846F0BD01237E
:1032400083619BE769300008A083000811430008F0
:10325000A94300083D4300087D4300080900010020
:103260001200020010B5034B0349186800F04EF835
:1032700010BDC046A0830008812F0008836910B5E7
:10328000002B01D1FFF768FF10BDC0467047C04654
:103290007047C0467047C0467047C04610B5034BE4
:1032A0000349186800F012F810BDC0460400002061
:1032B0006530000810B5034B0349186800F006F8A4
:1032C00010BDC0460400002079300008F0B5C646A5
:1032D000483088460700002600B57B68BC685D1E44
:1032E0000CD4A389012B06D90E22A35E013302D090
:1032F0002000C04706436834013DF2D23F68002FEA
:10330000EBD1300080BCB846F0BDC046F8B54746AA
:10331000CE4680B5070080468946002648377B6840
:10332000BC685D1E0DD4A389012B07D90E22A35EB4
:10333000013303D021004046C84706436834013DAD
:10334000F1D23F68002FEAD13000C0BCB946B04688
:10335000F8BDC046F0B50500830749D0541E002AC9
:1033600045D003000326CAB202E00135013C3ED33A
:1033700001332A703342F8D1032C30D9FF220A409E
:10338000150215432A0415430F2C34D92700103F8A
:103390003F093E01B4461E001A001036664415600F
:1033A00055609560D5601032B242F8D101373F01C7
:1033B000DB190F270C22274022403C00002A0ED0A8
:1033C0003E1FB608B400A4461A001C1D644420C267
:1033D000A242FCD103240136B6009B193C40002CCC
:1033E00005D0C9B21C19197001339C42FBD1F0BD44
:1033F00003001400C0E72700E2E7C04670B50500EF
:10340000002915D00C1F2368002B23DB280002F0B5
:10341000FDFA294A1368002B05D0A3420BD9216875
:10342000601883422DD063602800146002F0F0FA27
:1034300070BDA34210D81A005B68002BF9D1106848
:1034400011188C4219D030D363605460280002F008
:10345000DFFAEDE7E418D9E711685018A04217D059
:1034600023D8216860188342EED118685B688446CF
:103470006144216063605460E8E7236818181060B5
:10348000E4E718685B688446614421606360CBE7C9
:1034900020680918501811608342D7D118685B68FA
:1034A0008446614411605360D0E70C2328002B60F0
:1034B00002F0AEFABCE7C04684020020F8B5032350
:1034C000CD1C9D43083506000C2D27D20C25A942A2
:1034D00026D8300002F09AFA284F3A68002A27D0FE
:1034E000140004E063682200002B21D01C00236834
:1034F0005B1BF7D40B2B17D86368944235D053600D
:10350000300002F085FA200007220B30231D904383
:10351000C21A984207D01B1AA35004E0002DD6DA35
:103520000C2300203360F8BD2360E4182560E7E732
:103530007B68002B1BD02900300000F09BFE431C51
:103540000CD00323C41C9C43A04205D0211A300098
:1035500000F090FE431C01D02560D1E70C23300021
:10356000336002F055FA0020DDE73B60C8E7002138
:10357000300000F07FFE7860DDE7C0468402002066
:10358000F0B5CE4600B588B01E0017000023129C8F
:10359000002E04DA8021090673181E002D23109ACC
:1035A0001370662C23D0462C21D0202322009A436E
:1035B000452A48D007AB049306AB0393119B3A000E
:1035C00002930E9B019302230093330001F0E6F86F
:1035D0000500672C49D10F9BDB0748D4079B2800C7
:1035E000139A5B1B136008B080BCB946F0BD07ABF3
:1035F000049306AB0393119B3A0002930E9B019335
:1036000003230093330001F0C9F80E9B050099468F
:103610002B788144302B2DD0119B1C684C44002307
:1036200000223800310004F00DF823000028D6D124
:10363000079B9C42D3D930215A1C07921970079BD3
:10364000A342F9D3CBE70E9B3A0001330E9307ABAD
:10365000049306AB0393119B02930E9B01930223E9
:103660000093330001F09AF80500472CB3D00E9B6D
:10367000EC18D4E7002200233800310003F0E2FF09
:103680000028C9D101240E9BE41A119B1C60C5E7D8
:10369000F0B5D6464F464646C0B582460C0082B0CD
:1036A000027000293CDB0223534499462B235246E7
:1036B0005370092C26DD07236B4498461F00200019
:1036C0000A21FDF7BFFE3D003031013F2000397077
:1036D0000A21FDF7D1FD26000400632EEFDC303413
:1036E000AB1EE4B21C70434520D24A4600E01C7871
:1036F0000133147001324345F9D109206844401B5D
:10370000484405E04A46302330341370901C54700E
:103710005346C01A02B0E0BCBA46B146A846F0BD56
:103720000223534499464C422D23C0E74846EFE715
:10373000F0B5DE4657464E464546E0B591B01F000F
:103740001A9B0C0098461600050002F01DF803684D
:1037500018000A9300F02EFE00230B900E93237E98
:103760000722994623684146099343461B6807335D
:1037700093431A0008320A601A685B689046A26494
:10378000E3649B465B005B089A4601224046514633
:10379000BB4B524204F030FC002809D101224046C4
:1037A0005146B74B524203F05DFF002800D1A9E01B
:1037B00042465B464046594604F01EFC002800D0B5
:1037C000A8E263685A1C34D04A46672A78D0472A50
:1037D00076D08021099AC900114300222160069207
:1037E0000EAA05924A4604A804920DAA84460392A2
:1037F000232262440292009392465B46424628008E
:103800000191FFF7BDFE80464B460D99652B3ED8D2
:1038100020004A46013950300D91FFF739FF0E9ACA
:10382000834613182361012A00DCC6E101332361BA
:103830003EE00621073363608023099ADB001343CF
:103840000022236006920EAA05924A4604A804921A
:103850000DAA844603922322624402920193924667
:103860005B46424628000091FFF78AFE20234A4625
:1038700080469A43472AC7D10D99CB1C00DB98E0BC
:103880004B46023BDBB299464B46652BC0D9662BB3
:1038900000D198E00E9B8B4200DCA0E001220029C1
:1038A00001DC0132521A9B18236100239B46A1655B
:1038B00053461B78002B3DD043232D22E25439E0A0
:1038C000002B00D193E08021099AC9001143002206
:1038D000216006920EAA05924A4604A804920DAAF7
:1038E00084460392232262440292019100939246FD
:1038F0005B4642462800FFF743FE0D998046CB1CED
:10390000BEDB56E0002200234046594603F0A0FEED
:10391000002802D043232D22E2544B46472B4FD997
:10392000584B98460323099A236101339A43002395
:103930009B46226033002100280000970FAA00F068
:103940000BFA431C2CD023685A0559D423694246EC
:1039500031002800B847431C22D02368E0689B0749
:1039600049D50F9BC21A002A46DD19239946002328
:1039700098463B00A14437002E004D46A1464446E0
:10398000984606E04B46D8680F9B0134C21AA24203
:1039900032DD01232A0039003000C047431CF1D139
:1039A0000120404211B0F0BCBB46B246A946A04639
:1039B000F0BD6368994200DD62E76723994669E7D5
:1039C000314B9846AEE7002900DCFBE063682161DB
:1039D000002B00D12FE101335B18236165E72368D9
:1039E0002161DB0700D460E74B1C23615DE7012305
:1039F0000121636020E70F9B9842D3DA1800D1E7DA
:103A00004A46652A44D9A06CE16C0022002303F0E9
:103A100019FE002800D189E00123310028001B4A4B
:103A2000B847431CBCD00D9B0E9A934202DB23681F
:103A3000DA0793D50B9B310028000A9AB847431C3C
:103A4000AED01A239946002398460E9BA144012B21
:103A500000DC82E73B0037002E004D46A14644467D
:103A6000984605E00E9B0134013BA34200DCF9E0DF
:103A700001232A0039003000C047431CF2D18FE7F0
:103A8000FFFFEF7FA8830008A4830008B483000829
:103A90000E9A012A00DC85E001234246310028000D
:103AA000B847431C00D17BE70B9B310028000A9AE2
:103AB000B847431C00D173E7A06CE16C00220023DF
:103AC00003F0C0FD00281DD01A2399460023984614
:103AD0000E9BA144012B1FDD3B0037002E004D46FD
:103AE000A1464446984605E00E9B0134013BA342A3
:103AF00000DCB2E001232A0039003000C047431C3B
:103B0000F2D14DE742460E9B3100013B28000132C5
:103B1000B847431C00D143E722005B463100280030
:103B20005032B847431C00D017E739E70D9B002BF4
:103B30004EDDA36D9A460E9B9946534500DD7FE00E
:103B40004B46002B08DD424631002800B847431C95
:103B500000D125E7A36D9A464B46DB434A46DB1767
:103B60001A40534611009B1A1A2293460022A3447E
:103B7000002B00DC81E0A246B946140037002E007D
:103B80005D468B4606E053465A469B6D01349A1AB1
:103B9000A2426DDD01232A0039003000C847431CD2
:103BA000F1D1FDE6DB0700D576E70123424631007F
:103BB0002800B847431CAFD1F2E62268D20700D4F0
:103BC00076E633E66368002B3CD09A1C22616CE6F3
:103BD0000123310028005D4AB847431C00D1DFE6CD
:103BE0000D9B0E9A134333D00B9B310028000A9A89
:103BF000B847431C00D1D3E61A239A4600239946BE
:103C00000D9BA244002B00DB94E03B0037002E000C
:103C10005546A2464C46994605E00D9B01345B4251
:103C2000A34200DC82E001232A0039003000C847AB
:103C3000431CF2D1B4E62268D20700D435E6CAE6C6
:103C4000D1467DE720680122C007BFD59A1CBDE799
:103C50002368DA0700D481E6C6E735004C463E000B
:103C6000474659E74C46350023683E00474675E60F
:103C7000350054463E009A464F460D9A0E9B9A4296
:103C800002DB2168C90709D50B9B310028000A9A7D
:103C9000B847431C00D183E60E9B0D9A5146591A32
:103CA0009B1A99468B4200DD89464A46002A0BDD65
:103CB00042464B46310028005244B847431C00D1CD
:103CC0006EE60E9B0D9A9B1A4A46D2434946D2177E
:103CD00011401A229246894600225B1AA244002B08
:103CE00000DC3AE63B00370098462E005546A246D7
:103CF000140007E00D9A0E9B01349B1A4A469B1A4A
:103D0000A3421CDD01232A0039003000C047431CB8
:103D1000F0D145E65B46002B02DA43232D22E25424
:103D20004B46472B08D90A4B9846FBE535005446CD
:103D30003E004F460E9B0AE6064B9846F2E5544677
:103D4000350023683E00474608E6C046B4830008B5
:103D5000B0830008AC830008F8B557464E46DE46EF
:103D60004546E0B51F000A9B924699460A698B6852
:103D700006000C009A4200DA1A0053461A604323E8
:103D8000E35C002B02D0514601320A6021688A06AA
:103D90005ED55346524606201B68023313602168E5
:103DA0000A00084209D1E268D31A19229346002278
:103DB000A34490460A00002B42DC4323E35C591ED7
:103DC0008B4192060AD53020E11843310870452115
:103DD0005A1C615CA2184332023311702200390070
:103DE00030004332C847431C19D0062322681340D1
:103DF000042B33D0A368226993423DDD002188461D
:103E00009B1A984400251A3402E00135454533DAFF
:103E10000123220039003000C847431CF5D101209E
:103E20004042F0BCBB46B246A946A046F8BD0123BD
:103E30009C465346E2681B68E044D51A454520DDA0
:103E400001235A4639003000C847431CEFD1E6E74A
:103E500006220A4212D05A1E9341BFE75346196800
:103E6000E3682269591ACB43DB170B409846A368D5
:103E70009342C5DC0029C5DC0020D2E753461B680D
:103E800091E743232268E35C591E8B4192069AD442
:103E9000A4E7C046F0B54E46994643239C46574694
:103EA0004546DE468C446346E0B587B003930C007C
:103EB000097E90460700109A002914D00B00583B49
:103EC000DBB2202B4BD892489B00C3589F462368F7
:103ED000190602D45B0600D501E11368191D1160B3
:103EE0001B6862691A600023039D23614B46210011
:103EF00000933800434605AAFFF72EFF431C1FD04E
:103F000023692A0041463800C847431C18D023685B
:103F10009B071ED5E36805981A1A002A1BDD2600A8
:103F20000025193605E0E368059801351A1AAA42FA
:103F300011DD0123320041463800C847431CF2D14D
:103F40000120404207B0F0BCBB46B246A946A0469D
:103F5000F0BDE36805989842F4DA1800F2E74223CE
:103F60002500E154413B4235236143230022E254C2
:103F7000BCE72368190602D4590600D5BBE01168D6
:103F8000081D10600A681600002A75DB614B9B460D
:103F90000A239A464DE02368180602D45B0600D532
:103FA000A4E01368181D10601E685A4B9B466F29C9
:103FB00000D1A7E00A239A4638E013682500191DAE
:103FC00011601A684223E254413B42352361CCE739
:103FD0001368191D11601D6800212800626801F036
:103FE00089FC002800D190E0401B60602061BCE7A4
:103FF000202321680B4323604521782060544649E3
:104000008B46190631D459062FD51168081D0E8824
:104010001060DA0702D520221343236010239A464A
:10402000002E03D1226810339A43226043230022DA
:10403000E2546368A360002B48DB042221689143AB
:104040002160002E27D1002B42D1039D5346082B1F
:1040500031D0039B5B1B236148E745235821E15482
:1040600023682C498B461906CDD51168081D1060B0
:104070000E68CEE72368BFE743222D21A154626872
:104080007642A260002A02DB042293432360214B84
:104090009B460A239A46039D30005146FEF7C0FE18
:1040A0005B465B5C013D2B70330006005345F3D249
:1040B0005346082BCDD12368DB07CAD56368226934
:1040C0009342C6DC3023013D2B70C2E7002EE2D1C3
:1040D0005B4625001A7842234235E254B6E713685E
:1040E0006169181D10601B681980FCE61368181DB3
:1040F0001E88106059E71168081D106000228E5E4E
:10410000320041E708239A4690E7606820612CE777
:10411000E0830008B8830008CC8300080EB410B513
:10412000040083B0002802D08369002B0BD006ABBB
:104130002000059AA168019302F068FC03B010BC4E
:1041400008BC03B01847FFF799F8F0E70FB410B5B3
:104150000B4B82B01C68002C02D0A369002B0BD043
:1041600005AB2000049AA168019302F04FFC02B055
:1041700010BC08BC04B018472000FFF77FF8EFE739
:104180000400002070B506000D00002837D08369B8
:10419000002B32D084682F4B9C423AD02E4B9C424D
:1041A00044D02E4B9C4252D0A3891B0735D523699E
:1041B000002B32D02978002911D0A3680135013BAA
:1041C000A360002B04DAA269934231DB0A292FD0C5
:1041D00023685A1C2260197029780029EDD1A36840
:1041E000013BA360002B2CDA22000A21300000F0F2
:1041F0000FF9431C17D00A2070BDFFF73FF8B369D1
:10420000B468002BC7D13000FFF738F8114B9C423F
:10421000C4D17468A3891B07C9D42100300000F001
:1042200081F90028C6D001204042E5E7B468BBE729
:104230002200300000F0ECF8431CBBD101204042CA
:10424000DAE723685A1C22600A221A70D3E7F4685E
:10425000AAE7C04680830008608300084083000806
:1042600010B5034B01001868FFF78CFF10BDC04666
:1042700004000020002370B5064D040008002B60E8
:10428000FCF762FF431C00D070BD2B68002BFBD0F5
:104290002360F9E7800200200CB400B59DB00291C4
:1042A000069109491EAB07910491084904CB059179
:1042B00002A9019302F054FA0023029A13701DB070
:1042C00008BC02B01847C046FFFFFF7F0802FFFF8F
:1042D0000EB400B50B499CB0079104910A491DAB7F
:1042E00005910A4904CB02900690086802A901933F
:1042F00002F036FA0023029A13701CB008BC03B017
:104300001847C046FFFFFF7F0802FFFF04000020A0
:1043100070B50C000E25495F02F0E2FC002803DBBB
:10432000636D1B18636570BDA389024A1340A381A6
:10433000F9E7C046FFEFFFFF00207047F8B50C001B
:104340001F000C23C95E05001600CB050AD40A4BDA
:10435000320019402800A1810E23E15E3B0000F0ED
:10436000CDF8F8BD0E23E15E0022022301F014FA1D
:104370000C23E15EEBE7C046FFEFFFFF70B50C00DA
:104380000E25495F01F008FA431C06D08023A2895C
:104390005B011343A381606570BDA389014A13408B
:1043A000A381F9E7FFEFFFFF10B50E23C95E00F010
:1043B0003FF910BD10B583070AD00300032102E0C6
:1043C00001330B4205D01A78002AF9D1181A10BD12
:1043D000030019680C4A0D4C8A188A4322420FD1F7
:1043E0005968094A04338A188A43224208D1596815
:1043F000054A04338A188A432242F1D000E001338F
:104400001A78002AFBD1E1E7FFFEFEFE8080808063
:10441000F8B505000E001400002802D08369002BB7
:1044200029D02D4B9C422BD02C4B9C4246D02C4B60
:104430009C424ED0A369A360A3891B0726D523699C
:10444000002B23D0FF212268F7B20E406169D31AF6
:1044500099422ADD0133A1680139A160511C216014
:10446000177062699A422BD0A389DB0701D50A2E07
:1044700026D03000F8BDFEF701FF174B9C42D3D188
:104480006C68A369A360A3891B07D8D42100280006
:1044900000F048F8002819D1FF2123692268F7B2FB
:1044A0000E406169D31A9942D4DC21002800FEF73E
:1044B00067FD00280AD101232268CCE7AC68B9E780
:1044C00021002800FEF75CFD0028D2D001267642AC
:1044D000CFE7EC68AEE7C046808300086083000841
:1044E00040830008030010B50A000349086819005A
:1044F000FFF78EFF10BDC0460400002070B5040019
:10450000080011001A000023054D2B60FCF78AFEFD
:10451000431C00D070BD2B68002BFBD02360F9E753
:10452000800200203E4B70B51D6806000C00002D77
:1045300002D0AB69002B1BD03A4B9C421ED03A4BA9
:104540009C424CD0394B9C4260D00C23E25EA38944
:10455000190719D52169002921D0D80730D50020A5
:10456000A06060694042A0610020002930D070BD89
:104570002800FEF783FE2B4B9C42E0D16C680C2395
:10458000E25EA3891907E5D4D90641D55B0728D493
:10459000216908231A43A28193B20029DDD1A0200A
:1045A00080258000AD001840A842D6D02100300000
:1045B00001F006F90C23E25EA3892169D807CED465
:1045C00000209D0700D46069A06000200029CED1A2
:1045D0001B06CCD540231A43A2810138C7E7AC683B
:1045E000B3E7616B00290AD023004433994204D019
:1045F0003000FEF703FF0C23E25E002363632423F5
:104600009A430023216963602160C2E7EC689CE75C
:1046100009233360402301201A43A2814042A6E7C8
:1046200004000020808300086083000840830008A5
:10463000002370B5064D040008002B60FCF7D3FC86
:10464000431C00D070BD2B68002BFBD02360F9E722
:1046500080020020F0B54546DE4657464E46E0B59E
:1046600003690D6985B080460A000191AB4200DA0A
:1046700091E0142141448C46013D1432AB00D61820
:10468000634403931B6800919A46336850465F1C4D
:1046900039000292FEF73EFB0400BA453CD30023EA
:1046A000002118008C46A946009F029A08CA1904E6
:1046B000090C61431B0C634309180D0C5D193B6821
:1046C00009041B041B0C6344090C591A3B68280C91
:1046D0002D042D0C1B0C5B1B0D145B1909041D1400
:1046E000090C1B040B43AC4608C79642DED2039B61
:1046F0004D461A680392002A0ED1009A043B934259
:1047000008D9009A03E0043B013D934202D919689D
:104710000029F8D043461D614046019901F0B2FCE2
:10472000002830DB002301341F00A44600990298C2
:104730000B6810C81A04120CD7192204120CBA1AEA
:104740001B0C270CDB1B1714DB1912041F14120C93
:104750001B04134308C18642EAD2009A6446944679
:10476000AB006344196800290DD1043B934208D97A
:10477000009A03E0043B013D934202D919680029E5
:10478000F8D043461D61200005B0F0BCBB46B246E0
:10479000A946A046F0BD0020F6E7C046F0B5574652
:1047A0004E464546DE461400E0B51D00466A9BB005
:1047B000824604940595279F002E00D1DFE23168E0
:1047C00000290AD00123726893404A608B6001F08F
:1047D00063F9534600225B6A1A602E1E00DA6DE10F
:1047E000002332003B60CE4B1A409A4200D170E168
:1047F000049A059B10001900002200230A900B91D7
:1048000002F020FF002812D00123269A1360289B73
:10481000002B00D1C1E2C3481860431E03930398E4
:104820001BB0F0BCBB46B246A946A046F0BD18ABD3
:10483000019319AB009350460A9A0B9B01F08AFD35
:10484000330D834600D056E1199B189F9846B64B0E
:10485000B8444344202B00DC9FE34022D31A9E40FF
:10486000B24B30004344DC40204303F023FC464677
:104870000123AF4C013E09190F930022AD4B03F009
:1048800039F8AD4AAD4BFDF77DFEAD4AAD4BFCF7B7
:10489000FFFF040030000D00FEF738F9AA4AAB4BC9
:1048A000FDF770FE02000B0020002900FCF7F0FF6E
:1048B00004000D0003F0C2FB002280460690002396
:1048C0002000290002F0C4FE00280BD04046FEF76D
:1048D0001DF92B00220002F0B5FE43425841434629
:1048E0001B1A0693069C162C00D925E20A980B99F0
:1048F000974BE2009B181A685B6802F0A9FE00283B
:1049000000D1F4E100230E930023BE1B0C9333006F
:10491000013C0694013B089300D517E2069B002B4F
:1049200000DBEDE1069B0C9A0993D21A0C925A42D5
:1049300000230693249B91460124092B00D9ECE126
:10494000052B02DD0024043B2493249B042B01D17E
:1049500000F063FC052B01D100F0FAFB022B00D024
:10496000FAE100230D93259B002B01DC00F0FDFBF9
:104970001D001493079353465E6A00237360172D3E
:1049800001DC00F0E2FE012204335B001800143069
:1049900011000132A842F8D97160504601F03AF88E
:1049A0000390002801D100F0C5FE5346039A5B6ACC
:1049B0001A60079B0E2B00D9E2E0002C00D1DFE04B
:1049C0000998002801DC00F012FD0F210200604B65
:1049D0000A40D2009B1806111C685D68C30501D50A
:1049E00000F00DFC0A9A0B9B10921193022398463B
:1049F000002E11D0574F0123334209D09C463A680C
:104A00007B6820002900E044FDF7BCFD04000D0098
:104A100076100837002EEED11098119922002B0045
:104A2000FDF794FA06000F000E9B002B09D0002220
:104A300030003900484B02F00BFE002801D000F096
:104A4000F0FB4046FEF762F832003B00FDF79AFDAE
:104A50000022424BFCF71CFF414A0B009446634482
:104A6000129013911393099B1593079B1093002B9E
:104A700001D000F0FDFB002230003900394B02F07C
:104A800039FF129E139F32003B0004000D0002F01C
:104A9000F3FD002801D000F0E7FD802000068446E9
:104AA000390061440B0032002000290002F0D0FDE3
:104AB000002865D00023002799468AE001236E0074
:104AC000760832003B60164B05961A409A4200D099
:104AD0008EE6254B269A3603360B1360344318D1E5
:104AE000289B002B01D100F02CFE204B03930833B0
:104AF000289A136093E60A9C0B9D20002A03164C0B
:104B0000120B14431A4A21009E180023189F0F937A
:104B1000B3E6289B002B00D016E3164B03937EE6EA
:104B20000000F07FB583000832040000120400008A
:104B3000000010FE0000F83F61436F63A787D23F7B
:104B4000B3C8608B288AC63FFB799F501344D33F7C
:104B500068850008408500080000F03F00001C4008
:104B60000000C0FC000014400F270000648400080F
:104B700001FCFFFF70840008179B9946169B9B461B
:104B8000199B002B00DA8BE0099A0E2A00DD87E0E2
:104B9000C94BD2009B181E685F68259B002B1CDA4E
:104BA000079B002B19DC079B002B00D082E700221B
:104BB0003900C24B3000FDF7E5FC0B0002000A98FB
:104BC0000B9902F04FFD002300279946002800D1E1
:104BD000E6E2259B039DDC43EAE232000A9C0B9D42
:104BE0003B0020002900FDF7B1F903F027FA8146C8
:104BF000FDF78CFF32003B00FDF7C4FC02000B0008
:104C00002000290002F076FE039A531C98464B467A
:104C100030331370079B012B01D100F056FC013A91
:104C2000012304925246C2460692984624E001238C
:104C30009C4632003B0020002900E044FDF786F945
:104C400003F0FCF98146FDF761FF32003B00FDF700
:104C500099FC02000B002000290002F04BFE01230A
:104C60009C464B464446049A30331355079BE24416
:104C7000984501D100F026FC0022914BFDF782FC03
:104C80000022002304000D0002F0DCFC0028CED03E
:104C9000069BD0469A46099B44460133099360E13E
:104CA0000D9A002A7CD0249A012A00DC74E3079B29
:104CB0005D1E4B46A94500DB9FE2069AEB1A94461F
:104CC0009C446346A946002506930C99079BCC1A81
:104CD000002B06DB9C4608980C0060446144089059
:104CE0000C910121504600F0EFFF07005BE0BE1B76
:104CF0003300013B089300D576E300230E930C9319
:104D0000069A089B94466344089300239946249B83
:104D100001240992092B00D812E6012200230D92EA
:104D2000023A249307922593534600225B6A00219E
:104D30005A60079B149330E601230E930023BE1B99
:104D40000C933300013B089300D4E7E501239B1B40
:104D50000C9300230893E1E500230D93249B032B80
:104D600001D000F0CFFC099A259B9446634414932C
:104D700001331D1E079300DDFDE50125FBE5102035
:104D800000F0A4FD53465862002801D100F0B4FCA5
:104D9000466086600660C6601FE54A4B03933EE5A9
:104DA0004D4600270C9C002C0DDD089A002A0ADDD8
:104DB0002300944200DD07E20C9AE41AD21A0C9206
:104DC000089AD31A08934B46002B1BD00D9B002B3F
:104DD00000D1B2E1002D10DD39002A00504601F06B
:104DE0005BF85A4601000700504600F083FF0600BA
:104DF0005946504600F050FEB3464B465A1BA94553
:104E000000D09BE10121504600F05EFF069A8146EA
:104E1000002A00DDC6E0249B0025012B00DC9AE17E
:104E2000069B0120002B00D0C6E01F2308991A0022
:104E30008C4660440240034200D1A1E001339B1A3A
:104E4000042B01DC00F051FC1C239B1A0C9AE41883
:104E500094469C4462468C469C4463460C9208935C
:104E60000C9B002B05DD59461A00504601F094F8C2
:104E70008346089B002B05DD49461A00504601F089
:104E80008BF881460E9B002B00D03DE1079B002B49
:104E900000DC23E10D9B002B00D0A5E0099B013332
:104EA0000993039B01245D1E079BA8465E464D4661
:104EB000B94657469A460FE068850008000014403E
:104EC00000002440B4830008310000230A22380087
:104ED00000F008FE0600013429003000FFF7BAFB9D
:104EE0004346303018555445EEDB079BBA46B3466F
:104EF0004F460124A9460690002B00DD1C00039BB1
:104F000000269C46644459460122504601F044F86C
:104F10004946834601F0B6F8002800DC50E2651EE1
:104F20002A782B00039906E0013B8D4200D154E220
:104F30001A782C00013D392AF6D001322A704946F0
:104F4000504600F0A9FD002F0BD0002E05D0BE4228
:104F500003D03100504600F09FFD3900504600F06C
:104F60009BFD5946504600F097FD0023099A237097
:104F7000269B1A60289B002B00D150E41C604EE455
:104F80001C230C9AE41894469C4462460C92089A9E
:104F900094469C446346089362E720222000D31A7B
:104FA000984062E40100504600F076FF249B814661
:104FB000012B00DC0AE100254B461B6903339B00F3
:104FC0004B44586800F036FE2023181A2DE70023C2
:104FD00039000A22504600F085FD149B070009960F
:104FE000002B00DC76E30793002C05DD390022005E
:104FF000504600F0D1FF0700B846002D00D082E2F5
:10500000079A039B94461D00013B9C44634608930A
:1050100001232E005D46CB46049A1A40079259465A
:105020002800FFF717FB0300390030330C902800ED
:10503000069301F027F8594604004246504601F015
:105040003BF8C36881460100002B3BD1280001F0EA
:1050500019F849460490504600F01EFD249A049B1E
:105060001343079A134300D102E3002C00DAF2E164
:10507000249B1C43079B1C4300D1ECE1049B002BA9
:1050800000DDC9E2069A741C3270089A964200D17B
:10509000CCE2290000230A22504600F023FD002321
:1050A00005000A2239005046474511D000F01AFD8C
:1050B0004146070000230A22504600F013FD260057
:1050C0008046ACE7504600F0E7FC01230493CCE7B0
:1050D00000F008FD260007008046A0E7249B022B75
:1050E0004DDC0D9B002B00D07EE749465846FFF76C
:1050F000B1FA0300039A303306931370099B00261C
:105100000133541C0993FEE64946584600F0BAFFA5
:10511000002800DBBAE6099B59460A2250465E1E6B
:10512000002300F0DFFC0D9B8346002B00D04EE7F0
:10513000149B002B1DDD0793B3E64A4659465046A3
:1051400000F0AAFE83465DE6D44B03930333CFE41D
:1051500001230D9307E60499059A002900D05FE624
:105160001300120300D05BE63AE001230793259376
:10517000DAE5249B0996022BB7DD149B0793079B66
:10518000002B00D025E549460522504600F0AAFC38
:1051900081460100584600F075FF002800DC18E544
:1051A000039A31231500099C1370531C0134039397
:1051B0004946504600F070FC631C0993039C03951C
:1051C000002F00D0C9E6CCE61300F5E5049B002BC8
:1051D00000D0F0E60499059A1300120300D0EAE625
:1051E000AF4A0025134200D11AE60C9B013501336A
:1051F0000C93089B0133089312E65D1B65E5A94BF0
:105200000E401A6A5B6A0A980B99FCF79FFE03230B
:10521000109011919846FFF7EBFB01230D93FFF7D8
:10522000A2FB079B002B00D12CE2149C002C00DC7D
:10523000A6E4099B0022013B3000390015939A4BEC
:10524000FDF7A0F9060040460F000130FDF75EFCB7
:1052500032003B00FDF796F90022944BFCF718FB57
:10526000934A0B0094466344129013911094139345
:105270000D9B002B00D160E1109B00205A1E8D4B2E
:10528000D2009B181A685B688B49FCF75FFE129A84
:10529000139B02F02FFB129013913000390002F0A3
:1052A000CDFE1690FDF732FC02000B0030003900F5
:1052B00002F020FB039B169E5A1C303604000D00A2
:1052C00090461E7002000B001298139902F0D4F958
:1052D000002800D0ECE14B46002717935B46BB4605
:1052E000129E139F169333E001239C46109BE344C8
:1052F0009B4500DB40E40022300039006A4BFDF79B
:1053000041F90022684B06000F0020002900FDF73C
:1053100039F90D00040002F091FE8146FDF7F6FB1D
:1053200002000B002000290002F0E4FA012304002F
:1053300048465A469C46039B3030985432003B0006
:1053400020000D00E04402F083F9002800D0ADE118
:1053500022002B000020594902F0CCFA32003B0019
:1053600002F076F90028BFD0169B42469B46159B5B
:105370000399099302E0914200D165E11400013ADA
:105380001378392BF7D090460133DBB242461370C5
:10539000099B01330993E4E50F9A002A00D1C8E084
:1053A000474A94466344089A4D4694469C44624654
:1053B00008920C9A94469C44634614000C9390E423
:1053C000002803D1069BDB0700D5A8E523001C00BD
:1053D000013B1A78302AFAD0B1E53123039A1370D1
:1053E000099B01330993AAE500230E93AEE4099BC0
:1053F000002B00D122E10A980B995C420F232D4A21
:105400002340DB00D3181A685B68FDF7BBF8241152
:1054100006000F00002C00D163E1022210961197C4
:10542000002317001F4D0122224205D02A686B6815
:10543000FDF7A8F80123013764100835002CF2D1DC
:10544000B846109E119F002B01D1FFF7EDFA060020
:105450000F00FFF7E9FA049BD946AB463500002B55
:1054600012DD59460122504600F096FD494683461A
:1054700000F008FE002800DC24E1069B392B00D157
:10548000E8E00C9B31330693069B6C1C2B70099B48
:105490003E0001334746099351E5C0467084000839
:1054A0000000F07F408500080000244000001C4000
:1054B0000000C0FC688500080000E03F0000F03FED
:1054C00033040000069BD0469A4602000B00FCF70E
:1054D000DFF932003B0004000D0002F0CDF8002897
:1054E0000ED132003B002000290002F0ABF800286A
:1054F00001D1FFF7D0FB4B46DB0701D4FFF7CBFB15
:10550000424603993AE75046796800F083FA041E50
:1055100000D11DE139003B690C319A1C92000C301E
:1055200000F022FA01222100504600F035FD8046AD
:1055300066E53623189A9B1A35E7109B8749013B8D
:10554000DB00C91808684968129A139BFDF71AF81E
:10555000129013913000390002F070FD1690FDF7A3
:10556000D5FA02000B003000390002F0C3F9039AAB
:105570000D00511C88461100169E109B3036167087
:105580008C461A006244040046461092012B1DD03E
:10559000109B98460022724B20002900FCF7F2FF76
:1055A0000D00040002F04AFD0700FDF7AFFA02000B
:1055B0000B002000290002F09DF9303737700136CA
:1055C00004000D00B045E5D1109B9846129E139F34
:1055D0000022644B30003900FCF75AF922002B00FE
:1055E00002F036F8002868D132003B0000205D4907
:1055F00002F080F922002B0002F03EF8002801D1D1
:10560000FFF7BEFA43461C00013B1A78302AFAD055
:10561000159B01330993A4E4069BD946AB4635009C
:10562000392B17D0069B741C01332FE7099BD946F1
:1056300001333E00AB464746099364E402230A9EC9
:105640000B9F9846FFF7F0F9099B904601330993A9
:1056500031239BE639232B70099B3E0001334746DB
:1056600039226C1C09935CE400230027994697E5D6
:10567000069BD946AB463500392BEBD0002C00DD1C
:10568000FFE601E74046FDF741FA32003B00FCF738
:1056900079FF0022344BFCF7FBF8344A0B009446A8
:1056A0006344129013911393FFF7E5F9169B9B4601
:1056B000159B44460133099353E4159B42460399D5
:1056C00009935BE6002800D0DEE6069BDB0700D5E9
:1056D000D3E6D9E6149B0793249B022B00DD4EE50D
:1056E00082E402239846FFF79FF9042B01D1FFF7CC
:1056F000B7FB3C239B1A44E40022EA211C4B1D48C3
:1057000001F002FB53460D9A5B6A002150465A6035
:1057100000F080F9039000280CD05346039A5B6A8E
:105720001A6000232593013B1493079302330D93D2
:10573000FFF726FAD52100220F4B0E48490001F051
:10574000E3FA0E4B0393FFF76AF80021FFF725F900
:105750000022094B0A49074801F0D6FA688500087B
:10576000000024400000E03F00001C400000C0FC9E
:10577000748400088C840008C084000864840008D5
:10578000EA020000F03070470048704758010020DE
:10579000004870475801002070B50400080011004F
:1057A0001A000023054D2B60FBF778FC431C00D04A
:1057B00070BD2B68002BFBD02360F9E7800200202E
:1057C000F0B58B8906000C0097B09A0707D5230027
:1057D0004733236023610123636117B0F0BD0E22BC
:1057E000895E00292FDB6A4601F0D2FA002829DB06
:1057F000F023019D1B021D401D4B9C4665446B42DE
:105800005D418027FF0039003000FDF757FE00287A
:1058100023D08021174AB262A28920600A43A28164
:1058200020616761002DD8D030000E23E15E01F0C9
:105830003DFC0028D1D00322A389934301221343C6
:10584000A381CAE7A389002540271B06D9D53900C3
:105850003000FDF733FE0028DBD10C22A35E9A0551
:10586000BBD40322934302221343A381AFE7C04674
:1058700000E0FFFF6930000870B50C001D000E232A
:10588000C95E160096B0002914DB6A4601F080FA62
:1058900000280FDBF022019B120213400A4A9446B3
:1058A00063445A4253412B608023DB003360002065
:1058B00016B070BD0C22A35E00222A601B06F3D531
:1058C00040233360F3E7C04600E0FFFF10B5034B11
:1058D00001001868FDF7F2FD10BDC046040000206D
:1058E00010B5034B01001868FDF788FD10BDC046D8
:1058F0000400002070B5CCB283070DD0531E002ADF
:105900000FD0032504E00130284206D0013B08D324
:105910000278A242F7D170BD1300032B0CD8002BE4
:1059200001D10020F7E7C31802E001308342F8D02C
:105930000278A242F9D1EEE7FF2529400D02294362
:105940000D04074E0D43026806496A405118914301
:105950003142E8D1043B0430032BF4D8DFE7C046E2
:1059600080808080FFFEFEFEF0B5C64600B50F2A9F
:1059700041D903270D003E0005430C0003002E40D3
:105980002F423DD11500103D2D09A8462D01AC46F2
:10599000844427681D001F6067685F60A7689F6078
:1059A000E7681034DF6010336545F2D145460F23B8
:1059B0000C2401352D01491913404519144222D0F8
:1059C0008C59AC5104369C1B032CF9D8043B9B0822
:1059D00001339B00ED18C91803231A40561E002AF4
:1059E00006D00023CC5C1A00EC5401339642F9D166
:1059F00080BCB846F0BD0500561E002AF1D1F7E77D
:105A00000500561EEDE71A00F6E7C0467047C0468F
:105A10007047C04670B5456A04000E00002D0DD0D9
:105A2000EB68002B15D0B2009B18186800281CD01A
:105A300002681A6000230361C36070BD1020FFF785
:105A400045FF051E60621DD0002343608360036034
:105A5000C36021220421200000F07EFD636AE8601B
:105A6000DB68002BDFD10020E7E70125B5406A1D88
:105A700001212000920000F06FFD0028F3D0466065
:105A80008560D7E700226621014B024801F03CF90E
:105A900074840008D484000870B5466A05000C00C0
:105AA000002E0AD0002C07D06B6A6268DB68920077
:105AB0009B181A6822601C6070BD1020FFF706FF5B
:105AC0006862002804D0466086600660C660E9E728
:105AD00000228A21014B024801F016F97484000863
