:020000040800F2
:1000000000200020B90000087512000889120008BD
:1000100000000000000000000000000000000000E0
:100020000000000000000000000000007512000841
:1000300000000000000000007512000875120008A2
:100040007512000875120008751200087512000874
:100050007512000875120008751200087512000864
:1000600000000000751200087512000875120008E3
:1000700075120008751200080000000051170008F2
:1000800000000000751200080000000000000000E1
:1000900075120008000000007D1C000875120008A1
:1000A0007512000875120008751200083106000864
:1000B000F50B00087512000801F058F801F01AF865
:1000C000E1235B02180000F00BFA62B6C04600F0B4
:1000D00011F8024B180000F07DFBFEE71C40000801
:1000E00080B500AF024B00221A60C046BD4680BDFD
:1000F0008000002080B59CB000AF0023BB66FA23CF
:100100005B007B66614B3B6601F0B2FB96239B0173
:10011000180000F0C9FCFA239B00180000F09EFFB5
:100120005B4B180002F050FD5A4B180000F0A7FF7F
:10013000594B180000F0A3FF584B180000F09FFF28
:10014000574B180000F09BFF564B180000F097FF2C
:10015000554B180000F093FF544B180000F08FFF30
:10016000534B180000F08BFF524B180000F087FF34
:10017000514B180002F028FD0023BB6600F060FD23
:1001800000F0A2FD031EFBD000F090FD0300FB6514
:10019000FB6D6333C62B08D9484B1B68002B04D179
:1001A000FB6D180001F0C8F926E0444B1B68002BDA
:1001B00022D1FB6D632B1FD1C04600F085FD031ECD
:1001C000FBD000F073FD0300FB65FB6D0A211800F6
:1001D00001F00CFE0300BB65FB6D0A21180001F065
:1001E000EBFE0B007B657A6DBB6D1100180001F012
:1001F000F3FC324B01221A6001F0BEFC0300FB66E7
:10020000FA6E3B6ED31A962B1BDDFA6E3B6ED21A3A
:10021000FA23DB009A4214DAFA6E3B6ED31A00D549
:100220000733DB103B653B6D180000F0C2FD234B2C
:100230001B68002B28D001F0F9FC204B00221A602B
:1002400022E0FA6E3B6ED31A952B06DC00233B6549
:100250003B6D180000F0ADFD92E7FA6E3B6ED21ACE
:10026000FA23DB009A428BDDFA233B653B6D1800D5
:1002700000F09FFD114B1B68002B00D180E701F0BF
:10028000D5FC0E4B00221A607AE7C046AC0701008D
:10029000343F0008443F0008543F0008643F000812
:1002A000703F00087C3F0008883F0008943F00082A
:1002B000A03F0008AC3F0008B83F000880000020C5
:1002C00080B500AF244B5A6B234B802189000A4331
:1002D0005A63224B1A69214BC02109060A431A614D
:1002E0001E4B1A681D4B01210A431A601B4B9A686A
:1002F0001A4B01210A439A60184BDA6880231B02CB
:10030000134005D1C046154B1B6801221340FAD09B
:10031000124B9B680122134005D0104B9A680F4B7B
:1003200002210A439A600D4B9A680C4B8021090602
:100330000A439A60C046094B1A6880231B01134088
:10034000F9D0064B1A68054B802109010A431A604F
:10035000C046BD4680BDC04600100240002401409A
:1003600080B582B000AF7860164BDA68154B8021FB
:1003700009020A43DA60134B7A689A62114B5A6990
:10038000104B07210A435A617A6880239B029A42E4
:1003900006D10D4B1A680C4B8021C9030A431A6021
:1003A000084B9A68074B04210A439A60C046054BE4
:1003B0001B6804221340FAD0024B1B6C1800BD4688
:1003C00002B080BD002401400827014090B585B0EF
:1003D00000AF78603960184B1B68002B02D10123F5
:1003E0005B4224E00023FB600AE0FB685A1CFA60D1
:1003F0003A68D418114B180000F0B7F903002370C5
:100400007B68013B1A00FB68934205D20B4B180036
:1004100000F0D6F9031EE8D1FB68002B06D03A683D
:10042000FB68D31800221A70FB6800E00023180054
:10043000BD4605B090BDC0462001002088000020C8
:1004400080B584B000AF78603960224B1B68002B08
:1004500002D101235B4238E07B683F2B0BDCC046B6
:100460001D4B180000F0ACF903004022D21A7B6843
:100470009A42F5D302E002235B4226E00023FB60B0
:100480000BE03A68FB68D3181A78134B1100180078
:1004900000F03AF9FB680133FB607B68FA689A4226
:1004A000EFD30E4B1B68082213400DD10B4B1A687B
:1004B0000A4B08210A431A60074B180000F055F94F
:1004C00003001A00054B9A6200231800BD4604B0D1
:1004D00080BDC04620010020D4000020003801402B
:1004E00080B584B000AF786072B6C046454B00223C
:1004F0009A64444B9A6C434B5A64424B5A6C414B3E
:100500001A64414B00229A643F4B9A6C3E4B5A64EA
:100510003D4B5A6C3C4B1A643C4B01221A603C4BDD
:1005200000221A603B4BDA6A3A4B01210A43DA6235
:10053000394BFB607968F86801F058FC0300FB60F8
:10054000A023DB059A68A023DB058021C9020A43AA
:100550009A60A023DB055A68A023DB052F490A40D7
:100560005A60A023DB051B682D4A1A40A023DB0537
:10057000802109030A431A60A023DB055A6AA023DD
:10058000DB0540210A435A62A023DB051B68254A8C
:100590001A40A023DB05802189030A431A60A023A7
:1005A000DB055A6AA023DB058021C9000A435A6291
:1005B000184B5A6B174B8021C9010A435A631A4BD7
:1005C0001A68194B6C210A431A60174B00225A60B3
:1005D000154B00229A60144BFA68DA60124B1A68C5
:1005E000114B01210A431A60104B1A680F4B8021EE
:1005F00009050A431A6062B6C046C046BD4604B04B
:1006000080BDC04688000020D400002020010020CA
:1006100024010020001002400048E801FFFDFFFF18
:10062000FFFFF3FFFFFFCFFF0038014000E100E0D4
:1006300080B500AF084BDB698022134001D000F089
:100640002FF8054BDB692022134001D000F006F89B
:10065000C046BD4680BDC0460038014080B500AFF1
:10066000074B5B6ADAB2074B1100180000F04CF838
:10067000031E02D0044B01221A60C046BD4680BD55
:1006800000380140880000202401002080B500AF20
:10069000024B5B6A1800BD4680BDC0460038014071
:1006A00080B500AF164B180000F08AF8031E08D082
:1006B000134B180000F059F803001A00114B9A620E
:1006C0001BE0104B1A680F4B08218A431A600D4B30
:1006D000DB694022134005D00A4B1A6A094B4021BE
:1006E0000A431A62074BDB698022134005D0054B91
:1006F0009A69044B10210A439A61C046BD4680BDE9
:10070000D40000200038014080B582B000AF78608E
:100710000A00FB1C1A707B681A6C7B685B6C9A423F
:1007200005D17B689B6C002B01D0012319E072B6C8
:10073000C0467B681B6C591C7A6811647A68F91C86
:100740000978D1547B689B6C5A1C7B689A647B68DF
:100750001B6C402B02D17B6800221A6462B6C04633
:1007600000231800BD4602B080BD80B584B000AF44
:1007700078607B689B6C002B01D100231CE072B673
:10078000C0467B685B6C591C7A6851640F22BA18AA
:100790007968CB5C13707B685B6C402B02D17B6803
:1007A00000225A647B689B6C5A1E7B689A6462B60E
:1007B000C0460F23FB181B781800BD4604B080BD4F
:1007C00080B582B000AF78607B689B6C1800BD4636
:1007D00002B080BD80B582B000AF78600B4B1B6863
:1007E000002B09D101235B420BE07B685A1C7A6025
:1007F00019000120FFF724FE7B681B78002BF4D141
:1008000000231800BD4602B080BDC0462001002074
:1008100080B582B000AF0200FB1D1A70FB1D1900ED
:100820000120FFF70DFEC046BD4602B080BD80B579
:1008300000AF044B1800FFF798FF03001800BD46F7
:1008400080BDC04688000020B0B584B000AF78609D
:1008500039601E4B1B68002B02D101235B4231E043
:100860000023FB600B23FB1800221A7017E0C04620
:10087000174B1800FFF7A4FF031EF9D00B257C19B6
:10088000134B1800FFF771FF03002370FB685A1C1D
:10089000FA601A007B689B187A1912781A703B6804
:1008A000013BFA689A4204DA0B23FB181B780D2BE4
:1008B000DDD1FB68002B04DDFB687A68D3180022C9
:1008C0001A70FB681800BD4604B0B0BD20010020BE
:1008D0008800002090B583B000AFFC1DFFF7A7FF94
:1008E00003002370FB1D1B781800FFF791FFFB1D11
:1008F0001B781800BD4603B090BDB0B584B000AF02
:1009000078603960214B1B68002B02D101235B42C8
:1009100037E00023FB600B23FB1800221A701DE058
:10092000C0461B4B1800FFF74BFF031EF9D00B25E9
:100930007C19174B1800FFF718FF030023702C00D9
:100940003B191B781800FFF763FFFB685A1CFA601D
:100950001A007B689B183A1912781A703B68013BA1
:10096000FA689A4204DA0B23FB181B780D2BD7D1B7
:10097000FB68002B04DDFB687A68D31800221A702C
:10098000FB681800BD4604B0B0BDC0462001002081
:100990008800002090B585B000AF78603960184BB2
:1009A0001B68002B02D101235B4224E00023FB6083
:1009B0000AE0FB685A1CFA603A68D418114B180018
:1009C00000F010FA030023707B68013B1A00FB68FB
:1009D000934205D20B4B180000F02FFA031EE8D10A
:1009E000FB68002B06D03A68FB68D31800221A7007
:1009F000FB6800E000231800BD4605B090BDC0466E
:100A0000C40100202C01002080B584B000AF7860C4
:100A10003960224B1B68002B02D101235B4238E076
:100A20007B683F2B0BDCC0461D4B180000F005FA1D
:100A300003004022D21A7B689A42F5D302E00223D7
:100A40005B4226E00023FB600BE03A68FB68D318AA
:100A50001A78134B1100180000F07AF9FB68013383
:100A6000FB607B68FA689A42EFD30E4B1B68082242
:100A700013400DD10B4B1A680A4B08210A431A6028
:100A8000074B180000F0AEF903001A00054B9A62FC
:100A900000231800BD4604B080BDC046C40100203C
:100AA000780100200044004080B584B000AF786039
:100AB00072B6C046454B00229A64444B9A6C434B35
:100AC0005A64424B5A6C414B1A64414B00229A645F
:100AD0003F4B9A6C3E4B5A643D4B5A6C3C4B1A64EC
:100AE0003C4B01221A603C4B00221A603B4BDA6AF5
:100AF0003A4B01210A43DA62394BFB607968F868A6
:100B000001F074F90300FB60A023DB059A68A023C1
:100B1000DB05802149050A439A60A023DB055A685A
:100B2000A023DB052F490A405A60A023DB051B6880
:100B30002D4A1A40A023DB05802189050A431A604B
:100B4000A023DB055A6AA023DB058021C9040A43E0
:100B50005A62A023DB051B689B009A08A023DB05D3
:100B6000802109060A431A60A023DB055A6AA023E4
:100B7000DB058021C9050A435A62184B9A6B174B53
:100B8000802189020A439A63184B1A68174B6C211B
:100B90000A431A60154B00225A60144B00229A60D7
:100BA000124BFA68DA60114B1A68104B01210A43A4
:100BB0001A600F4B1A680E4B802149050A431A60D0
:100BC00062B6C046C046BD4604B080BD2C010020C0
:100BD00078010020C4010020C8010020001002405C
:100BE0000048E801FFBFFFFFFFFFFFCF00440040C8
:100BF00000E100E080B500AF0F4BDB6980221340BD
:100C000001D000F06BF80C4BDB692022134005D0BB
:100C10000A4B1B68002B01D000F01CF8064BDB6967
:100C20002022134005D0054B1B68002B01D100F09A
:100C300029F8C046BD4680BD0044004000000020A9
:100C400080B500AF024B00221A60C046BD4680BD91
:100C50000000002080B500AF074B5B6ADAB2074B9B
:100C60001100180000F074F8031E02D0044B01229A
:100C70001A60C046BD4680BD004400402C010020E3
:100C8000C801002080B500AF054B5B6A1A00054B18
:100C90001A60054B01221A60C046BD4680BDC046A1
:100CA00000440040D0010020D401002080B500AFF6
:100CB000034B00221A60034B1B681800BD4680BD21
:100CC000D4010020D001002080B500AF024B1B688A
:100CD0001800BD4680BDC046D401002080B500AFDD
:100CE000184B180000F0A9F8031E0CD0164B1B6817
:100CF000002B08D0134B180000F074F803001A0002
:100D0000124B9A621BE0114B1A68104B08218A4360
:100D10001A600E4BDB694022134005D00B4B1A6A58
:100D20000A4B40210A431A62084BDB6980221340B8
:100D300005D0064B9A69054B10210A439A61C046BB
:100D4000BD4680BD78010020000000200044004026
:100D500080B582B000AF78600A00FB1C1A707B6817
:100D60001A6C7B685B6C9A4205D17B689B6C002B8C
:100D700001D0012319E072B6C0467B681B6C591C78
:100D80007A6811647A68F91C0978D1547B689B6C85
:100D90005A1C7B689A647B681B6C402B02D17B6871
:100DA00000221A6462B6C04600231800BD4602B095
:100DB00080BD80B582B000AF7860094B1B68082207
:100DC000134008D1064B1A68054B08210A431A60E4
:100DD000034B7A689A62C046BD4602B080BDC046E9
:100DE0000044004080B584B000AF78607B689B6CA5
:100DF000002B01D100231CE072B6C0467B685B6CFF
:100E0000591C7A6851640F22BA187968CB5C137048
:100E10007B685B6C402B02D17B6800225A647B6844
:100E20009B6C5A1E7B689A6462B6C0460F23FB18FF
:100E30001B781800BD4604B080BD80B582B000AFFD
:100E400078607B689B6C1800BD4602B080BD80B5A1
:100E500082B000AF78600B4B1B68002B09D10123D7
:100E60005B420BE07B685A1C7A6019000120FFF797
:100E7000CBFD7B681B78002BF4D100231800BD4606
:100E800002B080BDC401002080B582B000AF020076
:100E9000FB1D1A70FB1D19000120FFF7B5FDC046B0
:100EA000BD4602B080BD80B500AF044B1800FFF70F
:100EB00099FF03001800BD4680BDC0462C010020EC
:100EC000B0B584B000AF786039601E4B1B68002B52
:100ED00002D101235B4231E00023FB600B23FB18AE
:100EE00000221A7017E0C046174B1800FFF7A5FF45
:100EF000031EF9D00B257C19134B1800FFF772FF66
:100F000003002370FB685A1CFA601A007B689B1868
:100F10007A1912781A703B68013BFA689A4204DA2F
:100F20000B23FB181B780A2BDDD1FB68002B04DD9B
:100F3000FB687A68D31800221A70FB681800BD4657
:100F400004B0B0BDC40100202C01002080B500AF6A
:100F5000034B1800FFF771FF03001800BD4680BD6A
:100F60002C01002090B583B000AFFC1DFFF79BFF64
:100F700003002370FB1D1B781800FFF785FFFB1D86
:100F80001B781800BD4603B090BDB0B584B000AF6B
:100F900078603960214B1B68002B02D101235B4232
:100FA00037E00023FB600B23FB1800221A701DE0C2
:100FB000C0461B4B1800FFF740FF031EF9D00B255E
:100FC0007C19174B1800FFF70DFF030023702C004E
:100FD0003B191B781800FFF757FFFB685A1CFA6093
:100FE0001A007B689B183A1912781A703B68013B0B
:100FF000FA689A4204DA0B23FB181B780D2BD7D121
:10100000FB68002B04DDFB687A68D31800221A7095
:10101000FB681800BD4604B0B0BDC046C401002046
:101020002C01002080B500AF0A4B0B4A5A60094BD7
:1010300000229A60074B05221A60C046054B1A68C9
:1010400080235B021340F9D0024B00221A60C04695
:10105000BD4680BD10E000E0FF7C000080B582B09E
:1010600000AF786001E0FFF7DDFF7B685A1E7A6011
:10107000002BF8D1C046C046BD4602B080BD90B539
:101080008DB000AF78607A68174B1100180001F03E
:1010900035FDA023DB055A69A023DB0513490A406F
:1010A0005A610A20FFF7DAFF7B681800FFF7CFFECE
:1010B00008243B1927211800FFF702FFA023DB05B6
:1010C0005A69A023DB05802189010A435A610A205D
:1010D000FFF7C4FF3A19064B1100180001F00EFD8E
:1010E000C046BD460DB090BD00400008FFDFFFFFC9
:1010F0000C40000880B582B000AF164B7B60164BE9
:101100003B6007E07A68131D7B603B68191D3960FE
:1011100012681A603A68114B9A42F3D304E03B68B4
:101120001A1D3A6000221A603A680D4B9A42F6D3B3
:101130000C4B3B6004E03B681A1D3A601B68984703
:101140003A68094B9A42F6D3C046C046BD4602B043
:1011500080BDC046D0410008000000208000002073
:1011600040030020D0410008D041000880B500AF06
:101170003B4B1A683A4B01210A431A60C046384B70
:101180001B6804221340FAD0354B0122DA60C046B6
:10119000334BDB680C221340042BF9D1314B1A6816
:1011A000304B02210A431A602E4B1A682D4B012145
:1011B0000A431A602A4B9A6B294B802149050A433E
:1011C0009A63294B802212011A60C046264B5B6845
:1011D00010221340FAD1224BDA68214B23490A40EE
:1011E000DA601F4BDA681E4B8821C9030A43DA60B4
:1011F0001B4A1B4BD268DA60194A194BD268DA6075
:10120000174A174BD268DA60154B1A68144B184905
:101210000A401A60124B1A68114B802149040A4394
:101220001A60C0460E4B1A6880239B041340F9D005
:101230000B4BDA680A4B03218A43DA60084BDA6801
:10124000074B03210A43DA60C046054BDB680C22DA
:1012500013400C2BF9D1C046C046BD4680BDC046E8
:10126000001002400020024000700040FFFF02FF1B
:10127000FFFFFFFE80B500AF024B1800FFF7AAFA90
:10128000FEE7C0464440000880B500AF024B18009E
:10129000FFF7A0FAFEE7C0467440000880B582B0B0
:1012A00000AF7860FEE780B582B000AF78600123C0
:1012B0005B421800BD4602B080BD80B584B000AF6F
:1012C000F860B9607A60044B0C221A6001235B421B
:1012D0001800BD4604B080BDF001002080B500AF0D
:1012E000034B0B221A6001235B421800BD4680BDF0
:1012F000F001002080B582B000AF786039603B68B3
:10130000802292015A6000231800BD4602B080BDC1
:1013100080B500AF01231800BD4680BD80B582B006
:1013200000AF78603960044B16221A6001235B42DB
:101330001800BD4602B080BDF001002080B582B02B
:1013400000AF78603960044B1F221A6001235B42B2
:101350001800BD4602B080BDF001002080B584B009
:1013600000AFF860B9607A6000231800BD4604B091
:1013700080BD80B582B000AF786039603B68802264
:1013800092015A6000231800BD4602B080BD80B5AE
:1013900082B000AF786001235B421800BD4602B006
:1013A00080BD80B582B000AF7860044B02221A6025
:1013B00001235B421800BD4602B080BDF001002051
:1013C00080B582B000AF7860044B0A221A60012316
:1013D0005B421800BD4602B080BDC046F00100204F
:1013E00080B582B000AF78607B68022B01D8012302
:1013F00003E0044B09221A6000231800BD4602B026
:1014000080BDC046F001002080B586B000AF786096
:10141000124B7B61124B3B61124B1B68002B02D1BC
:10142000104B7A691A600F4B1B68FB600D4B1A68F2
:101430007B68D3183A699A4205D20B4B0C221A608A
:1014400001235B4206E0074B1A687B68D218054B04
:101450001A60FB681800BD4606B080BD400300203E
:1014600000100020DC010020F001002080B588B0D1
:1014700000AFF860B9607A600023BB61FB68002BA5
:1014800022D10023FB611AE0FFF7D1F903001A0013
:1014900017217B181A70BB685A1CBA607A18127828
:1014A000D2B21A70BB690133BB617B181B78DBB207
:1014B0000A2B01D1BB690EE0FB690133FB61FA69BC
:1014C0007B689A42E0DB05E0054B09221A600123A4
:1014D0005B4200E0BB691800BD4608B080BDC04655
:1014E000F001002080B586B000AFF860B9607A6086
:1014F000FB68013B012B11D800237B6109E0BB682D
:101500005A1CBA601B781800FFF782F97B69013317
:101510007B617A697B689A42F1DB05E0054B092221
:101520001A6001235B4200E07B681800BD4606B0EC
:1015300080BDC046F001002080B586B000AF786065
:101540007B680A21180000F051FC03000A211800F2
:1015500000F032FD0B007B617B686421180000F015
:101560002BFD0B000A21180000F026FD0B003B614B
:101570007B686421180000F039FC0300FB603A4BE3
:101580007A691A60394B3A691A60384B1B68082B24
:1015900023D89A00364BD3181B689F46FB68022B52
:1015A00003D1344B0A221A6023E02F4B1B68042B13
:1015B00003DC304B00221A601BE02E4B05221A6020
:1015C00017E02C4B02221A6013E02A4B05221A6006
:1015D0000FE0284B07221A600BE0234B1B68042BFB
:1015E00003D0244B00221A6002E0224B0A221A6028
:1015F000C0461E4B1B68082B26D89A001E4BD318DA
:101600001B689F46FB68032B03D11C4B0A221A6000
:1016100026E0154B1B68032B02DCFB68022B03D171
:10162000164B00221A601BE0144B05221A6017E0CB
:10163000124B02221A6013E0104B05221A600FE0D1
:101640000E4B07221A600BE0074B1B68042B03D0DC
:101650000A4B00221A6002E0084B0A221A60C046B8
:10166000C046BD4606B080BD10000020140000201A
:101670009840000808000020BC4000080C00002032
:1016800080B500AFA023DB055A69A023DB0501214B
:101690000A435A61C046BD4680BD80B500AFA02355
:1016A000DB055A69A023DB0502210A435A61C046C3
:1016B000BD4680BD80B500AFA023DB055A69A023DD
:1016C000DB0504210A435A61C046BD4680BD80B592
:1016D00000AFA023DB055A69A023DB0508210A43DC
:1016E0005A61C046BD4680BD80B500AFA023DB0572
:1016F0005A69A023DB0501218A435A61C046BD46D1
:1017000080BD80B500AFA023DB055A69A023DB05AF
:1017100002218A435A61C046BD4680BD80B500AFF4
:10172000A023DB055A69A023DB0504218A435A6103
:10173000C046BD4680BD80B500AFA023DB055A6919
:10174000A023DB0508218A435A61C046BD4680BDFF
:1017500080B500AF8023DB051A698023DB050121FA
:101760008A431A613D4B1B685A1C3C4B1A60FFF7B9
:10177000BBFFFFF7C6FFFFF7D1FFFFF7DCFF374BDB
:101780001A68374B1B689A4227DD364B1B68042BBF
:1017900004DDFFF7B6FFFFF773FF1EE0314B1B6858
:1017A000032B04DCFFF7A0FFFFF777FF15E02E4BBC
:1017B0001B68042B04DDFFF797FFFFF76EFF0CE0BB
:1017C000294B1B68032B04DCFFF79BFFFFF758FF37
:1017D00003E0FFF789FFFFF794FF204B1A68234BC4
:1017E0001B689A4227DD1F4B1B68042B04DDFFF7A3
:1017F000A2FFFFF75FFF1EE01A4B1B68032B04DC00
:10180000FFF78CFFFFF763FF15E0174B1B68042BF6
:1018100004DDFFF790FFFFF74DFF0CE0124B1B6854
:10182000032B04DCFFF77AFFFFF751FF03E0FFF71C
:1018300075FFFFF780FF094B1B680A2B0AD1074B86
:1018400000221A60FFF750FFFFF75BFFFFF766FF0C
:10185000FFF771FFC046BD4680BDC046E0010020D5
:101860000C000020140000201000002008000020C0
:1018700080B500AFA023DB05012252429A60704B75
:10188000DA6A6F4B01210A43DA62A023DB051B6889
:101890006C4A1A40A023DB058021C9040A431A6060
:1018A000A023DB055A69A023DB05802189010A43B7
:1018B0005A61A023DB051A68A023DB0562490A40B0
:1018C0001A60A023DB05DA68A023DB05802149022A
:1018D0000A43DA60A023DB05DA68A023DB055B4955
:1018E0000A40DA60A023DB051B68032293431A0039
:1018F000A023DB0501210A431A60A023DB051B6836
:101900000C2293431A00A023DB0504210A431A602A
:10191000A023DB051B68302293431A00A023DB05BC
:1019200010210A431A60A023DB051B68C0229343E1
:101930001A00A023DB0540210A431A60A023DB051F
:101940001B68434A1A40A023DB05802149000A4353
:101950001A60A023DB059A68A023DB058021C90556
:101960000A439A60A023DB055A68A023DB053949A6
:101970000A405A60A023DB051B689B009A08A0233D
:10198000DB05802109060A431A602D4B9A6B2C4B0C
:1019900001210A439A638023DB05FA22D201DA622D
:1019A0002D4B1A682C4B802109020A431A608023B0
:1019B000DB051A688023DB0510210A431A608023A7
:1019C000DB051A688023DB0580210A431A60802327
:1019D000DB05DA688023DB0501210A43DA60802316
:1019E000DB051A688023DB0501210A431A60144BCA
:1019F0005A6B134B20210A435A63184BFA22D20127
:101A0000DA62154B1A68144B8021C9030A431A6025
:101A1000124B1A68114B10210A431A600F4B1A68B7
:101A20000E4B80210A431A600C4BDA680B4B0121E4
:101A30000A43DA6062B6C046C046BD4680BDC046B5
:101A400000100240FFFFFFF3FFFFFCFFFFFFFDFF61
:101A5000FFFCFFFFFF7FFFFF00E100E000140140FB
:101A600080B582B000AF7860C0467B685A1E7A604D
:101A7000002BFAD1C046C046BD4602B080BD80B53D
:101A800084B000AF78603A4B3A4A5A60384B394AD2
:101A90009A60374B05221A6007E0354B1A6880239D
:101AA0005B02134001D000235EE0A023DB051A692E
:101AB00080235B001340F0D12D4B00221A602C4B89
:101AC0002C4A5A602A4B2B4A9A60294B05221A60ED
:101AD00007E0274B1A6880235B02134001D00023E4
:101AE00042E0A023DB051A6980235B001340F0D09D
:101AF0001F4B00221A601E4B1E4A5A601C4B1D4A87
:101B00009A601B4B05221A600023FB6021E0184BF2
:101B10001A6880235B02134001D0002324E0A02335
:101B2000DB051A6980235B001340F0D107E0104BFE
:101B30001A6880235B02134001D0002314E0A02325
:101B4000DB051A6980235B001340F0D0FB6801338A
:101B5000FB60FA687B689A42E1DB054B00221A6061
:101B6000034B9B68034AD31A1800BD4604B080BDDE
:101B700010E000E0FFFFFF0080B584B000AF72B658
:101B8000C0466420FFF77BFF0300BB6062B6C0461F
:101B9000BB68002B15DDB86800F048FE00220D4B35
:101BA00000F042FB02000B001000190000F06CFE78
:101BB000031C7B607968FE20800500F003FA031C9B
:101BC000FB60F86800F010FB03001800BD4604B08D
:101BD00080BDC04684D7E74180B582B000AF786051
:101BE00039600C4B1A680B4B01210A431A600A4BEF
:101BF00000221A60094B00221A60094B01221A6068
:101C0000084B7A681A60084B3A681A60C046BD46AD
:101C100002B080BD00140140E4010020E801002072
:101C200020000020180000201C00002080B500AF1C
:101C30000D4B1A680C4B01218A431A600A4B1A6932
:101C4000094B01218A431A61084B00221A60084B94
:101C500000221A60074B00221A60074B01221A600B
:101C6000C046BD4680BDC04600140140E4010020CE
:101C7000E8010020EC0100202000002080B500AF2A
:101C8000534B1A69524B01218A431A61514B1B680D
:101C90005A1C504B1A604F4B1A68FA239B009A4209
:101CA00007DB4C4B00221A604B4B1B685A1C4A4BFB
:101CB0001A604A4B1A684A4B1B689A4200DB7EE066
:101CC000454B1A68474B1B689A4207DA464B1B681C
:101CD000002B03D02820FFF72FFC75E0414B1B6839
:101CE0005A1C3D4B1B689A4209DB3F4B1B68002B7B
:101CF00005D096235B001800FFF71EFC64E0394B0B
:101D00001B689A1C344B1B689A420FDB314B1A68D4
:101D100095235B009A4209DC334B1B68002B05D0EE
:101D200096235B001800FFF707FC4DE02E4B1B6865
:101D3000002B0CD02C20FFF7FFFB2B4B00221A604E
:101D4000254B00221A60234B00221A603CE0224BF4
:101D50001A68244B1B689A4203DA2820FFF7ECFB31
:101D600032E0204B1B685A1C1B4B1B689A4203DB5A
:101D7000C820FFF7E1FB27E01A4B1B689A1C164BA3
:101D80001B689A4209DB134B1A6895235B009A4241
:101D900003DCC820FFF7D0FB16E02C20FFF7CCFBBC
:101DA0000E4B1B685A1C0D4B1A600B4B00221A601D
:101DB000084B00221A600C4B01221A6004E0FFF766
:101DC00035FFFEF78DF9FFE7C046BD4680BDC04632
:101DD00000140140E8010020E4010020EC01002093
:101DE0001C000020180000202000002003460B43A8
:101DF0007FD4002243088B4274D303098B425FD304
:101E0000030A8B4244D3030B8B4228D3030C8B422F
:101E10000DD3FF22090212BA030C8B4202D3121215
:101E2000090265D0030B8B4219D300E0090AC30BEA
:101E30008B4201D3CB03C01A5241830B8B4201D397
:101E40008B03C01A5241430B8B4201D34B03C01A80
:101E50005241030B8B4201D30B03C01A5241C30AF8
:101E60008B4201D3CB02C01A5241830A8B4201D369
:101E70008B02C01A5241430A8B4201D34B02C01A53
:101E80005241030A8B4201D30B02C01A5241CDD2F8
:101E9000C3098B4201D3CB01C01A524183098B4243
:101EA00001D38B01C01A524143098B4201D34B012C
:101EB000C01A524103098B4201D30B01C01A52418F
:101EC000C3088B4201D3CB00C01A524183088B4216
:101ED00001D38B00C01A524143088B4201D34B00FF
:101EE000C01A5241411A00D2014652411046704771
:101EF0005DE0CA0F00D04942031000D34042534076
:101F000000229C4603098B422DD3030A8B4212D335
:101F1000FC22890112BA030A8B420CD38901921167
:101F20008B4208D3890192118B4204D389013AD0A4
:101F3000921100E08909C3098B4201D3CB01C01A79
:101F4000524183098B4201D38B01C01A524143098C
:101F50008B4201D34B01C01A524103098B4201D37A
:101F60000B01C01A5241C3088B4201D3CB00C01AE7
:101F7000524183088B4201D38B00C01A5241D9D2FF
:101F800043088B4201D34B00C01A5241411A00D280
:101F90000146634652415B10104601D34042002B7C
:101FA00000D54942704763465B1000D3404201B5FB
:101FB000002000F005F802BD0029F8D016E77047B0
:101FC0007047C046F0B546464F46D6464502C0B5B6
:101FD000C30F470098460E1C6D0A3F0E57D0FF2FC7
:101FE00021D08023ED00DB041D43002399469A464F
:101FF0007F3F74027300640A1B0EF60F002B20D083
:10200000FF2B4CD080220020E400D20414437F3BFD
:102010004246FF1A4B4672400F2B00D9ACE06F4985
:102020009B00CB589F46002D5BD108239946063B69
:1020300074029A467300FF27640A1B0EF60F002BEA
:10204000DED1002C30D1012342464946724019436B
:102050000E2904D86248890041588F464246FF2025
:102060000024C0052043D2071043E0BCBA46B14665
:10207000A846F0BD5346022BF0D0032B00D1A3E0BD
:1020800042462C00012B35D100200024E9E7002D29
:102090001BD104239946033B00279A46A9E7002C4D
:1020A0000CD10223FF3FCFE7200000F0FDFC431FCF
:1020B0009C4076235B421B1A0020A9E703234A4673
:1020C0001A4391460320FC33A2E7280000F0ECFC01
:1020D0007627431F9D4000237F4299469A463F1A28
:1020E00087E70C239946093BFF279A4681E7032897
:1020F0006CD0320038007F30002825DD630704D023
:102100000F232340042B00D00434230103D53800CF
:10211000344B80301C40FE28A1DCA401640AC0B20C
:102120009FE780240022FF20E4039AE78023DB035B
:102130001D4201D01C424BD08024E4032C43640296
:102140004246FF20640A8CE701231B1A1B2B9BDCF1
:1021500021009E37D940BC400B00611E8C412343B7
:10216000590704D00F211940042900D00433590124
:1021700026D50120002474E76D016001854213D249
:102180001B230024013F0126290064006D00002963
:1021900001DBA84201D82D1A3443013B002BF3D1B7
:1021A0006B1E9D412C43A5E71A2301242D1AEAE753
:1021B000981E43425841404232000024C0B250E7CA
:1021C0009B0100205C0A4CE746462C008023DB0381
:1021D0001C4364023200FF20640A42E7E04000082A
:1021E00020410008FFFFFFF741024200C30F490AE8
:1021F0000020120E7E2A03DD9D2A02DD094A98186E
:102200007047802000040143952A07DC9620821A3B
:10221000D1404842002BF3D10800F1E7963A9140B3
:10222000F7E7C046FFFFFF7FF0B5DE46454657465D
:102230004E46E0B587B0009201930B031B0B9B4603
:10224000CA0F4B00040080465B0D029200D189E06A
:102250008A4A934238D05946420FC9000A43802126
:1022600009041143C2009046854A894692469A4421
:10227000002300240393009E019F3B031B0B9B46FE
:102280007B0030005B0DFD0F002B00D19EE07B4AF0
:10229000934200D18CE05946720FC9000A43802155
:1022A000090411438B467649F2008C46514663443B
:1022B000CB1A9A460021029E6E400F2C00D9EFE007
:1022C000704BA4001B599F465A460243914600D0CA
:1022D0009DE09A460223904608240393CBE72E0004
:1022E000002200249046654B1B052343F607334329
:1022F0004046190007B0F0BCBB46B246A946A0460E
:10230000F0BD0022002300249046EDE7CB46424674
:10231000029D03990229E2D0032900D143E22E0055
:102320000129EED0584B5344002B00DC93E15107B8
:1023300000D04AE25946C90106D55946534B1940C7
:1023400080238B46DB00534451498B42C8DC5946FD
:10235000D208490711435A465B0554028846240BAC
:102360005B0DC1E75B460343994661D05B46002B9A
:1023700000D1C2E1584600F097FB0B235B429C461C
:102380000200844466461D239B1B2600110058460C
:10239000DE400839884033000343994623008B40D0
:1023A00098463C4B00249B1A9A460023039362E70D
:1023B0005A46009B1A43384B9C46E244002A32D1CD
:1023C00002231C43002302219B4674E75A46009BCC
:1023D0001A4322D05B46002B00D1A0E1584600F002
:1023E00063FB020003000B3A1D27009EBA1A190076
:1023F0005846D64008398840320002439346009A36
:102400008A40264953448A4600219A4453E79A4613
:102410000323D9460C2403932DE701231C430023F7
:1024200001219B4647E70323320003211C4342E777
:10243000002398469A460133042403931BE70023A4
:102440008024984600260D4B24034DE780244B46FC
:102450002403234209D05B46234206D11C432403B4
:102460002E009046054B240B3EE780244B46240368
:102470001C432403029E014B240B35E7FF07000099
:1024800001FCFFFF5C410008FF030000FFFFFFFEAF
:10249000FE0700000DFCFFFF01F8FFFFF303000043
:1024A000CB4500D220E100D11BE101235B429C46D9
:1024B000444648460027E2445B46150E1B021D4376
:1024C000190C2B04120200951D0C914602910395E4
:1024D00000F0E6FA02006A430B04210C804619431F
:1024E0008A420ED9009D0123AC465B4261449C4662
:1024F000E0448D4205D88A4203D9AC46831E9846F3
:102500006144881A029900F0CBFA039A24044243EA
:102510000904240C03000C43A24206D90099013B94
:102520008C466444A14200D80DE1A01A4246120430
:102530001A4393464B4659461B0C1D0004930B044B
:1025400049460904090C0C001B0C5C43120C6B433C
:10255000884651436A43250CAC465B186344994254
:1025600003D9802149028C466244190C24041B04BF
:10257000240C8A181C19904200D29EE000D199E0E8
:102580003C1BA742BF41009D801A7F42C01B854271
:1025900000D10CE1029900F083FA039A0B04424344
:1025A000210C070019438A4208D9AC466144013F17
:1025B0008D4203D88A4201D9871E6144881A029944
:1025C00000F06EFA039A240442430904240C030029
:1025D0000C43A24209D90099013B8C466444A142B4
:1025E00003D8A24201D9831E64444146A41A3A0486
:1025F0001A43049D13041B0C594347466B439C46E6
:10260000100C47430B0CBC44634468439F4203D9FE
:1026100080256D02AC4660441F0C09041B04090CA4
:102620003F185B18BC4206D302D001231A4379E657
:10263000002B00D176E60098511E84466444844203
:1026400000D2A8E0BC4200D2D6E000D1E0E00A000F
:10265000EBE7012252420121C91A382900DD50E678
:102660001F2976DD1F204042C31A5846D840030078
:10267000202904D058466949514488400243511EDC
:102680008A411A43072319000024114013420CD039
:102690000F231340042B00D1BEE0111D91429B413A
:1026A0000A005B4259075B021C0BD2080A439046A2
:1026B000002319E6A74200D362E75B46009D013B79
:1026C0004F4405934F459B41AC465B426344C01861
:1026D000854233D2824200D981E07DD0059B9B4662
:1026E0004EE7424500D9E0E64B46DC075808434632
:1026F0005B081C434346DF07DEE600F0D5F91523EF
:102700009C4684440200634620321C2B00DC39E6E0
:1027100023000838834099460023984641E600F09C
:10272000C3F902000300153220331C2A00DC5BE6EB
:1027300000990838814000228B4662E68542CDD15F
:10274000B945CBD8C6E7A24200D8EEE6831E644462
:10275000EBE633481400504482405B461700834048
:10276000CC407A1E974123433B431A005B46CB4043
:10277000510709D00F211140042905D0111D9142A4
:10278000924152429B180A0019028BD50022012364
:1027900000249046A8E50A00BC4200D045E74B451E
:1027A00000D042E7BEE580245B46240356E61D4B7D
:1027B0001D4A5344924500DA4BE7012149420A1D64
:1027C0008A42894149428B44B4E50F2111400429D2
:1027D00000D1AFE51100F2E7BC4200D87EE702234A
:1027E0005B429C4600994F444F459B41E3448C46D5
:1027F0005B426344C018C3E64946009D4800484513
:102800008941AC46494261448146023A6418C3E7B3
:102810009945F1D30A00C2E7002343E73E040000D4
:102820001E040000FF03000002FCFFFF70B500283B
:1028300016D0C317C5185D40C40F280000F034F946
:10284000104B1B1A5B055B0D0A2814DC02002E00DE
:10285000153296400B22121AD5402D032D0B03E0A2
:1028600000240023002500261B052B43E4072343F7
:102870003000190070BD0B3885402D0300262D0B4C
:10288000F2E7C0461E040000F0B54B000F035B0DDD
:102890003C4C450F83B07F0A5E1C2F430090019192
:1028A000CA0FC50026420BD037495C18FE2C13DD39
:1028B000FF200023C0051843D207104303B0F0BD2A
:1028C0003D43002B01D10020F4E7002DF0D0802300
:1028D000DB03FF203B43EDE7002C14DD009BFF00F2
:1028E0009B01581E8341690F3B430B43590746D058
:1028F0000F21194004292AD00433590127D5013466
:102900000023E0B2D6E72100173124DB80211E200E
:1029100009043943001B1F2820DD02267642341BA0
:102920000E00E6403400202804D018488446634452
:1029300099400D432B00591E8B41234359071AD050
:102940000F2100241940042901D0002404339B01E5
:102950005B0AE0B2AEE700200023ABE70C4C1C1989
:102960002B00A540C340A140681E854129430B436D
:1029700000245907BCD19B0100205B0A9AE7DB08C1
:10298000E0B297E7FE07000080FCFFFFA2FCFFFF1C
:1029900082FCFFFF002243088B4274D303098B4261
:1029A0005FD3030A8B4244D3030B8B4228D3030C1F
:1029B0008B420DD3FF22090212BA030C8B4202D3C1
:1029C0001212090265D0030B8B4219D300E0090AE9
:1029D000C30B8B4201D3CB03C01A5241830B8B42F2
:1029E00001D38B03C01A5241430B8B4201D34B03DB
:1029F000C01A5241030B8B4201D30B03C01A524140
:102A0000C30A8B4201D3CB02C01A5241830A8B42C4
:102A100001D38B02C01A5241430A8B4201D34B02AD
:102A2000C01A5241030A8B4201D30B02C01A524111
:102A3000CDD2C3098B4201D3CB01C01A52418309C5
:102A40008B4201D38B01C01A524143098B4201D3FF
:102A50004B01C01A524103098B4201D30B01C01A2A
:102A60005241C3088B4201D3CB00C01A52418308A4
:102A70008B4201D38B00C01A524143088B4201D3D1
:102A80004B00C01A5241411A00D201465241104631
:102A90007047FFE701B50020FFF792FA02BDC0467C
:102AA0000029F7D076E770471C2101231B049842C8
:102AB00001D3000C10391B0A984201D3000A0839CF
:102AC0001B09984201D30009043902A2105C401886
:102AD0007047C0460403020201010101000000002A
:102AE000000000000EB403B503AB04CB8168019372
:102AF00000F05EFA02B008BC03B018470FB407B587
:102B0000054904AB086804CB8168019300F050FAD2
:102B100003B008BC04B0184724000020036A70B555
:102B200005000E008468002B01D100F0ABFE636E3F
:102B3000DB0705D4A3899B0502D4A06D00F0FDF846
:102B4000A3891B0702D52369002B1FD12100280070
:102B500000F090F8002819D001256D42636EDB0764
:102B600005D4A3899B0502D4A06D00F0ECF82800E1
:102B700070BD0136A360002B04DAA2699A4216DC0C
:102B80000A2914D023685A1C22601970A36831786E
:102B9000013B0029EDD1A360002B0FDA22002800B1
:102BA0000A3100F01BF80130D6D00A25D6E7220002
:102BB000280000F013F80130E8D1CDE723685A1C53
:102BC00022600A221A70F0E710B5034B0100186862
:102BD000FFF7A4FF10BDC04624000020F8B5060092
:102BE0000D001400002804D0036A002B01D100F06E
:102BF00049FEA369A360A3891B0702D52369002BA3
:102C000009D12100300000F035F8002803D001255B
:102C10006D422800F8BD23692068EFB2C01A6369CD
:102C2000EDB2834205DC2100300000F0EBFC00280F
:102C3000EDD1A3680130013BA36023685A1C2260D8
:102C40001F706369834204D0A389DB07E1D50A2D95
:102C5000DFD12100300000F0D5FC0028D9D0D6E724
:102C600010B5034B0A0001001868FFF7B7FF10BD4D
:102C7000240000202D4B70B5050018680C000028BA
:102C800004D0036A002B01D100F0FCFD0C22A35EEE
:102C90001A0723D4DA0607D409222A604022012029
:102CA0001343A38140423AE05B0713D5616B0029CF
:102CB00008D023004433994202D0280000F044F8A1
:102CC000002363632422A3899343A38100236360C9
:102CD000236923600823A2891343A3812369002B5E
:102CE0000BD1A0218022A389890092000B4093423E
:102CF00003D02100280000F099FF0C22A35E0121DF
:102D00001A000A400B420BD00022A26062695242B4
:102D1000A26100202269824201D11A06BED470BD90
:102D2000990700D46269A260F3E7C046240000203E
:102D30007047704770477047704770470120704771
:102D4000012070477047704770B505000C1E10D009
:102D5000043C2368002B00DAE418280000F0E0F8B7
:102D60001D4A1368002B05D163601460280000F031
:102D7000DFF870BDA34208D9206821188B42F3D137
:102D800019685B6809182160EEE71A005B68002B80
:102D900001D0A342F9D911685018A0420BD1206884
:102DA0000918501811608342E0D118685B68411817
:102DB00011605360DAE7A04202D90C232B60D5E7FB
:102DC000206821188B4203D119685B6809182160BB
:102DD00063605460CAE7C0460002002070B50F4E21
:102DE0000D0031680400002902D101F027F830609D
:102DF0002900200001F022F8431C03D101256D4277
:102E0000280070BD0323C51C9D43A842F8D0291A91
:102E1000200001F013F80130F2D1EFE7FC010020AF
:102E2000F7B50322CB1C9343083305001F000C2B7E
:102E300034D20C27B94233D8280000F071F8374E4D
:102E400033681C00002C2FD139002800FFF7C6FF83
:102E50000400431C5FD134680094009B002B4AD1CE
:102E6000002C52D023682800E3180099019300F049
:102E7000E5FF019B834248D123682800FF1A3900EF
:102E8000FFF7ACFF013040D02368DB1923603368C3
:102E90005A68002A33D1009B336019E0002BC9DA4D
:102EA0000C232B600020FEBD2168C91B20D40B29F8
:102EB0000AD9E2192760A34204D132606368116025
:102EC000536005E05A60F9E76268A3420ED13260B0
:102ED000280000F02DF8200007220B30231D90431E
:102EE000C21A9842DFD01B1AA350DCE75A60EFE702
:102EF00023006468A6E7009C63680093ADE71A00AE
:102F00005B68A342FBD10023DAE70C2328002B6087
:102F100000F00EF8C6E70760DAE7C04600020020BE
:102F200010B50248FFF709FF10BDC046F8010020A8
:102F300010B50248FFF707FF10BDC046F80100209A
:102F4000936810B5013B9360002B04DA9469A342A7
:102F500007DB0A2905D01368581C10601970080097
:102F600010BDFFF73BFE0100F9E7F8B506000F00C2
:102F70001400D518AC4201D1002007E021783A00B6
:102F80003000FFF7DDFF0134431CF3D1F8BD00230F
:102F900010B5140092689A4205D0220000F0A6FCF9
:102FA00000220300A26000221800626010BD000031
:102FB000F0B5A1B00F0015001E000390002804D04A
:102FC000036A002B01D100F05DFC7B6EDB0705D4AA
:102FD000BB899B0502D4B86DFFF7AFFEBB891B0709
:102FE00002D53B69002B13D139000398FFF742FE4D
:102FF00000280DD07B6EDB0703D50120404221B0B5
:10300000F0BDBB899B05F8D4B86DFFF79CFEF4E7D3
:10301000002308AC6361203363761033A3760796F0
:103020002E003378002B01D0252B48D1731B05933C
:10303000AE420BD02A0039000398FFF796FF01300B
:1030400000D1AEE06369059A9B1863613378002B69
:1030500000D1A6E0012200235242626004A954324A
:103060005218751C2360E360A3601370A365594B6D
:10307000052218002978059300F006FF6E1C002831
:103080001FD12268D30604D5532304A95B1820213D
:103090001970130704D5532304A95B182B21197049
:1030A0002B782A2B16D02E0000210A20E3683278D4
:1030B000751C303A092A50D9002911D117E0013680
:1030C000AFE7059B2268C01A0123834013433500F4
:1030D0002360CCE7079B191D1B680791002B01DBC0
:1030E0000B9304E05B42E3600223134323603378D5
:1030F0002E2B0CD173782A2B34D1079B02361A1D44
:103100001B680792002B01DA01235B420993324DC1
:1031100003222800317800F0B7FE002806D04023B3
:10312000401B834022680136134323603178062216
:103130002A48751C217600F0A7FE002840D0284BB5
:10314000002B22D10722079B0733934308330793B1
:103150006369049A9B18636162E743432E0001216F
:103160009B18A4E700230A20190001366360327817
:10317000751C303A092A03D9002BC8D00991C6E73B
:1031800041432E0001238918F1E707AA009221008C
:103190003A00144B039800E000BF0490049B0133F5
:1031A000D6D17B6EDB0705D4BB899B0502D4B86DF5
:1031B000FFF7C9FDBB895B0600D51EE70D981EE72A
:1031C00007AA009221003A00064B039800F088F805
:1031D000E3E7C0469C410008A2410008A641000860
:1031E000000000006B2F000810B5044C13000A000B
:1031F00001002068FFF7DCFE10BDC046240000205F
:10320000F7B5160001938A680B690C000090934291
:1032100000DA13002200336043321278002A01D012
:103220000133336023689B0602D533680233336071
:103230002268062315001D401A4227D0230043337D
:103240001B785A1E93412268920630D422000199BD
:103250000098089D4332A847013025D006222368F4
:1032600000251340042B05D13368E568ED1AEB43C4
:10327000DB171D40A3682269934201DD9B1AED18FC
:103280000026B54220D1002010E00135E368326805
:103290009B1AAB42D2DD2200012301990098089FBE
:1032A0001932B8470130F0D101204042FEBD302034
:1032B000E1184331087021005A1C45310978A218E1
:1032C000433202331170C1E72200012301990098B3
:1032D000089F1A32B8470130E6D00136D1E7000026
:1032E000F0B58BB006920A00433207930590039223
:1032F0000A7E0C00109B782A09D8622A0BD8002A73
:1033000000D1BAE07A490491582A00D18EE0250014
:1033100042352A7022E0100063381528F7D800F0F3
:10332000FFFD16001F00F6FFF6FFF6FFF6FF1F0079
:10333000F6FFF6FFF6FFF6FF9F0036007E00F6FF71
:10334000F6FFB000F6FF3600F6FFF6FF820025001C
:103350001A684235111D196013682B7001239EE015
:1033600018680968021D0D060BD506681A60002E44
:1033700003DA2D23039A764213705D4B0A270493D8
:1033800018E006681A604906F1D536B2EFE708681A
:10339000196840C9050602D4400600D5B6B21960C6
:1033A000534B0A2704936F2A00D1023F23000022C7
:1033B00043331A706368A360002B06DB0421226884
:1033C000039D8A43226033430CD0039D30003900B3
:1033D000FFF766FB049B013D5B5C2B70330006002E
:1033E0009F42F3D9082F09D12368DB0706D562680D
:1033F00023699A4202DC3023013D2B70039B5B1B47
:103400002361079B210000930598069B09AAFFF7FB
:10341000F7FE013048D1012040420BB0F0BD202220
:1034200009680A432260782232490491210045311B
:103430000A701968226840C9100602D4500600D5E7
:10344000B6B21960D30702D5202313432360002EA0
:1034500001D01027AAE72022236893432360F8E7CE
:103460001A680D68101D4969186013682E0601D589
:10347000196002E06D06FBD519800023039D2361CE
:10348000BFE71A68111D19601568002128006268DD
:1034900000F0FAFC002801D0401B606063682361E3
:1034A0000023039A1370ACE72A0023690699059854
:1034B000079DA8470130AED023689B0715D4099B10
:1034C000E0689842A9DA1800A7E7220001230699CC
:1034D0000598079E1932B04701309CD00135E3684A
:1034E000099A9B1AAB42F0DCE9E70025F7E7C046F2
:1034F000AD410008BE410008F7B50C228B5E050007
:103500000C001A0756D44A68002A02DC0A6C002A0A
:103510004EDDE76A002F4BD0002280202E682A6003
:103520001A004001216A0240034233D0626DA38930
:103530005B0706D56368D21A636B002B01D0236C3E
:10354000D21A00232800E76A216AB847A289431CDF
:1035500006D129681D2946D8294BCB40DB0742D527
:103560000023636023692360D20405D5431C02D184
:103570002B68002B00D16065616B2E60002917D08D
:1035800023004433994202D02800FFF7DDFB0023DB
:1035900063630DE001232800B8470200431CC6D135
:1035A0002B68002BC3D01D2B01D0162B1AD12E60F7
:1035B00000201EE00E69002EFAD00F680E60BA1BC4
:1035C000019200229B0700D14A69A260019B002B57
:1035D000EEDDA36A32001F002800019B216AB84774
:1035E000002807DCA2894023012013431BB2A381DA
:1035F0004042FEBD019B36181B1A0193E6E7C04608
:10360000010040200B6970B505000C00002B02D1B1
:103610000025280070BD002804D0036A002B01D1CA
:1036200000F030F90C22A35E002BF1D0626ED207BD
:1036300004D49B0502D4A06DFFF77FFB2800210076
:10364000FFF75AFF636E0500DB07E2D4A3899B05F1
:10365000DFD4A06DFFF777FBDBE70000010010B5BA
:10366000002805D1054A0649064800F099FA10BD20
:10367000054B1868FFF7C6FFF9E7C0467400002045
:10368000053600082800002024000020002310B583
:10369000040003604360836081814366C2810361EB
:1036A00043618361190008225C3000F061FB0B4B21
:1036B000246263620A4BA3620A4BE3620A4B2363F0
:1036C0000A4B9C4205D00A4B9C4202D0094B9C42BB
:1036D00003D120005830FFF72CFB10BDB13C00088F
:1036E000DD3C0008153D0008413D000804020020B3
:1036F0006C020020D402002010B5034A034904489C
:1037000000F04EFA10BDC0467400002005360008D7
:103710002800002041680B4B10B50400994201D0ED
:10372000FFF770FFA168084B994202D02000FFF715
:1037300069FFE168054B994202D02000FFF762FF64
:1037400010BDC046040200206C020020D4020020FC
:103750004B6E10B5DB0705D48B899B0502D4886DB1
:10376000FFF7EBFA002010BD4B6E10B5DB0705D458
:103770008B899B0502D4886DFFF7E5FA002010BD08
:1037800010B5094B094A04211A6009480022FFF7C5
:103790007DFF012209210748FFF778FF022212214D
:1037A0000548FFF773FF10BD3C030020F936000801
:1037B000040200206C020020D402002010B5024850
:1037C000FFF7BBFA10BDC046FB01002010B5024850
:1037D000FFF7B9FA10BDC046FB010020F8B507009D
:1037E000FFF7ECFF244B1B68002B01D1FFF7C8FF4C
:1037F000224EB4687368013B0FD53568002D38D16F
:10380000D62138004900FFF70BFB041E26D130609B
:10381000FFF7DCFF0C233B601CE00C22A55E002DB3
:103820001AD12000164B5830E3606566FFF781FA25
:10383000FFF7CCFF2000082229002560A560656005
:1038400025616561A5615C3000F092FA6563A5634E
:10385000A564E5642000F8BD6834CCE70423D022D9
:10386000056043600C302900A060520000F080FA2F
:1038700034603668BDE7C0463C0300207400002079
:103880000100FFFF10B50400FFF798FF236A002B2B
:1038900002D0FFF79BFF10BD044B2362044B1B6853
:1038A000002BF6D1FFF76CFFF3E7C0461537000891
:1038B0003C03002010B5FFF781FF0020024A0349B6
:1038C00000F06EF910BDC0467400002051370008AA
:1038D00010B5044A0449002000F062F9FFF776FFB2
:1038E00010BDC0467400002069370008F0B5936829
:1038F00087B00C0002900492002B02D1002007B088
:10390000F0BD8B891B0756D50B69002B53D0049B48
:103910001B6801930C22A35E02221E001640134274
:103920006FD1012201211A400B4200D1A2E03000E8
:1039300037000396002F00D10AE100280AD13A008F
:103940000A21039800F0A0FA7E1C002802D0039BF5
:103950000130C61A0596BE4200D905972068226933
:10396000A5686369904200D8FBE0059AED18AA4269
:1039700000DCF6E003992A0000F0E8F92368210052
:103980005B1902982360FFF73DFE00286DD10120EE
:10399000761B05D121000298FFF734FE002864D180
:1039A000039B049A5B190393049B7F1B9B685B1B1F
:1039B0009360BFD1A2E721000298FFF75BF90028CE
:1039C000A5D0012040429AE7019B1E685D6808333C
:1039D0000193A76A216A002DF6D06E4A2B0095420A
:1039E00000D9130032000298B84700283DDD049B3F
:1039F000049A9B6836181B1A2D1A9360002BE8D185
:103A00007CE700263500E4E7019B1B680393019BDC
:103A10005D68083301930C22A35E2068A668002D20
:103A2000F2D080229200134262D0AE4237D8902268
:103A3000D200134233D02169421A032005926269F1
:103A40004243D70FBF18059A7F1001325219BA426C
:103A500000D917005B053CD539000298FFF7E0F963
:103A6000061E0AD10C23029A13604023A289134335
:103A7000A381A6E715000392CDE7059A216900F01E
:103A80000EFAA289444B1A4080231343A381059B5D
:103A90002661F61826602E006761FF1AA7602F00C6
:103AA000AE4200D92E0032000399206800F04EF992
:103AB000A3689B1BA36023689B192360039B049A44
:103AC000DB190393049BED1B9B68DB1B9360A2D166
:103AD00014E73A00029800F0EBF9061ED7D12169ED
:103AE0000298FFF731F98022A3899343A381B9E7B4
:103AF0002369834202D36769AF4216D9AE4200D927
:103B00002E003200039900F021F9A36822689B1B64
:103B100092193700A3602260002BCFD121000298B8
:103B2000FFF770FD0028C9D09FE7802328001B06FF
:103B30009D4200D319483900FEF758F93B00A66AA8
:103B40004343039A216A0298B047071EB6DC8CE70C
:103B5000019B00201B680393019B5F68083301935E
:103B6000E8E6059A934208DCA56A039A216A02985E
:103B7000A847051E00DD0AE777E7059A039900F0DC
:103B8000E5F8059AA36815009B1AA36023689B18A3
:103B90002360FCE600FCFF7F7FFBFFFFFFFFFF7F52
:103BA000F7B51400002600900191A5686768013FF1
:103BB00004D52468002CF8D13000FEBDAB89012B60
:103BC00008D90E22AB5E013304D029000098019B76
:103BD000984706436835EAE770B50E001D000E23CE
:103BE000C95E140096B000290CDAB2898023110056
:103BF00019401A4214D18023DB0000202960236081
:103C000016B070BD6A4600F0CDF80028EDDBF02359
:103C100001991B021940044BC9184B425941EAE76C
:103C200000214023E9E7C04600E0FFFFF0B502268F
:103C30008B8905000C0085B0334207D02300473341
:103C4000236023610123636105B0F0BD03AB02AAC9
:103C5000FFF7C2FF029F019039002800FFF7E0F84C
:103C6000002808D10C22A35E9A05EDD403229343C9
:103C70001E43A681E2E78023A28920601343A3812B
:103C8000039B20616761002B0CD028000E23E15EAE
:103C900000F09AF8002805D00323A2899A43023B3A
:103CA0001343A381A389019A1343A381CCE70000A6
:103CB00070B50C000E25495F00F0ACF8002803DB5E
:103CC000636D1B18636570BDA389024A1340A3810D
:103CD000F9E7C046FFEFFFFF00207047F8B51F006F
:103CE0008B8905000C001600DB0505D50E23C95E87
:103CF0000022022300F07AF8A389054A2800134025
:103D0000A38132000E23E15E3B0000F0A9F8F8BD6C
:103D1000FFEFFFFF70B50C000E25495F00F066F85D
:103D2000A389421C03D1054A1340A38170BD8022A0
:103D300052011343A3816065F8E7C046FFEFFFFF20
:103D400010B50E23C95E00F01BF810BD10B58842F7
:103D500002D98B18984208D300239A4207D0CC5C32
:103D6000C4540133F9E78B5C8354013AFBD210BD94
:103D700003008218934200D1704719700133F9E7AC
:103D8000002370B5064D040008002B60FDF78BFA88
:103D9000431C03D12B68002B00D0236070BDC046AC
:103DA000F0010020002370B5064D0400080011004A
:103DB0002B60FDF79FFA431C03D12B68002B00D02A
:103DC000236070BDF0010020002370B5064D040093
:103DD00008002B60FDF704FB431C03D12B68002B6C
:103DE00000D0236070BDC046F001002070B5040013
:103DF000080011001A000023054D2B60FDF7AEFAF4
:103E0000431C03D12B68002B00D0236070BDC0463B
:103E1000F001002070B50400080011001A00002312
:103E2000054D2B60FDF722FB431C03D12B68002BB3
:103E300000D0236070BDC046F0010020002370B5A3
:103E4000064D040008002B60FDF7DEFA431C03D189
:103E50002B68002B00D0236070BDC046F00100200D
:103E600070B50400080011001A000023054D2B60F6
:103E7000FDF738FB431C03D12B68002B00D02360D7
:103E800070BDC046F0010020C9B28218904201D135
:103E90000020704703788B42FBD00130F6E7002307
:103EA00010B59A4200D110BDCC5CC4540133F8E780
:103EB000F7B506000C001500002905D11100FEF72A
:103EC000AFFF04002000FEBD002A03D1FEF73CFF37
:103ED0002C00F7E700F01CF80700854202D84308E1
:103EE000AB42EFD329003000FEF79AFF0190002883
:103EF00001D1019CE6E72A00BD4200D93A00210029
:103F00000198FFF7CCFF21003000FEF71DFFF0E71E
:103F10000B1F1B68181F002B01DA0B58C0187047C5
:103F200003B47146490840004900095E49008E44C7
:103F300003BC70470D0A4A44592D34302074657310
:103F4000740D000041542B44564944303930310D32
:103F50000A00000041542B52464944303930320D9A
:103F60000A00000041542B5645520D0A0000000083
:103F700041542B424155440D0A00000041542B523C
:103F80004649440D0A00000041542B445649440D53
:103F90000A00000041542B5246430D0A0000000065
:103FA00041542B504F57450D0A00000041542B43FC
:103FB0004C53530D0A0000000D0A507265737320B4
:103FC000616E6420686F6C64206120707573682D69
:103FD000627574746F6E20617474616368656420C7
:103FE000746F20504138202870696E2031382920A4
:103FF000746F207472616E736D69742E0D00000011
:10400000436F6D6D616E643A202573005265737065
:104010006F6E73653A202573000000000D0A52652B
:104020007475726E65642066726F6D206D61696E65
:1040300028292E202053797374656D2073746F7056
:104040002E000000496E7465727275707420776975
:1040500074686F75742068616E646C65722028499D
:104060005352292E202053797374656D2073746F19
:10407000702E000048617264204661756C7420697E
:104080006E746572727570742E2020537973746526
:104090006D2073746F702E009C150008C215000807
:1040A000CA150008D2150008DA150008D215000854
:1040B000CA150008C21500089C150008041600085F
:1040C0003016000838160008401600084816000888
:1040D00040160008381600083016000804160008BC
:1040E000782100085E20000888200008EE200008E3
:1040F000882000082221000888200008EE200008FF
:104100005E2000085E20000822210008EE20000842
:104110007420000874200008742000082C21000876
:104120005E2000085E20000888200008B0210008FA
:10413000882000082221000888200008B0210008FB
:104140005E2000085E20000822210008B02100083F
:10415000742000087420000874200008A0240008BF
:10416000E0220008022300081423000802230008AC
:104170003E2400080223000814230008E02200085F
:10418000E02200083E240008142300080C23000845
:104190000C2300080C2300084C240008232D302B8E
:1041A0002000686C4C006566674546470030313238
:1041B000333435363738394142434445460030318F
:1041C00032333435363738396162636465660000EE
:1041D00001000000D80100200500000005000000DB
:1041E00004000000040000000100000002000000C4
:1041F0000100000028000020000000000402002050
:104200006C020020D402002000000000000000002A
:10421000000000000000000000000000000000009E
:10422000000000000000000000000000000000008E
:10423000000000000000000000000000000000007E
:104240000000000000000000030000000402002045
:04000005080000B936
:00000001FF
