:020000040800F2
:1000000000200020B9000008C9030008DD03000833
:1000100000000000000000000000000000000000E0
:10002000000000000000000000000000C9030008FC
:100030000000000000000000C9030008C903000818
:10004000C9030008C9030008C9030008C903000860
:10005000C9030008C9030008C9030008C903000850
:1000600000000000C9030008C9030008C903000814
:10007000C9030008C903000800000000C903000804
:1000800000000000C903000800000000000000009C
:10009000C903000800000000C9030008C9030008E4
:1000A000C9030008C9030008C90300085506000871
:1000B000C9030008C903000800F002F900F0C4F801
:1000C000E1235B02180000F01DFA62B6C04600F0A2
:1000D0005DF8024B180000F085FBFEE74C7300084A
:1000E00080B500AF0A4B0B4A5A60094B00229A6058
:1000F000074B05221A60C046054B1A6880235B0235
:100100001340F9D0024B00221A60C046BD4680BDA4
:1001100010E000E0FF7C000080B582B000AF7860A6
:1001200001E0FFF7DDFF7B685A1E7A60002BF8D1F3
:10013000C046C046BD4602B080BD80B500AF104B82
:10014000DA6A0F4B01210A43DA62A023DB051B6840
:100150000C4A1A40A023DB05802149020A431A6099
:10016000074BDA6A064B02210A43DA62064B1A6829
:10017000054B0C210A431A60C046BD4680BDC046EF
:1001800000100240FFFFFCFF0004005080B582B069
:1001900000AFFA235B001800FFF7BEFF234B1800E7
:1001A00002F0C0FF224B180003F046F8FFF7C5FF2E
:1001B00000F0F8FB80239B00180000F043FC0300D4
:1001C0007B60786801F08EFC1A4A1B4B01F0C6F97F
:1001D00002000B00100019000022184B00F0A2FED4
:1001E00002000B001000190001F0F4FC031C3B603E
:1001F000386801F0A7FC02000B007968104802F093
:1002000091FF104B1B689B68180001F0D3FEA023E0
:10021000DB055A69A023DB05802149004A405A6169
:10022000FA235B001800FFF777FFC3E7F4720008BA
:10023000007300086666666666660A400000B040A5
:10024000347300080400002080B582B000AF164B64
:100250007B60164B3B6007E07A68131D7B603B6850
:10026000191D396012681A603A68114B9A42F3D32B
:1002700004E03B681A1D3A6000221A603A680D4B90
:100280009A42F6D30C4B3B6004E03B681A1D3A607F
:100290001B6898473A68094B9A42F6D3C046C04655
:1002A000BD4602B080BDC046607800080000002056
:1002B000D4010020900200206078000860780008D7
:1002C00080B500AF3B4B1A683A4B01210A431A60D4
:1002D000C046384B1B6804221340FAD0354B01222C
:1002E000DA60C046334BDB680C221340042BF9D193
:1002F000314B1A68304B02210A431A602E4B1A68A0
:100300002D4B01210A431A602A4B9A6B294B8021FD
:1003100049050A439A63294B802212011A60C0469C
:10032000264B5B6810221340FAD1224BDA68214B2E
:1003300023490A40DA601F4BDA681E4B8821C90343
:100340000A43DA601B4A1B4BD268DA60194A194B20
:10035000D268DA60174A174BD268DA60154B1A6810
:10036000144B18490A401A60124B1A68114B80212D
:1003700049040A431A60C0460E4B1A6880239B0446
:100380001340F9D00B4BDA680A4B03218A43DA6039
:10039000084BDA68074B03210A43DA60C046054B75
:1003A000DB680C2213400C2BF9D1C046C046BD4679
:1003B00080BDC04600100240002002400070004096
:1003C000FFFF02FFFFFFFFFE80B500AF024B1800EA
:1003D00000F008FAFEE7C0467473000880B500AF6D
:1003E000024B180000F0FEF9FEE7C046A4730008B7
:1003F00090B585B000AF78603960184B1B68002B52
:1004000002D101235B4224E00023FB600AE0FB6889
:100410005A1CFA603A68D418114B180000F0ADF974
:10042000030023707B68013B1A00FB68934205D2EE
:100430000B4B180000F0CCF9031EE8D1FB68002B31
:1004400006D03A68FB68D31800221A70FB6800E0F7
:1004500000231800BD4605B090BDC0466C020020C8
:10046000D401002080B584B000AF78603960224BA1
:100470001B68002B02D101235B4238E07B683F2BD5
:100480000BDCC0461D4B180000F0A2F9030040220F
:10049000D21A7B689A42F5D302E002235B4226E03F
:1004A0000023FB600BE03A68FB68D3181A78134B03
:1004B0001100180000F030F9FB680133FB607B6825
:1004C000FA689A42EFD30E4B1B68082213400DD1F5
:1004D0000B4B1A680A4B08210A431A60074B180095
:1004E00000F04BF903001A00054B9A620023180034
:1004F000BD4604B080BDC0466C0200202002002032
:100500000038014080B584B000AF786072B6C04654
:10051000454B00229A64444B9A6C434B5A64424BBD
:100520005A6C414B1A64414B00229A643F4B9A6CBF
:100530003E4B5A643D4B5A6C3C4B1A643C4B012277
:100540001A603C4B00221A603B4BDA6A3A4B01219D
:100550000A43DA62394BFB607968F86800F0F6FB11
:100560000300FB60A023DB059A68A023DB05802144
:10057000C9020A439A60A023DB055A68A023DB0561
:100580002F490A405A60A023DB051B682D4A1A40F8
:10059000A023DB05802109030A431A60A023DB05A1
:1005A0005A6AA023DB0540210A435A62A023DB05D7
:1005B0001B68254A1A40A023DB05802189030A43D2
:1005C0001A60A023DB055A6AA023DB058021C9003D
:1005D0000A435A62184B5A6B174B8021C9010A43D0
:1005E0005A631A4B1A68194B6C210A431A60174B4D
:1005F00000225A60154B00229A60144BFA68DA60A8
:10060000124B1A68114B01210A431A60104B1A68E9
:100610000F4B802109050A431A6062B6C046C046E6
:10062000BD4604B080BDC046D40100202002002099
:100630006C02002070020020001002400048E80117
:10064000FFFDFFFFFFFFF3FFFFFFCFFF003801407B
:1006500000E100E080B500AF084BDB698022134069
:1006600001D000F025F8054BDB692022134001D0B2
:1006700000F006F8C046BD4680BDC04600380140C7
:1006800080B500AF074B5B6ADAB2074B1100180068
:1006900000F042F8031E02D0044B01221A60C0464B
:1006A000BD4680BD00380140D4010020700200200A
:1006B00080B500AF164B180000F08AF8031E08D072
:1006C000134B180000F059F803001A00114B9A62FE
:1006D0001BE0104B1A680F4B08218A431A600D4B20
:1006E000DB694022134005D00A4B1A6A094B4021AE
:1006F0000A431A62074BDB698022134005D0054B81
:100700009A69044B10210A439A61C046BD4680BDD8
:10071000200200200038014080B582B000AF786030
:100720000A00FB1C1A707B681A6C7B685B6C9A422F
:1007300005D17B689B6C002B01D0012319E072B6B8
:10074000C0467B681B6C591C7A6811647A68F91C76
:100750000978D1547B689B6C5A1C7B689A647B68CF
:100760001B6C402B02D17B6800221A6462B6C04623
:1007700000231800BD4602B080BD80B584B000AF34
:1007800078607B689B6C002B01D100231CE072B663
:10079000C0467B685B6C591C7A6851640F22BA189A
:1007A0007968CB5C13707B685B6C402B02D17B68F3
:1007B00000225A647B689B6C5A1E7B689A6462B6FE
:1007C000C0460F23FB181B781800BD4604B080BD3F
:1007D00080B582B000AF78607B689B6C1800BD4626
:1007E00002B080BD80B582B000AF78600B4B1B6853
:1007F000002B09D101235B420BE07B685A1C7A6015
:1008000019000120FFF72EFE7B681B78002BF4D126
:1008100000231800BD4602B080BDC0466C02002017
:1008200080B582B000AF0200FB1D1A70FB1D1900DD
:100830000120FFF717FEC046BD4602B080BD80B55F
:1008400000AF044B1800FFF798FF03001800BD46E7
:1008500080BDC046D4010020B0B584B000AF786040
:1008600039601E4B1B68002B02D101235B4231E033
:100870000023FB600B23FB1800221A7017E0C04610
:10088000174B1800FFF7A4FF031EF9D00B257C19A6
:10089000134B1800FFF771FF03002370FB685A1C0D
:1008A000FA601A007B689B187A1912781A703B68F4
:1008B000013BFA689A4204DA0B23FB181B780D2BD4
:1008C000DDD1FB68002B04DDFB687A68D3180022B9
:1008D0001A70FB681800BD4604B0B0BD6C02002061
:1008E000D401002090B583B000AFFC1DFFF7A7FF37
:1008F00003002370FB1D1B781800FFF791FFFB1D01
:100900001B781800BD4603B090BDB0B584B000AFF1
:1009100078603960214B1B68002B02D101235B42B8
:1009200037E00023FB600B23FB1800221A701DE048
:10093000C0461B4B1800FFF74BFF031EF9D00B25D9
:100940007C19174B1800FFF718FF030023702C00C9
:100950003B191B781800FFF763FFFB685A1CFA600D
:100960001A007B689B183A1912781A703B68013B91
:10097000FA689A4204DA0B23FB181B780D2BD7D1A7
:10098000FB68002B04DDFB687A68D31800221A701C
:10099000FB681800BD4604B0B0BDC0466C02002024
:1009A000D401002080B500AF244B5A6B234B80212B
:1009B00089000A435A63224B1A69214BC021090658
:1009C0000A431A611E4B1A681D4B01210A431A6023
:1009D0001B4B9A681A4B01210A439A60184BDA683C
:1009E00080231B02134005D1C046154B1B68012212
:1009F0001340FAD0124B9B680122134005D0104BD4
:100A00009A680F4B02210A439A600D4B9A680C4B6F
:100A1000802109060A439A60C046094B1A68802360
:100A20001B011340F9D0064B1A68054B80210901C0
:100A30000A431A60C046BD4680BDC0460010024051
:100A40000024014080B582B000AF7860164BDA68B0
:100A5000154B802109020A43DA60134B7A689A62C7
:100A6000114B5A69104B07210A435A617A68802357
:100A70009B029A4206D10D4B1A680C4B8021C90388
:100A80000A431A60084B9A68074B04210A439A608C
:100A9000C046054B1B6804221340FAD0024B1B6C66
:100AA0001800BD4602B080BD002401400827014067
:100AB00080B582B000AF7860FEE780B582B000AF4D
:100AC000786001235B421800BD4602B080BD80B54E
:100AD00084B000AFF860B9607A60044B0C221A60F1
:100AE00001235B421800BD4604B080BD8002002097
:100AF00080B500AF034B0B221A6001235B42180044
:100B0000BD4680BD8002002080B582B000AF786015
:100B100039603B68802292015A6000231800BD466C
:100B200002B080BD80B500AF01231800BD4680BD76
:100B300080B582B000AF78603960044B16221A602D
:100B400001235B421800BD4602B080BD8002002038
:100B500080B582B000AF78603960044B1F221A6004
:100B600001235B421800BD4602B080BD8002002018
:100B700080B584B000AFF860B9607A6000231800D7
:100B8000BD4604B080BD80B582B000AF78603960EA
:100B90003B68802292015A6000231800BD4602B0D3
:100BA00080BD80B582B000AF786001235B42180041
:100BB000BD4602B080BD80B582B000AF7860044B06
:100BC00002221A6001235B421800BD4602B080BDBC
:100BD0008002002080B582B000AF7860044B0A220A
:100BE0001A6001235B421800BD4602B080BDC046BA
:100BF0008002002080B582B000AF78607B68022B55
:100C000001D8012303E0044B09221A6000231800D5
:100C1000BD4602B080BDC0468002002080B586B0CF
:100C200000AF7860124B7B61124B3B61124B1B682B
:100C3000002B02D1104B7A691A600F4B1B68FB60C6
:100C40000D4B1A687B68D3183A699A4205D20B4B50
:100C50000C221A6001235B4206E0074B1A687B688E
:100C6000D218054B1A60FB681800BD4606B080BD5F
:100C700090020020001000207C0200208002002052
:100C800080B588B000AFF860B9607A600023BB61BE
:100C9000FB68002B22D10023FB611AE0FFF7CFFD98
:100CA00003001A0017217B181A70BB685A1CBA601F
:100CB0007A181278D2B21A70BB690133BB617B1803
:100CC0001B78DBB20A2B01D1BB690EE0FB69013353
:100CD000FB61FA697B689A42E0DB05E0054B09227B
:100CE0001A6001235B4200E0BB691800BD4608B0F2
:100CF00080BDC0468002002080B586B000AFF8609D
:100D0000B9607A60FB68013B012B11D800237B613D
:100D100009E0BB685A1CBA601B781800FFF780FD19
:100D20007B6901337B617A697B689A42F1DB05E07C
:100D3000054B09221A6001235B4200E07B68180022
:100D4000BD4606B080BDC0468002002003460B436E
:100D50007FD4002243088B4274D303098B425FD3B4
:100D6000030A8B4244D3030B8B4228D3030C8B42E0
:100D70000DD3FF22090212BA030C8B4202D31212C6
:100D8000090265D0030B8B4219D300E0090AC30B9B
:100D90008B4201D3CB03C01A5241830B8B4201D348
:100DA0008B03C01A5241430B8B4201D34B03C01A31
:100DB0005241030B8B4201D30B03C01A5241C30AA9
:100DC0008B4201D3CB02C01A5241830A8B4201D31A
:100DD0008B02C01A5241430A8B4201D34B02C01A04
:100DE0005241030A8B4201D30B02C01A5241CDD2A9
:100DF000C3098B4201D3CB01C01A524183098B42F4
:100E000001D38B01C01A524143098B4201D34B01DC
:100E1000C01A524103098B4201D30B01C01A52413F
:100E2000C3088B4201D3CB00C01A524183088B42C6
:100E300001D38B00C01A524143088B4201D34B00AF
:100E4000C01A5241411A00D2014652411046704721
:100E50005DE0CA0F00D04942031000D34042534026
:100E600000229C4603098B422DD3030A8B4212D3E6
:100E7000FC22890112BA030A8B420CD38901921118
:100E80008B4208D3890192118B4204D389013AD055
:100E9000921100E08909C3098B4201D3CB01C01A2A
:100EA000524183098B4201D38B01C01A524143093D
:100EB0008B4201D34B01C01A524103098B4201D32B
:100EC0000B01C01A5241C3088B4201D3CB00C01A98
:100ED000524183088B4201D38B00C01A5241D9D2B0
:100EE00043088B4201D34B00C01A5241411A00D231
:100EF0000146634652415B10104601D34042002B2D
:100F000000D54942704763465B1000D3404201B5AB
:100F1000002000F005F802BD0029F8D016E7704760
:100F20007047C046F0B5DE46454657464E46E0B5EA
:100F300087B0009201930B031B0B9B46CA0F4B001B
:100F4000040080465B0D029200D16AE1D44A9342CC
:100F500000D18CE15946420FC9000A43802109049F
:100F60001143C2009046CF4A894692469A440023D4
:100F700000240393009E019F3B031B0B9B467B00B9
:100F800030005B0DFD0F002B00D128E1C44A9342D5
:100F900000D177E15946720FC9000A438021090444
:100FA00011438B46BF49F2008C4651466344CB1A2D
:100FB0009A460023029E6E400F2C27D8BA49A400FF
:100FC00009598F46CB464246029E039B022B16D000
:100FD000032B00D1A9E2012B00D0DFE00022002387
:100FE000002490461B052343F6073343404619006F
:100FF00007B0F0BCBB46B246A946A046F0BD0022F1
:1010000000249046A64BEDE72E00DFE7CB4500D24B
:10101000D8E100D1D3E101235B429C4644464846D7
:101020000027E2445B46150E1B021D43190C2B04DE
:10103000120200951D0C91460291039500F0DCFE12
:1010400002006A430B04210C804619438A4209D9E5
:10105000009D0123AC465B4261449C46E0448D42C6
:1010600000D8FFE1881A029900F0C6FE039A240412
:1010700042430904240C03000C43A24206D9009900
:10108000013B8C466444A14200D8E5E1A01A4246E7
:1010900012041A4393464B4659461B0C1D000493F9
:1010A0000B0449460904090C0C001B0C5C43120C90
:1010B0006B43884651436A43250CAC465B18634436
:1010C000994203D9802149028C466244190C2404B8
:1010D0001B04240C8A181C19904202D316D1A74273
:1010E00014D25B46009D013B4F4405934F459B4105
:1010F000AC465B426344C018854200D3A5E18242FE
:1011000000D9F9E100D1F4E1059B9B463C1BA742C5
:10111000BF41009D801A7F42C01B854200D1D4E1AF
:10112000029900F069FE039A0B044243210C070068
:1011300019438A4200D97CE1881A029900F05CFECA
:10114000039A240442430904240C03000C43A242E2
:1011500000D961E14146A41A3A041A43049D1304DC
:101160001B0C594347466B439C46100C47430B0CE2
:10117000BC44634468439F4203D980256D02AC465A
:1011800060441F0C09041B04090C3F185B18BC4287
:1011900000D206E100D101E101231A43434B53443D
:1011A000002B00DCB2E0510700D09BE15946C90199
:1011B00006D559463E4B194080238B46DB005344ED
:1011C0003C498B4200DD1AE75946D20849071143D2
:1011D0005A465B0554028846240B5B0D02E75A46CB
:1011E000009B1A4300D182E05B46002B00D104E152
:1011F000584600F005FE020003000B3A1D27009E32
:10120000BA1A19005846D6400839884032000243BD
:101210009346009A8A40284953448A469A440023B8
:10122000C8E65B46034399465AD05B46002B00D183
:10123000D1E0584600F0E4FD0B235B429C460200DF
:10124000844466461D239B1B260011005846DE4041
:101250000839884033000343994623008B40984661
:10126000164B00249B1A9A460023039382E65A46A3
:10127000024391462ED100229A460223904608242A
:10128000039377E65A46009B1A431BD102231C4363
:101290000B4B9C460023E2449B4602338AE6C04641
:1012A000FF07000001FCFFFFC8730008FF030000F8
:1012B000FFFFFFFEFE070000F30300000DFCFFFF31
:1012C00001F8FFFF03231C439F4B32009C4603237E
:1012D000E2446FE69A460323D9460C24039349E679
:1012E000002398469A4601330424039342E60123DF
:1012F0001C4300239B4601335CE600238024984670
:101300000026924B24036DE6012252420121C91AA4
:10131000382900DD62E61F2900DCABE01F204042D7
:10132000C31A5846D8400300202904D0584688499B
:10133000514488400243511E8A411A430723190031
:101340000024114013420CD00F231340042B00D172
:10135000F8E0111D91429B410A005B4259075B0274
:101360001C0BD2080A43904600233BE680244B46E0
:101370002403234209D05B46234206D11C432403A5
:101380002E009046714B240B2CE680244B46240300
:101390001C432403029E6D4B240B23E6002B00D13B
:1013A000FCE60098511E84466444844200D284E0E6
:1013B000BC4200D2ADE000D1C0E00A00ECE64245FC
:1013C00000D928E64B46DC07580843465B081C4317
:1013D0004346DF0726E600F013FD15239C468444B0
:1013E0000200634620321C2B00DC2AE72300083869
:1013F000834099460023984632E700F001FD020041
:101400000300153220331C2A00DCF7E60099083867
:10141000814000228B46FEE60099013B8C466444E5
:10142000A14200D996E6A24200D893E6831E644406
:1014300090E6AC466144013F8D4200D97CE68A4289
:1014400000D879E6871E614476E6854200D05BE6E7
:10145000B94500D958E652E6A24200D816E6831EE6
:10146000644413E68A4200D8FCE5AC46831E9846E5
:101470006144F7E537481400504482405B4617004A
:101480008340CC407A1E974123433B431A005B467E
:10149000CB40510709D00F211140042905D0111D5F
:1014A0009142924152429B180A00190200D455E71A
:1014B000002201230024904694E50A00BC4200D09B
:1014C0006AE64B4500D067E668E6234B5344002BA1
:1014D00000DC19E7012149420A1D8A42894149423B
:1014E0008B4463E60F211140042900D15EE6110010
:1014F000F2E7BC4200D807E602235B429C46009913
:101500004F444F459B41E3448C465B426344C018C3
:10151000FCE54946009D480048458941AC464942A2
:1015200061448146023A6418C8E780245B4624037C
:101530001C4324039046054B240B53E59945E8D3FF
:101540000A00BEE7002309E701F8FFFFFF070000DC
:101550003E0400001E040000FF030000F0B55746E3
:10156000DE464E464546E0B51F000B031B0B16003A
:101570009A46CA0F4B000400934687B05B0D00D11A
:10158000D2E0B94A934200D1F5E05146420FC9007A
:101590000A43802109041143C2009146B34A8A4696
:1015A0009D180023984602933C037B00FA0F3000FD
:1015B000240B5B0D009200D193E0AB4A934231D0F3
:1015C000E400720F2243802424041443A74AF0004D
:1015D000944663445B195A1C0192424600250A2A2C
:1015E0003FDC5A4600994A4093464246022A2FDC85
:1015F000013A012A00D945E1022D00D1C7E0012DB1
:101600003AD100230024002210005A461B05234330
:10161000D2071343190007B0F0BCBB46B246A94637
:10162000A046F0BD264300D1BBE003224146114352
:101630005A46884600998C4B4A4080210901691816
:1016400001914146EB180A2900DD31E2934603255A
:10165000424601279740A6213A00C9000A400F429E
:1016600031D0029D022D00D133E2032D00D1D0E113
:1016700054464846012DC4D0019A7D4B944663449C
:10168000002B00DCC0E0420709D00F220240042AF0
:1016900005D0021D82428041404224181000E20120
:1016A00006D5744B019A1C4080239446DB006344AA
:1016B000714A93426BDC6207C00864025B05024317
:1016C000240B5B0DA0E7902189000F4263D1882293
:1016D0003A4200D1D6E0009BA2469B468146029545
:1016E000BFE72300334300D17FE0002C00D1ABE102
:1016F000200000F085FB020003000B3A1D201900BA
:10170000821A30000839D0408C40044330008840B1
:101710005A4AEB1A944663445A1C019242460025E9
:101720000A2A00DC5DE79CE753460343994654D000
:101730005346002B00D175E1504600F061FB0B23AE
:101740005B429C46020084441100504608398840A0
:101750001D23804660461B1A2000D84003004046E7
:1017600003439A4623008B4099460023434D9846F5
:10177000AD1A029318E752460243914626D1002241
:101780001D00022392460832904602930CE7002483
:101790000022354B38E7002380249B462403324B3C
:1017A00032E7022342461A4380231B01EB1890467E
:1017B00001930A2A00DD54E75A46002000992A4B7B
:1017C0004A40EB189346040002250EE70C221D0048
:1017D0000323814690460293E6E600239A460433AB
:1017E0009846033B00250293DEE6424601331A4346
:1017F0002B0090465A1C01924246002400200125ED
:101800000A2A00DCEDE62CE70122D21A382A00DD94
:10181000F7E61F2A00DC28E11F214942CB1A2100EC
:10182000D9400B00202A05D0154A019E94466644F3
:10183000B4402043421E904118430723190000245E
:10184000014003420CD00F230340042B00D13EE1A2
:10185000031D8342A4411800644261076402240B03
:10186000C20800230A43CFE6FF07000001FCFFFF88
:10187000FF030000FFFFFFFEFE0700000DFCFFFF5F
:101880003E04000049464A460904090C0E00150CA6
:10189000020C0004000C4643B44606006E43B046FA
:1018A00016000F006E43009202963200009E7743AE
:1018B0006646360CB14647444F44B84505D9160034
:1018C000802252029046464402963E0C039666469B
:1018D00036043F04360CB4463E0066440496260C9B
:1018E0002404240CB44626006E43B04666460F001E
:1018F0007143414489466743390C494475438845DF
:1019000003D980225202904645440E0CB04645440D
:101910000595039D3F04A8463F0C0904C919884456
:101920004546039555462F0C2D042D0C2E0046439D
:10193000784381463800B046360CB246009A504390
:101940006A434A445244914503D980267602B146FF
:101950004844160CB14646463604360CB046664638
:101960007E43120448449044B1462A0066466243CE
:1019700075437C43170C2D197F19BC4203D9802471
:101980006402A446E144029C039DA446059E65446E
:101990008D428941B44612043C04120CA2186244E0
:1019A000494254184544A4464545A44182466442F0
:1019B000A046B24292418C458941E244D04449421A
:1019C00052420A43A045A4418245894164424942AA
:1019D0000C4341463F0CD2191219CC0D04996802F0
:1019E0000843411E884141464A44ED0D52022843B6
:1019F000490214430843D20135D50122430802406D
:101A00001343E0071843640836E6009BA2469B4652
:101A100081468024534624031C4324034A462F4B0B
:101A2000240BF1E500F0ECF915239C4684440200F8
:101A3000634620321C2B00DC86E6002399462300F7
:101A4000083883409A4690E600F0DAF90200030075
:101A5000153220331C2A00DC50E602003400083A1C
:101A60000020944054E6019306E61D4B21009C465D
:101A70000300019ED3406644B14019430300B340C4
:101A8000581E834119430800D4404B0709D00F2347
:101A90000B40042B05D00B1D8B4280414042241883
:101AA0001800230200D4D8E6012300240022ABE56D
:101AB0000F29AAD1802352461B031A42A9D01C42E7
:101AC000A7D11C43009B02009B46044B9CE50024CD
:101AD000C3E60024014B220096E5C046FF07000044
:101AE0001E04000070B5002816D0C317C5185D404D
:101AF000C40F280000F084F9114B1B1A0A2816DCC9
:101B000002002E00153296400B22121AD5405B05BA
:101B10002D032D0B5B0D03E0002400230025002680
:101B20001B052B43E40723433000190070BD0B381D
:101B300085405B052D0300262D0B5B0DF0E7C046AD
:101B40001E04000070B542024300C40FFE201B0EAD
:101B5000591C550A08420CD0E02189008C466D07BB
:101B6000120B63441B051343E407234328001900A9
:101B700070BD002B14D1002D1BD0280000F040F9BF
:101B80000A281CDC0B232A001B1ADA400300153339
:101B90009D400E4B12031B1A5B05120B5B0DE1E718
:101BA000002D09D0130B802212031A436D07084B36
:101BB000D8E700230022D5E70022054BD2E7030037
:101BC0002A000B3B9A400025E3E7C046890300004A
:101BD000FF070000F0B54B000F035B0D3F4C450FB6
:101BE00083B07F0A5E1C2F4300900191CA0FC5008D
:101BF00026420BD03A495C18FE2C13DDFF2000234F
:101C0000C0051843D207104303B0F0BD002B02D12A
:101C100000200023F4E73D43F0D08023DB03FF20C6
:101C20003B43EDE7002C14DD009BFF009B01581E99
:101C30008341690F3B430B43590741D00F211940A2
:101C4000042947D00433590142D501340023E0B2BE
:101C5000D6E721001731DBDB80211E200904394340
:101C6000001B1F281BDD02267642341B0E00E640B7
:101C70003400202804D01B488446634499400D4317
:101C80006B1E9D4125436B071DD00F210024294069
:101C9000EB0804291BD15B025B0AE0B2B0E7124CEF
:101CA0001C192B00A540C340A140681E8541294353
:101CB0000B4300245907C1D19B0100205B0A9FE719
:101CC000DB08E0B29CE7AD0100206B0A98E72B1D12
:101CD000DB08E0E79B015B0AE0B291E7FE0700004A
:101CE00080FCFFFFA2FCFFFF82FCFFFF00224308F5
:101CF0008B4274D303098B425FD3030A8B4244D3D4
:101D0000030B8B4228D3030C8B420DD3FF22090215
:101D100012BA030C8B4202D31212090265D0030BD4
:101D20008B4219D300E0090AC30B8B4201D3CB03CA
:101D3000C01A5241830B8B4201D38B03C01A52410C
:101D4000430B8B4201D34B03C01A5241030B8B420E
:101D500001D30B03C01A5241C30A8B4201D3CB02F9
:101D6000C01A5241830A8B4201D38B02C01A5241DE
:101D7000430A8B4201D34B02C01A5241030A8B42E1
:101D800001D30B02C01A5241CDD2C3098B4201D3F9
:101D9000CB01C01A524183098B4201D38B01C01A77
:101DA000524143098B4201D34B01C01A52410309EE
:101DB0008B4201D30B01C01A5241C3088B4201D39D
:101DC000CB00C01A524183088B4201D38B00C01A4A
:101DD000524143088B4201D34B00C01A5241411A71
:101DE00000D20146524110467047FFE701B500207E
:101DF000FFF796F802BDC0460029F7D076E7704796
:101E00001C2101231B04984201D3000C10391B0A2A
:101E1000984201D3000A08391B09984201D30009EE
:101E2000043902A2105C40187047C0460403020245
:101E3000010101010000000000000000F0B5C646ED
:101E400000B58B8980460C001A0743D44A68002AE3
:101E500061DDE56A002D39D0424641461668002210
:101E60000A60DA045BD4012300224046216AA847B5
:101E7000431C5FD0A389E56A5B0706D56368C01A77
:101E8000636B002B01D0236CC01A00230200216A6F
:101E90004046A847431C44D143461B68002B40D012
:101EA0001D2B01D0162B4DD10023636023692360C5
:101EB0004346616B1E60002908D0230044339942D9
:101EC00002D0404600F086FA00236363002080BC05
:101ED000B846F0BD0E69002EF8D00A680E60951B5A
:101EE00000229B0700D14A69A260002D04DCEDE7C7
:101EF00036182D1A002DE9DD2B0032004046216AEC
:101F0000A76AB8470028F3DC40220120A389404299
:101F10001343A381DBE70A6C002A9ADCD6E7606DE5
:101F2000AAE70023636023692360A389DB04BFD58C
:101F30006065BDE743461B68002B9BD01D2B06D078
:101F4000162B04D04022A3891343A381BFE7434645
:101F500000201E60BBE7C0460B6970B505000C0091
:101F6000002B16D0002802D08369002B15D00E4B11
:101F70009C4210D00D4B9C4212D00D4B9C4211D074
:101F80000C22A35E002B04D021002800FFF756FF8F
:101F900000E0002070BD6C68F2E700F05BF9E6E756
:101FA000AC68EDE7EC68EBE74874000828740008BB
:101FB0000874000870B5041E29D00369002B1DD0D9
:101FC000184B1D68002D02D0AB69002B18D0164BA2
:101FD0009C420ED0154B9C421FD0154B9C421ED0EC
:101FE0000C22A35E002B09D021002800FFF726FF5A
:101FF00070BD6C680C22A35E002BF5D10020F7E7C2
:10200000280000F027F9084B9C42E3D1F1E7094B87
:102010000949186800F066F9EAE7AC68E0E7EC689F
:10202000DEE7C04604000020487400082874000859
:102030000874000868740008591F000800207047E1
:1020400010B5024900F04EF910BDC046591F0008F6
:102050000020704770B568254A1E55430E002900C0
:10206000743100F017FA041E09D000232A0003601F
:1020700046600C300021A060683200F057F9200063
:1020800070BDC046F0B5C646274B07001E6800B5B8
:10209000B369002B2AD00423984648367368B46885
:1020A000013B03D51DE06834013B1AD30C22A55E29
:1020B000002DF8D120001D4B082200216566256007
:1020C0006560A560E36025616561A5615C3000F035
:1020D0002DF96563A563A564E564200080BCB8465E
:1020E000F0BD3568002D05D02E00D7E7300000F098
:1020F0001FF8D0E7D6213800490000F0CBF9041EC4
:102100000DD04346D0220560250043600C300021ED
:10211000A060520000F00AF934602E00BEE70C23E4
:1021200030603B60D9E7C046687400080100FFFFDB
:10213000F0B5D6464F464646384BC0B583620023BD
:102140008364C3640365364B82B01B68050001934A
:10215000984260D02800FFF795FF68602800FFF7DD
:1021600091FFA8602800FFF78DFF6E680024E860EB
:1021700004233000746634607460B460F3603461CA
:102180007461B461082200215C3000F0CFF8254B67
:10219000254F9A467362254B37639946B362244BA9
:1021A0003662F362AE6898463000224B7466346043
:1021B0007460B460F36034617461B461082200211A
:1021C0005C3000F0B3F8534673624B46B36243464B
:1021D0003763F3623662EE68174B3000F360082213
:1021E0000021746634607460B46034617461B461F9
:1021F0005C3000F09BF8534673624B46B362434633
:10220000F362012336623763AB6102B0E0BCBA46C9
:10221000B146A846F0BD012383619BE74120000839
:102220006874000871320008093300089D32000804
:10223000DD320008090001001200020010B5034B56
:102240000349186800F04EF810BDC04668740008D5
:10225000591F0008836910B5002B01D1FFF768FFF3
:1022600010BDC0467047C0467047C0467047C04664
:102270007047C04610B5034B0349186800F012F8C8
:1022800010BDC046040000203D20000810B5034BDF
:102290000349186800F006F810BDC046040000208D
:1022A00051200008F0B5C646483088460700002691
:1022B00000B57B68BC685D1E0CD4A389012B06D9D0
:1022C0000E22A35E013302D02000C04706436834CB
:1022D000013DF2D23F68002FEBD1300080BCB84600
:1022E000F0BDC046F8B54746CE4680B507008046EB
:1022F0008946002648377B68BC685D1E0DD4A389DB
:10230000012B07D90E22A35E013303D021004046E2
:10231000C84706436834013DF1D23F68002FEAD137
:102320003000C0BCB946B046F8BDC046F0B50500A7
:10233000830749D0541E002A45D003000326CAB2A1
:1023400002E00135013C3ED301332A703342F8D11B
:10235000032C30D9FF220A40150215432A041543E5
:102360000F2C34D92700103F3F093E01B4461E0010
:102370001A0010366644156055609560D5601032BD
:10238000B242F8D101373F01DB190F270C22274059
:1023900022403C00002A0ED03E1FB608B400A446DE
:1023A0001A001C1D644420C2A242FCD10324013641
:1023B000B6009B193C40002C05D0C9B21C191970FD
:1023C00001339C42FBD1F0BD03001400C0E727009D
:1023D000E2E7C04670B50500002915D00C1F236840
:1023E000002B23DB280002F0C1FA294A1368002BD6
:1023F00005D0A3420BD92168601883422DD06360B9
:102400002800146002F0B4FA70BDA34210D81A007C
:102410005B68002BF9D1106811188C4219D030D3A9
:1024200063605460280002F0A3FAEDE7E418D9E7EE
:1024300011685018A04217D023D821686018834231
:10244000EED118685B688446614421606360546023
:10245000E8E7236818181060E4E718685B688446AA
:10246000614421606360CBE720680918501811604F
:102470008342D7D118685B68844661441160536019
:10248000D0E70C2328002B6002F072FABCE7C046AC
:1024900084020020F8B50323CD1C9D4308350600B7
:1024A0000C2D27D20C25A94226D8300002F05EFA66
:1024B000284F3A68002A27D0140004E063682200FD
:1024C000002B21D01C0023685B1BF7D40B2B17D8E3
:1024D0006368944235D05360300002F049FA20001E
:1024E00007220B30231D9043C21A984207D01B1AB3
:1024F000A35004E0002DD6DA0C2300203360F8BD91
:102500002360E4182560E7E77B68002B1BD02900D7
:10251000300000F09BFE431C0CD00323C41C9C43E2
:10252000A04205D0211A300000F090FE431C01D0DB
:102530002560D1E70C233000336002F019FA002047
:10254000DDE73B60C8E70021300000F07FFE7860E7
:10255000DDE7C04684020020F0B5CE4600B588B065
:102560001E0017000023129C002E04DA80210906A9
:1025700073181E002D23109A1370662C23D0462C3E
:1025800021D0202322009A43452A48D007AB049348
:1025900006AB0393119B3A0002930E9B0193022317
:1025A0000093330001F0AAF80500672C49D10F9B76
:1025B000DB0748D4079B2800139A5B1B136008B005
:1025C00080BCB946F0BD07AB049306AB0393119BE7
:1025D0003A0002930E9B019303230093330001F012
:1025E0008DF80E9B050099462B788144302B2DD019
:1025F000119B1C684C44002300223800310003F07A
:10260000BDFD23000028D6D1079B9C42D3D93021A1
:102610005A1C07921970079BA342F9D3CBE70E9B74
:102620003A0001330E9307AB049306AB0393119B5F
:1026300002930E9B019302230093330001F05EF896
:102640000500472CB3D00E9BEC18D4E700220023E2
:102650003800310003F092FD0028C9D101240E9BFF
:10266000E41A119B1C60C5E7F0B5D6464F464646B6
:10267000C0B582460C0082B0027000293CDB022308
:10268000534499462B2352465370092C26DD0723C9
:102690006B4498461F0020000A21FEF73DFC3D00D8
:1026A0003031013F200039700A21FEF74FFB260030
:1026B0000400632EEFDC3034AB1EE4B21C704345E3
:1026C00020D24A4600E01C780133147001324345A1
:1026D000F9D109206844401B484405E04A463023AC
:1026E00030341370901C54705346C01A02B0E0BCD2
:1026F000BA46B146A846F0BD0223534499464C421F
:102700002D23C0E74846EFE7F0B5DE4657464E4674
:102710004546E0B591B01F001A9B0C009846160084
:10272000050001F0E1FF036818000A9300F0F2FDD4
:1027300000230B900E93237E07229946236841467F
:10274000099343461B68073393431A0008320A6013
:102750001A685B689046A264E3649B465B005B0872
:102760009A46012240465146BB4B524204F03EFD80
:10277000002809D1012240465146B74B524203F08E
:102780000DFD002800D1A9E042465B46404659466F
:1027900004F02CFD002800D0A8E263685A1C34D055
:1027A0004A46672A78D0472A76D08021099AC900FC
:1027B00011430022216006920EAA05924A4604A8FF
:1027C00004920DAA8446039223226244029200934B
:1027D00092465B46424628000191FFF7BDFE8046C7
:1027E0004B460D99652B3ED820004A4601395030A2
:1027F0000D91FFF739FF0E9A834613182361012AC2
:1028000000DCC6E1013323613EE00621073363604B
:102810008023099ADB0013430022236006920EAA4C
:1028200005924A4604A804920DAA844603922322E4
:1028300062440292019392465B4642462800009110
:10284000FFF78AFE20234A4680469A43472AC7D18B
:102850000D99CB1C00DB98E04B46023BDBB299465E
:102860004B46652BC0D9662B00D198E00E9B8B425E
:1028700000DCA0E00122002901DC0132521A9B1881
:10288000236100239B46A16553461B78002B3DD056
:1028900043232D22E25439E0002B00D193E0802124
:1028A000099AC90011430022216006920EAA0592DE
:1028B0004A4604A804920DAA844603922322624445
:1028C00002920191009392465B4642462800FFF730
:1028D00043FE0D998046CB1CBEDB56E00022002350
:1028E0004046594603F050FC002802D043232D22D5
:1028F000E2544B46472B4FD9584B98460323099A2D
:10290000236101339A4300239B4622603300210058
:10291000280000970FAA00F00BFA431C2CD0236864
:102920005A0559D42369424631002800B847431C50
:1029300022D02368E0689B0749D50F9BC21A002A62
:1029400046DD19239946002398463B00A1443700F1
:102950002E004D46A1464446984606E04B46D868B0
:102960000F9B0134C21AA24232DD01232A00390032
:102970003000C047431CF1D10120404211B0F0BCEF
:10298000BB46B246A946A046F0BD6368994200DD49
:1029900062E76723994669E7314B9846AEE700291D
:1029A00000DCFBE063682161002B00D12FE10133E3
:1029B0005B18236165E723682161DB0700D460E7CA
:1029C0004B1C23615DE701230121636020E70F9B1E
:1029D0009842D3DA1800D1E74A46652A44D9A06C58
:1029E000E16C0022002303F0C9FB002800D189E03C
:1029F0000123310028001B4AB847431CBCD00D9B63
:102A00000E9A934202DB2368DA0793D50B9B3100C1
:102A100028000A9AB847431CAED01A2399460023CF
:102A200098460E9BA144012B00DC82E73B00370057
:102A30002E004D46A1464446984605E00E9B0134C3
:102A4000013BA34200DCF9E001232A0039003000F9
:102A5000C047431CF2D18FE7FFFFEF7F707400087F
:102A60006C7400087C7400080E9A012A00DC85E072
:102A70000123424631002800B847431C00D17BE7C0
:102A80000B9B310028000A9AB847431C00D173E71A
:102A9000A06CE16C0022002303F070FB00281DD025
:102AA0001A239946002398460E9BA144012B1FDD53
:102AB0003B0037002E004D46A1464446984605E0AF
:102AC0000E9B0134013BA34200DCB2E001232A004B
:102AD00039003000C047431CF2D14DE742460E9BFF
:102AE0003100013B28000132B847431C00D143E7C5
:102AF00022005B46310028005032B847431C00D00A
:102B000017E739E70D9B002B4EDDA36D9A460E9B10
:102B10009946534500DD7FE04B46002B08DD4246D9
:102B200031002800B847431C00D125E7A36D9A4621
:102B30004B46DB434A46DB171A40534611009B1AAB
:102B40001A2293460022A344002B00DC81E0A24617
:102B5000B946140037002E005D468B4606E053460A
:102B60005A469B6D01349A1AA2426DDD01232A0058
:102B700039003000C847431CF1D1FDE6DB0700D522
:102B800076E70123424631002800B847431CAFD105
:102B9000F2E62268D20700D476E633E66368002BBB
:102BA0003CD09A1C22616CE60123310028005D4A6A
:102BB000B847431C00D1DFE60D9B0E9A134333D078
:102BC0000B9B310028000A9AB847431C00D1D3E67A
:102BD0001A239A46002399460D9BA244002B00DB42
:102BE00094E03B0037002E005546A2464C469946DD
:102BF00005E00D9B01345B42A34200DC82E001232F
:102C00002A0039003000C847431CF2D1B4E62268DC
:102C1000D20700D435E6CAE6D1467DE72068012216
:102C2000C007BFD59A1CBDE72368DA0700D481E648
:102C3000C6E735004C463E00474659E74C4635004E
:102C400023683E00474675E6350054463E009A46E6
:102C50004F460D9A0E9B9A4202DB2168C90709D59F
:102C60000B9B310028000A9AB847431C00D183E629
:102C70000E9B0D9A5146591A9B1A99468B4200DDBC
:102C800089464A46002A0BDD42464B463100280061
:102C90005244B847431C00D16EE60E9B0D9A9B1A16
:102CA0004A46D2434946D21711401A2292468946D3
:102CB00000225B1AA244002B00DC3AE63B003700FE
:102CC00098462E005546A246140007E00D9A0E9B2A
:102CD00001349B1A4A469B1AA3421CDD01232A0099
:102CE00039003000C047431CF0D145E65B46002B5D
:102CF00002DA43232D22E2544B46472B08D90A4BD4
:102D00009846FBE5350054463E004F460E9B0AE6CA
:102D1000064B9846F2E55446350023683E00474688
:102D200008E6C0467C7400087874000874740008D3
:102D3000F8B557464E46DE464546E0B51F000A9BAD
:102D4000924699460A698B6806000C009A4200DA9E
:102D50001A0053461A604323E35C002B02D051460D
:102D600001320A6021688A065ED553465246062023
:102D70001B680233136021680A00084209D1E26827
:102D8000D31A192293460022A34490460A00002B2E
:102D900042DC4323E35C591E8B4192060AD5302066
:102DA000E1184331087045215A1C615CA218433276
:102DB000023311702200390030004332C847431CEF
:102DC00019D0062322681340042B33D0A36822694C
:102DD00093423DDD002188469B1A984400251A3411
:102DE00002E00135454533DA012322003900300085
:102DF000C847431CF5D101204042F0BCBB46B24657
:102E0000A946A046F8BD01239C465346E2681B68CC
:102E1000E044D51A454520DD01235A4639003000EB
:102E2000C847431CEFD1E6E706220A4212D05A1ED9
:102E30009341BFE753461968E3682269591ACB43A7
:102E4000DB170B409846A3689342C5DC0029C5DC1C
:102E50000020D2E753461B6891E743232268E35CD6
:102E6000591E8B4192069AD4A4E7C046F0B54E464F
:102E7000994643239C4657464546DE468C44634666
:102E8000E0B587B003930C00097E90460700109AC6
:102E9000002914D00B00583BDBB2202B4BD89248B2
:102EA0009B00C3589F462368190602D45B0600D5D1
:102EB00001E11368191D11601B6862691A60002323
:102EC000039D23614B46210000933800434605AA29
:102ED000FFF72EFF431C1FD023692A00414638000C
:102EE000C847431C18D023689B071ED5E368059884
:102EF0001A1A002A1BDD26000025193605E0E368B2
:102F0000059801351A1AAA4211DD01233200414603
:102F10003800C847431CF2D10120404207B0F0BC42
:102F2000BB46B246A946A046F0BDE3680598984264
:102F3000F4DA1800F2E742232500E154413B423520
:102F4000236143230022E254BCE72368190602D41C
:102F5000590600D5BBE01168081D10600A6816000C
:102F6000002A75DB614B9B460A239A464DE0236895
:102F7000180602D45B0600D5A4E01368181D106083
:102F80001E685A4B9B466F2900D1A7E00A239A4638
:102F900038E013682500191D11601A684223E254B5
:102FA000413B42352361CCE71368191D11601D6850
:102FB00000212800626801F04DFC002800D190E05B
:102FC000401B60602061BCE7202321680B43236025
:102FD00045217820605446498B46190631D459065C
:102FE0002FD51168081D0E881060DA0702D520223F
:102FF0001343236010239A46002E03D12268103316
:103000009A43226043230022E2546368A360002BAA
:1030100048DB0422216891432160002E27D1002B38
:1030200042D1039D5346082B31D0039B5B1B236188
:1030300048E745235821E15423682C498B4619065B
:10304000CDD51168081D10600E68CEE72368BFE774
:1030500043222D21A15462687642A260002A02DB3D
:10306000042293432360214B9B460A239A46039DE7
:1030700030005146FEF7C0FE5B465B5C013D2B70A5
:10308000330006005345F3D25346082BCDD12368B5
:10309000DB07CAD5636822699342C6DC3023013D51
:1030A0002B70C2E7002EE2D15B4625001A7842233E
:1030B0004235E254B6E713686169181D10601B6859
:1030C0001980FCE61368181D1E88106059E7116806
:1030D000081D106000228E5E320041E708239A46E8
:1030E00090E7606820612CE7A874000880740008ED
:1030F000947400080EB410B5040083B0002802D008
:103100008369002B0BD006AB2000059AA1680193C0
:1031100002F018FA03B010BC08BC03B01847FFF760
:1031200099F8F0E70FB410B50B4B82B01C68002C77
:1031300002D0A369002B0BD005AB2000049AA16834
:10314000019302F0FFF902B010BC08BC04B01847AC
:103150002000FFF77FF8EFE70400002070B50600BD
:103160000D00002837D08369002B32D084682F4BA4
:103170009C423AD02E4B9C4244D02E4B9C4252D083
:10318000A3891B0735D52369002B32D02978002964
:1031900011D0A3680135013BA360002B04DAA269BA
:1031A000934231DB0A292FD023685A1C2260197000
:1031B00029780029EDD1A368013BA360002B2CDA0C
:1031C00022000A21300000F0D3F8431C17D00A2057
:1031D00070BDFFF73FF8B369B468002BC7D130006A
:1031E000FFF738F8114B9C42C4D17468A3891B07C0
:1031F000C9D42100300000F045F90028C6D00120D4
:103200004042E5E7B468BBE72200300000F0B0F8C8
:10321000431CBBD101204042DAE723685A1C2260DC
:103220000A221A70D3E7F468AAE7C0464874000877
:10323000287400080874000810B5034B01001868D2
:10324000FFF78CFF10BDC04604000020002370B5BE
:10325000064D040008002B60FDF7E0FC431C00D085
:1032600070BD2B68002BFBD02360F9E780020020A3
:1032700070B50C000E25495F02F0CEFA002803DB82
:10328000636D1B18636570BDA389024A1340A38157
:10329000F9E7C046FFEFFFFF00207047F8B50C00CC
:1032A0001F000C23C95E05001600CB050AD40A4B8B
:1032B000320019402800A1810E23E15E3B0000F09E
:1032C000CDF8F8BD0E23E15E0022022301F014FACE
:1032D0000C23E15EEBE7C046FFEFFFFF70B50C008B
:1032E0000E25495F01F008FA431C06D08023A2890D
:1032F0005B011343A381606570BDA389014A13403C
:10330000A381F9E7FFEFFFFF10B50E23C95E00F0C0
:103310003FF910BD10B583070AD00300032102E076
:1033200001330B4205D01A78002AF9D1181A10BDC2
:10333000030019680C4A0D4C8A188A4322420FD1A7
:103340005968094A04338A188A43224208D15968C5
:10335000054A04338A188A432242F1D000E001333F
:103360001A78002AFBD1E1E7FFFEFEFE8080808014
:10337000F8B505000E001400002802D08369002B68
:1033800029D02D4B9C422BD02C4B9C4246D02C4B11
:103390009C424ED0A369A360A3891B0726D523694D
:1033A000002B23D0FF212268F7B20E406169D31AA7
:1033B00099422ADD0133A1680139A160511C2160C5
:1033C000177062699A422BD0A389DB0701D50A2EB8
:1033D00026D03000F8BDFEF73DFF174B9C42D3D1FD
:1033E0006C68A369A360A3891B07D8D421002800B7
:1033F00000F048F8002819D1FF2123692268F7B2AC
:103400000E406169D31A9942D4DC21002800FEF7EE
:10341000A3FD00280AD101232268CCE7AC68B9E7F4
:1034200021002800FEF798FD0028D2D00126764220
:10343000CFE7EC68AEE7C04648740008287400087F
:1034400008740008030010B50A0003490868190051
:10345000FFF78EFF10BDC0460400002070B50400C9
:10346000080011001A000023054D2B60FDF744FCF5
:10347000431C00D070BD2B68002BFBD02360F9E704
:10348000800200203E4B70B51D6806000C00002D28
:1034900002D0AB69002B1BD03A4B9C421ED03A4B5A
:1034A0009C424CD0394B9C4260D00C23E25EA389F5
:1034B000190719D52169002921D0D80730D5002056
:1034C000A06060694042A0610020002930D070BD3A
:1034D0002800FEF7BFFE2B4B9C42E0D16C680C230A
:1034E000E25EA3891907E5D4D90641D55B0728D444
:1034F000216908231A43A28193B20029DDD1A020BB
:1035000080258000AD001840A842D6D021003000B0
:1035100001F006F90C23E25EA3892169D807CED415
:1035200000209D0700D46069A06000200029CED152
:103530001B06CCD540231A43A2810138C7E7AC68EB
:10354000B3E7616B00290AD023004433994204D0C9
:103550003000FEF73FFF0C23E25E00236363242369
:103560009A430023216963602160C2E7EC689CE70D
:1035700009233360402301201A43A2814042A6E779
:10358000040000204874000828740008087400082B
:10359000002370B5064D040008002B60FDF78DFA7E
:1035A000431C00D070BD2B68002BFBD02360F9E7D3
:1035B00080020020F0B54546DE4657464E46E0B54F
:1035C00003690D6985B080460A000191AB4200DABB
:1035D00091E0142141448C46013D1432AB00D618D1
:1035E000634403931B6800919A46336850465F1CFE
:1035F00039000292FEF77AFB0400BA453CD300235F
:10360000002118008C46A946009F029A08CA190496
:10361000090C61431B0C634309180D0C5D193B68D1
:1036200009041B041B0C6344090C591A3B68280C41
:103630002D042D0C1B0C5B1B0D145B1909041D14B0
:10364000090C1B040B43AC4608C79642DED2039B11
:103650004D461A680392002A0ED1009A043B934209
:1036600008D9009A03E0043B013D934202D919684E
:103670000029F8D043461D614046019901F0B2FC93
:10368000002830DB002301341F00A4460099029873
:103690000B6810C81A04120CD7192204120CBA1A9B
:1036A0001B0C270CDB1B1714DB1912041F14120C44
:1036B0001B04134308C18642EAD2009A644694462A
:1036C000AB006344196800290DD1043B934208D92B
:1036D000009A03E0043B013D934202D91968002996
:1036E000F8D043461D61200005B0F0BCBB46B24691
:1036F000A946A046F0BD0020F6E7C046F0B5574603
:103700004E464546DE461400E0B51D00466A9BB0B5
:10371000824604940595279F002E00D1DFE2316890
:1037200000290AD00123726893404A608B6001F03F
:1037300063F9534600225B6A1A602E1E00DA6DE1BF
:10374000002332003B60CE4B1A409A4200D170E118
:10375000049A059B10001900002200230A900B9187
:1037600002F00CFD002812D00123269A1360289B3A
:10377000002B00D1C1E2C3481860431E0393039895
:103780001BB0F0BCBB46B246A946A046F0BD18AB84
:10379000019319AB009350460A9A0B9B01F08AFDE6
:1037A000330D834600D056E1199B189F9846B64BBF
:1037B000B8444344202B00DC9FE34022D31A9E40B0
:1037C000B24B30004344DC40204303F06DFD4646DD
:1037D0000123AF4C013E09190F930022AD4B03F0BA
:1037E00083F9AD4AAD4BFDF7B9FEAD4AAD4B02F0E2
:1037F000F3FC040030000D00FEF774F9AA4AAB4B4D
:10380000FDF7ACFE02000B002000290002F0E4FCF2
:1038100004000D0003F00CFD0022804606900023FA
:103820002000290002F0B0FC00280BD04046FEF733
:1038300059F92B00220002F0A1FC434258414346B3
:103840001B1A0693069C162C00D925E20A980B99A0
:10385000974BE2009B181A685B6802F095FC002801
:1038600000D1F4E100230E930023BE1B0C93330020
:10387000013C0694013B089300D517E2069B002B00
:1038800000DBEDE1069B0C9A0993D21A0C925A4286
:1038900000230693249B91460124092B00D9ECE1D7
:1038A000052B02DD0024043B2493249B042B01D12F
:1038B00000F063FC052B01D100F0FAFB022B00D0D5
:1038C000FAE100230D93259B002B01DC00F0FDFBAA
:1038D0001D001493079353465E6A00237360172DEF
:1038E00001DC00F0E2FE012204335B00180014301A
:1038F00011000132A842F8D97160504601F03AF83F
:103900000390002801D100F0C5FE5346039A5B6A7C
:103910001A60079B0E2B00D9E2E0002C00D1DFE0FB
:103920000998002801DC00F012FD0F210200604B15
:103930000A40D2009B1806111C685D68C30501D5BA
:1039400000F00DFC0A9A0B9B1092119302239846EB
:10395000002E11D0574F0123334209D09C463A68BC
:103960007B6820002900E044FDF7F8FD04000D000D
:1039700076100837002EEED11098119922002B00F6
:10398000FDF7D0FA06000F000E9B002B09D0002295
:1039900030003900484B02F0F7FB002801D000F05E
:1039A000F0FB4046FEF79EF832003B00FDF7D6FDE7
:1039B0000022424B02F010FC414A0B009446634443
:1039C000129013911393099B1593079B1093002B4F
:1039D00001D000F0FDFB002230003900394B03F02C
:1039E00083F8129E139F32003B0004000D0002F08A
:1039F000DFFB002801D000F0E7FD802000068446B0
:103A0000390061440B0032002000290002F0BCFBA9
:103A1000002865D00023002799468AE001236E0024
:103A2000760832003B60164B05961A409A4200D049
:103A30008EE6254B269A3603360B1360344318D195
:103A4000289B002B01D100F02CFE204B0393083360
:103A5000289A136093E60A9C0B9D20002A03164CBB
:103A6000120B14431A4A21009E180023189F0F932B
:103A7000B3E6289B002B00D016E3164B03937EE69B
:103A80000000F07F7D740008320400001204000082
:103A9000000010FE0000F83F61436F63A787D23F2C
:103AA000B3C8608B288AC63FFB799F501344D33F2D
:103AB00030760008087600080000F03F00001C4047
:103AC0000000C0FC000014400F2700002C75000807
:103AD00001FCFFFF38750008179B9946169B9B4613
:103AE000199B002B00DA8BE0099A0E2A00DD87E093
:103AF000C94BD2009B181E685F68259B002B1CDAFF
:103B0000079B002B19DC079B002B00D082E70022CB
:103B10003900C24B3000FDF721FD0B0002000A986E
:103B20000B9902F03BFB002300279946002800D1A7
:103B3000E6E2259B039DDC43EAE232000A9C0B9DF2
:103B40003B0020002900FDF7EDF903F071FB8146F1
:103B5000FDF7C8FF32003B00FDF700FD02000B003F
:103B60002000290002F0C0FF039A531C98464B46E0
:103B700030331370079B012B01D100F056FC013A42
:103B8000012304925246C2460692984624E001233D
:103B90009C4632003B0020002900E044FDF7C2F9BA
:103BA00003F046FB8146FDF79DFF32003B00FDF729
:103BB000D5FC02000B002000290002F095FF012334
:103BC0009C464B464446049A30331355079BE244C7
:103BD000984501D100F026FC0022914BFDF7BEFC78
:103BE0000022002304000D0002F0C8FA0028CED005
:103BF000069BD0469A46099B44460133099360E1EF
:103C00000D9A002A7CD0249A012A00DC74E3079BD9
:103C10005D1E4B46A94500DB9FE2069AEB1A9446CF
:103C20009C446346A946002506930C99079BCC1A31
:103C3000002B06DB9C4608980C0060446144089009
:103C40000C910121504600F0EFFF07005BE0BE1B26
:103C50003300013B089300D576E300230E930C93C9
:103C6000069A089B94466344089300239946249B34
:103C700001240992092B00D812E6012200230D929B
:103C8000023A249307922593534600225B6A00214F
:103C90005A60079B149330E601230E930023BE1B4A
:103CA0000C933300013B089300D4E7E501239B1BF1
:103CB0000C9300230893E1E500230D93249B032B31
:103CC00001D000F0CFFC099A259B944663441493DD
:103CD00001331D1E079300DDFDE50125FBE51020E6
:103CE00000F0A4FD53465862002801D100F0B4FC56
:103CF000466086600660C6601FE54A4B03933EE55A
:103D00004D4600270C9C002C0DDD089A002A0ADD88
:103D10002300944200DD07E20C9AE41AD21A0C92B6
:103D2000089AD31A08934B46002B1BD00D9B002BEF
:103D300000D1B2E1002D10DD39002A00504601F01B
:103D40005BF85A4601000700504600F083FF06006A
:103D50005946504600F050FEB3464B465A1BA94503
:103D600000D09BE10121504600F05EFF069A81469B
:103D7000002A00DDC6E0249B0025012B00DC9AE12F
:103D8000069B0120002B00D0C6E01F2308991A00D3
:103D90008C4660440240034200D1A1E001339B1AEB
:103DA000042B01DC00F051FC1C239B1A0C9AE41834
:103DB00094469C4462468C469C4463460C9208930D
:103DC0000C9B002B05DD59461A00504601F094F873
:103DD0008346089B002B05DD49461A00504601F03A
:103DE0008BF881460E9B002B00D03DE1079B002BFA
:103DF00000DC23E10D9B002B00D0A5E0099B0133E3
:103E00000993039B01245D1E079BA8465E464D4611
:103E1000B94657469A460FE0307600080000144035
:103E2000000024407C740008310000230A2238007E
:103E300000F008FE0600013429003000FFF7BAFB4D
:103E40004346303018555445EEDB079BBA46B3461F
:103E50004F460124A9460690002B00DD1C00039B61
:103E600000269C46644459460122504601F044F81D
:103E70004946834601F0B6F8002800DC50E2651E92
:103E80002A782B00039906E0013B8D4200D154E2D1
:103E90001A782C00013D392AF6D001322A704946A1
:103EA000504600F0A9FD002F0BD0002E05D0BE42D9
:103EB00003D03100504600F09FFD3900504600F01D
:103EC0009BFD5946504600F097FD0023099A237048
:103ED000269B1A60289B002B00D150E41C604EE406
:103EE0001C230C9AE41894469C4462460C92089A4F
:103EF00094469C446346089362E720222000D31A2C
:103F0000984062E40100504600F076FF249B814611
:103F1000012B00DC0AE100254B461B6903339B00A3
:103F20004B44586800F036FE2023181A2DE7002372
:103F300039000A22504600F085FD149B07000996BF
:103F4000002B00DC76E30793002C05DD390022000E
:103F5000504600F0D1FF0700B846002D00D082E2A5
:103F6000079A039B94461D00013B9C4463460893BB
:103F700001232E005D46CB46049A1A40079259460B
:103F80002800FFF717FB0300390030330C9028009E
:103F9000069301F027F8594604004246504601F0C6
:103FA0003BF8C36881460100002B3BD1280001F09B
:103FB00019F849460490504600F01EFD249A049BCF
:103FC0001343079A134300D102E3002C00DAF2E115
:103FD000249B1C43079B1C4300D1ECE1049B002B5A
:103FE00000DDC9E2069A741C3270089A964200D12C
:103FF000CCE2290000230A22504600F023FD0023D2
:1040000005000A2239005046474511D000F01AFD3C
:104010004146070000230A22504600F013FD260007
:104020008046ACE7504600F0E7FC01230493CCE760
:1040300000F008FD260007008046A0E7249B022B25
:104040004DDC0D9B002B00D07EE749465846FFF71C
:10405000B1FA0300039A303306931370099B0026CC
:104060000133541C0993FEE64946584600F0BAFF56
:10407000002800DBBAE6099B59460A2250465E1E1C
:10408000002300F0DFFC0D9B8346002B00D04EE7A1
:10409000149B002B1DDD0793B3E64A465946504654
:1040A00000F0AAFE83465DE6D44B03930333CFE4CE
:1040B00001230D9307E60499059A002900D05FE6D5
:1040C0001300120300D05BE63AE001230793259327
:1040D000DAE5249B0996022BB7DD149B0793079B17
:1040E000002B00D025E549460522504600F0AAFCE9
:1040F00081460100584600F075FF002800DC18E5F5
:10410000039A31231500099C1370531C0134039347
:104110004946504600F070FC631C0993039C0395CC
:10412000002F00D0C9E6CCE61300F5E5049B002B78
:1041300000D0F0E60499059A1300120300D0EAE6D5
:10414000AF4A0025134200D11AE60C9B013501331A
:104150000C93089B0133089312E65D1B65E5A94BA0
:104160000E401A6A5B6A0A980B99FCF7DBFE032380
:10417000109011919846FFF7EBFB01230D93FFF789
:10418000A2FB079B002B00D12CE2149C002C00DC2E
:10419000A6E4099B0022013B3000390015939A4B9D
:1041A000FDF7DCF9060040460F000130FDF79AFCF0
:1041B00032003B00FDF7D2F90022944B02F00CF8DC
:1041C000934A0B00944663441290139110941393F6
:1041D0000D9B002B00D160E1109B00205A1E8D4BDF
:1041E000D2009B181A685B688B49FCF79BFE129AF9
:1041F000139B02F079FC129013913000390003F008
:1042000017F81690FDF76EFC02000B003000390025
:1042100002F06AFC039B169E5A1C303604000D0007
:1042200090461E7002000B001298139901F0C0FF17
:10423000002800D0ECE14B46002717935B46BB46B5
:10424000129E139F169333E001239C46109BE34478
:104250009B4500DB40E40022300039006A4BFDF74B
:104260007DF90022684B06000F0020002900FDF7B1
:1042700075F90D00040002F0DBFF8146FDF732FC0A
:1042800002000B002000290002F02EFC0123040094
:1042900048465A469C46039B3030985432003B00B7
:1042A00020000D00E04401F06FFF002800D0ADE1D8
:1042B00022002B000020594902F016FC32003B007E
:1042C00001F062FF0028BFD0169B42469B46159B1B
:1042D0000399099302E0914200D165E11400013A8B
:1042E0001378392BF7D090460133DBB24246137076
:1042F000099B01330993E4E50F9A002A00D1C8E035
:10430000474A94466344089A4D4694469C44624604
:1043100008920C9A94469C44634614000C9390E4D3
:10432000002803D1069BDB0700D5A8E523001C006D
:10433000013B1A78302AFAD0B1E53123039A137081
:10434000099B01330993AAE500230E93AEE4099B70
:10435000002B00D122E10A980B995C420F232D4AD1
:104360002340DB00D3181A685B68FDF7F7F82411C7
:1043700006000F00002C00D163E102221096119775
:10438000002317001F4D0122224205D02A686B68C6
:10439000FDF7E4F80123013764100835002CF2D151
:1043A000B846109E119F002B01D1FFF7EDFA0600D1
:1043B0000F00FFF7E9FA049BD946AB463500002B06
:1043C00012DD59460122504600F096FD49468346CB
:1043D00000F008FE002800DC24E1069B392B00D108
:1043E000E8E00C9B31330693069B6C1C2B70099BF9
:1043F0003E0001334746099351E5C0463875000831
:104400000000F07F087600080000244000001C40F7
:104410000000C0FC307600080000E03F0000F03FE4
:1044200033040000069BD0469A4602000B0001F0C0
:10443000D3FE32003B0004000D0001F0B9FE00285D
:104440000ED132003B002000290001F097FE002829
:1044500001D1FFF7D0FB4B46DB0701D4FFF7CBFBC5
:10446000424603993AE75046796800F083FA041E01
:1044700000D11DE139003B690C319A1C92000C30CF
:1044800000F022FA01222100504600F035FD80465E
:1044900066E53623189A9B1A35E7109B8749013B3E
:1044A000DB00C91808684968129A139BFDF756F893
:1044B000129013913000390002F0BAFE1690FDF709
:1044C00011FB02000B003000390002F00DFB039AD3
:1044D0000D00511C88461100169E109B3036167038
:1044E0008C461A006244040046461092012B1DD0EF
:1044F000109B98460022724B20002900FDF72EF8F1
:104500000D00040002F094FE0700FDF7EBFA020034
:104510000B002000290002F0E7FA3037377001362F
:1045200004000D00B045E5D1109B9846129E139FE4
:104530000022644B3000390001F04EFE22002B00B7
:1045400001F022FE002868D132003B0000205D49C6
:1045500002F0CAFA22002B0001F02AFE002801D145
:10456000FFF7BEFA43461C00013B1A78302AFAD006
:10457000159B01330993A4E4069BD946AB4635004D
:10458000392B17D0069B741C01332FE7099BD946A2
:1045900001333E00AB464746099364E402230A9E7A
:1045A0000B9F9846FFF7F0F9099B9046013309935A
:1045B00031239BE639232B70099B3E00013347468C
:1045C00039226C1C09935CE400230027994697E587
:1045D000069BD946AB463500392BEBD0002C00DDCD
:1045E000FFE601E74046FDF77DFA32003B00FCF7AD
:1045F000B5FF0022344B01F0EFFD344A0B00944626
:104600006344129013911393FFF7E5F9169B9B46B1
:10461000159B44460133099353E4159B4246039985
:1046200009935BE6002800D0DEE6069BDB0700D599
:10463000D3E6D9E6149B0793249B022B00DD4EE5BD
:1046400082E402239846FFF79FF9042B01D1FFF77C
:10465000B7FB3C239B1A44E40022EA211C4B1D4873
:1046600001F0EEF853460D9A5B6A002150465A60FD
:1046700000F080F9039000280CD05346039A5B6A3F
:104680001A6000232593013B1493079302330D9383
:10469000FFF726FAD52100220F4B0E48490001F002
:1046A000CFF80E4B0393FFF76AF80021FFF725F9C7
:1046B0000022094B0A49074801F0C2F83076000889
:1046C000000024400000E03F00001C400000C0FC4F
:1046D0003C75000854750008887500082C750008A2
:1046E000EA020000F030704700487047580100208F
:1046F000004870475801002070B504000800110000
:104700001A000023054D2B60FCF732FA431C00D041
:1047100070BD2B68002BFBD02360F9E780020020DE
:10472000F0B58B8906000C0097B09A0707D52300D7
:104730004733236023610123636117B0F0BD0E226C
:10474000895E00292FDB6A4601F0BEF8002829DBCC
:10475000F023019D1B021D401D4B9C4665446B428E
:104760005D418027FF0039003000FDF793FE0028EF
:1047700023D08021174AB262A28920600A43A28115
:1047800020616761002DD8D030000E23E15E01F07A
:1047900029FA0028D1D00322A3899343012213438D
:1047A000A381CAE7A389002540271B06D9D5390074
:1047B0003000FDF76FFE0028DBD10C22A35E9A05C6
:1047C000BBD40322934302221343A381AFE7C04625
:1047D00000E0FFFF4120000870B50C001D000E2313
:1047E000C95E160096B0002914DB6A4601F06CF829
:1047F00000280FDBF022019B120213400A4A944664
:1048000063445A4253412B608023DB003360002015
:1048100016B070BD0C22A35E00222A601B06F3D5E1
:1048200040233360F3E7C04600E0FFFF10B5034BC1
:1048300001001868FDF72EFE10BDC04604000020E0
:1048400010B5034B01001868FDF7C4FD10BDC0464C
:104850000400002070B5CCB283070DD0531E002A8F
:104860000FD0032504E00130284206D0013B08D3D5
:104870000278A242F7D170BD1300032B0CD8002B95
:1048800001D10020F7E7C31802E001308342F8D0DD
:104890000278A242F9D1EEE7FF2529400D02294313
:1048A0000D04074E0D43026806496A4051189143B2
:1048B0003142E8D1043B0430032BF4D8DFE7C04693
:1048C00080808080FFFEFEFEF0B5C64600B50F2A50
:1048D00041D903270D003E0005430C0003002E4084
:1048E0002F423DD11500103D2D09A8462D01AC46A3
:1048F000844427681D001F6067685F60A7689F6029
:10490000E7681034DF6010336545F2D145460F2368
:104910000C2401352D01491913404519144222D0A8
:104920008C59AC5104369C1B032CF9D8043B9B08D2
:1049300001339B00ED18C91803231A40561E002AA4
:1049400006D00023CC5C1A00EC5401339642F9D116
:1049500080BCB846F0BD0500561E002AF1D1F7E72D
:104960000500561EEDE71A00F6E7C0467047C04640
:104970007047C04670B5456A04000E00002D0DD08A
:10498000EB68002B15D0B2009B18186800281CD0CB
:1049900002681A6000230361C36070BD1020FFF736
:1049A00045FF051E60621DD00023436083600360E5
:1049B000C36021220421200000F07EFD636AE860CC
:1049C000DB68002BDFD10020E7E70125B5406A1D39
:1049D00001212000920000F06FFD0028F3D0466016
:1049E0008560D7E700226621014B024800F028FFCE
:1049F0003C7500089C75000870B5466A05000C00FF
:104A0000002E0AD0002C07D06B6A6268DB68920027
:104A10009B181A6822601C6070BD1020FFF706FF0B
:104A20006862002804D0466086600660C660E9E7D8
:104A300000228A21014B024800F002FF3C75000869
:104A40009C750008F0B5C6461F008046002300B5DF
:104A50000E000D6914310C6801332004000C504322
:104A6000240C5443C019070CE4190004270C000C53
:104A70002404241810C19D42EDDC002F08D0B36837
:104A8000AB4209DD2B1D9B00F31801355F603561DA
:104A9000300080BCB846F0BD73684046591CFFF733
:104AA00069FF041E13D0310033690C319A1C920047
:104AB0000C30FFF709FF310026004046FFF79CFF4E
:104AC0002B1D9B00F31801355F603561E0E7002284
:104AD000B521024B024800F0B3FEC04688750008BD
:104AE0009C750008F8B54746CE460600180080B50C
:104AF0000C00083009211F009046FCF727F9092F08
:104B00003BDD012500216D000131A842FBDC3000B6
:104B1000FFF730FF011E32D0089B43610123036180
:104B20004346092B16DC092398460A3447450CDD19
:104B30004346E719FF1A23780A223000303BFFF77B
:104B400081FF01340100BC42F5D10800C0BCB94668
:104B5000B046F8BD09239946A1444D4644442B78FC
:104B60000A223000303BFFF76DFF01350100A542FE
:104B7000F5D14446083C4C44D8E70021C7E7002261
:104B8000024B0348CE3100F05BFEC046887500083A
:104B90009C7500080300020C0020002A01D11B04B0
:104BA00010301A0E01D108301B021A0F01D1043047
:104BB0001B019A0F01D102309B00002B02DB013058
:104BC0005B0000D570472020FCE7C0460368020068
:104BD000590707D0D9071ED4990720D55B08036071
:104BE000012070470020190401D11B0C1030FF2157
:104BF000194201D108301B0A190701D104301B09E1
:104C0000990701D102309B08D90702D401305B0813
:104C100003D01360E5E70020E3E72020E1E79B08ED
:104C200003600220DDE7C04610B50C000121FFF74C
:104C3000A1FE002803D001234461036110BDA0211F
:104C40000022024B0248490000F0FAFD8875000876
:104C50009C750008F0B54E464546DE465746E0B521
:104C60000D6916698946140087B0B54204DB33002C
:104C70000C002E0091461D00A36877196168BB42A5
:104C800000DA0131FFF776FE0590002800D1A7E099
:104C900014229446059B002263449B46BB005B4460
:104CA0009A465B465146D34503D204C39942FCD889
:104CB0008A4614239C46A444634604931423B600F6
:104CC0006644AD009C462B00E1444B440293994559
:104CD0006ED204230393230015339E4200D27CE05E
:104CE000331B153B9B0801339B00B8460393019689
:104CF00008E0000C31D104239C46029BE144E344CC
:104D00004B4554D94B46186803041E0C002BF0D0B9
:104D1000019B5D4600279C46049C04CC2968130433
:104D20001B0C73430804000C1B18D819130C734395
:104D3000090C020C5B189B1802041F0C120C1B04BC
:104D4000134308C5A445E8D8634601935B46039A1C
:104D50009F504B461868000CCDD05B4600271B685F
:104D60005C4619003E00049D019A2F88090C4743B8
:104D70007F18BF191B0439041B0C0B43236008CD9B
:104D800061681B0C43430E04360C9B193F0CDB1966
:104D90001E0C0434AA42E8D801925A460399535093
:104DA00004239C46029BE144E3444B45AAD8474672
:104DB0005346002F03DC06E0013F002F03D0043BE5
:104DC0001A68002AF8D0059B18001F6107B0F0BCD4
:104DD000BB46B246A946A046F0BDB846019691E74B
:104DE0005E210022024B0348FF3100F029FDC0463E
:104DF000887500089C7500080323F0B54F464646A9
:104E00001400D6461A00C0B5224007000E00234207
:104E100035D1A41023D07B6A9846002B38D09D68EA
:104E2000002D41D001239846002399464346234252
:104E300008D1641013D02868002816D00500434616
:104E40002342F6D031002A003800FFF703FF8246E4
:104E500031003800FFF7D0FD56466410EBD130002A
:104E6000E0BCBA46B146A846F0BD2A002900380089
:104E7000FFF7F0FE4B46286005000360DFE7194BA3
:104E8000013A9200D2580023FFF7DCFD0600C0E78C
:104E90001020FFF7CBFC8046786200281AD0002350
:104EA000436083600360C36001213800FFF762FD47
:104EB000051E08D00C4B43610123036143469860F3
:104EC00000230360AEE7A0210022084B08484900F8
:104ED00000F0B6FCD7210022064B0548490000F03F
:104EE000AFFCC046D075000871020000887500084C
:104EF0009C7500083C750008F0B5DE4657464E46E6
:104F00004546E0B50D002B6957119B46BB445B46F7
:104F10005C1CAB6883B01600496801909C4203DDBD
:104F200001315B009C42FBDC0198FFF723FD8046CA
:104F300000284BD014308446002F09DDBF003A0012
:104F4000030000211432424402C39342FCD1BC440A
:104F50002A692B0091001F22100014333040814633
:104F6000591832422CD00132121A92466746002656
:104F700048461A688240324304C7524640CBD64066
:104F80009942F5D82A0015320423914204D34B1BD1
:104F9000153B9B0801339B006246D650002E00D083
:104FA000A34643465A46019829001A61FFF724FD9B
:104FB000404603B0F0BCBB46B246A946A046F0BD91
:104FC000604604CB04C09942FBD8EAE7DA2100220C
:104FD000024B0348FF3100F033FCC04688750008DF
:104FE0009C75000803690A6930B50500981A934258
:104FF00011D1920014351431AB18891801E09D428B
:1050000009D2043B04391A680C68A242F7D0A242C4
:1050100092410120104330BDF0B54E464546DE4674
:105020005746E0B50B6988461169914683B05C1A12
:105030008B4200D095E0464689001436143273182E
:10504000521802E09E4200D38FE0043B043A1D68F0
:1050500011688D42F6D000D27EE043465968FFF7D2
:1050600089FC002800D18AE043461A69142343448E
:105070009C46C4601C004B461B6991009B00614428
:105080009C4614234F469A46143782445346BC44E8
:105090008B46A2461426644600219446424680462A
:1050A0000193935901CF1D042D0C691805042D0C93
:1050B0004D1B010C40461B0C5B1A29145B182D0478
:1050C00019142D0C1B042B4383510436BC42E8D821
:1050D0006246A4464D461C0063464E465D1B153D88
:1050E00015360023AD08B44500D3AB00019FB84688
:1050F00004274344B44501D30135AF00019DBA44B0
:10510000AC46BC44D34518D9654657465E4610CFD9
:1051100023041B0C5B181914240C64181B042114A1
:105120001B0C24041C4310C5BE42F0D8310053466A
:105130000139CB1A9B089B006344002C04D1043B2B
:105140001968013A0029FAD0026103B0F0BCBB46ED
:10515000B246A946A046F0BD43460124C84699463A
:105160007BE7002CF8DB002477E70021FFF702FC47
:1051700000280BD00123036100234361E5E7902160
:105180000022054B0548890000F05AFB0022024B23
:105190000349024800F054FB887500089C7500081C
:1051A000320200000F4B19400F4B9C46614400290E
:1051B00004DD00220B001000190070474942002254
:1051C00000230915132904DC802000030841030093
:1051D000F1E7143901201E2902DC80200006C840B6
:1051E0000200E8E70000F07F0000C0FCF8B5060010
:1051F0004746CE4604691436A4003419231F1D689F
:1052000080B528000F009846FFF7C4FC20210A1A39
:105210003A600A282EDD464523D208235B42984691
:10522000A04443461F680B235B429C4684440B28E2
:105230001CD063469D40C91A3B00CB401C481D430F
:105240002843030046452FD20C3C2068C8406146E5
:105250008F4007433A0010001900C0BCB946B04661
:10526000F8BD030000270B3B0B2817D11049294339
:105270000B00EFE72F0015390B1ADF400C49994658
:1052800039430B000027464503D24946083C2768AE
:10529000CF40153085403D432A00DCE79D4004495E
:1052A000002729430B00D5E761468F40D2E7C0466F
:1052B0000000F03F70B5012182B015001C00FFF71F
:1052C00059FB061E4FD0230364001B0B640D02D054
:1052D0008022520313430193002D17D101A8FFF739
:1052E00075FC019B01257361012320303361002C83
:1052F00024D0204B9C46069B644424181C60352314
:10530000181A079B1860300002B070BD68460095FF
:10531000FFF75CFC002822D0019D20232A001B1AE5
:105320009A401300C540009A019513437361B5611B
:105330006B1E9D4101353561002CDAD10E4B9C4628
:10534000069B604418600D4BEB189B00F3185869DE
:10535000FFF720FC6D01079B2D1A1D60D3E7009B12
:10536000019D7361E3E70022054B0649064800F002
:1053700067FAC046CDFBFFFFCEFBFFFFFFFFFF3FFD
:10538000887500080A0300009C750008F0B5CE4639
:10539000474680B585B0884602A98146FFF726FFBB
:1053A00004000D00404603A9FFF720FF02000B0098
:1053B000404649460069096900920193091A49016A
:1053C0008C4602980399401A0100614400290BDDC4
:1053D00009054F193D0020002900FBF7A3FD05B08A
:1053E000C0BCB946B046F0BD09055B1A0193009AEE
:1053F000019BF0E710B50400172809DD00200749DC
:105400000022074B013CFCF7A9F8002CF8D110BD95
:10541000C4000448041920686168F8E70000F03F00
:1054200000002440307600081300013970B54C119B
:105430001169013414338900A400591804198B42EE
:105440000AD2050040CB40C59942FBD88B1A153BC8
:105450009B0801339B00C018844203D9002308C075
:105460008442FCD870BDC0460200036910B51432F6
:10547000481183420ADA9B00D31803E0043B196801
:10548000002917D19342F9D8002010BD83420EDDC8
:105490001F231C000C400B4209D08300D31819684D
:1054A0000120E140A1401C688C42EED1EAE7830074
:1054B000D318E7E70120E8E74A4370B5110015006B
:1054C000FCF7E8FF041E03D02A000021FCF72EFFA2
:1054D000200070BD936810B5013B9360002B04DA87
:1054E0009469A34207DB0A2905D01368581C106091
:1054F0000800197010BDFDF73BFFFBE7F8B505008C
:105500000E00002B0DD01400D71802E00134BC426D
:1055100007D0320028002178FFF7DCFF431CF5D1CB
:10552000F8BD0020FCE7C046936810B51400002BBE
:1055300002D10020536010BD00F0DAF90023A3600F
:105540006360F8E7F0B5DE4657464E464546E0B59F
:1055500083468A4691461C009FB0002803D0836989
:10556000002B00D1ABE09E4B9A4500D1ADE09D4BA6
:105570009A4500D1BBE09C4B9A4500D12BE15346A4
:105580009B891B0700D4A8E053461B69002B00D160
:10559000A3E0002306AD6B6120336B761033AB764E
:1055A0002F3B98464B461978904E059400297AD0A7
:1055B0004C460B0004E063780134002B00D19AE0E4
:1055C000252BF8D14B46E31A02934C4500D097E0C7
:1055D0002378002B67D00122002352426A604432B4
:1055E00001342B60EB60AB60AB54AB6506E0434627
:1055F000801B83402A68013413432B60052230004E
:105600002178FFF727F90028F1D12B68DA0602D5B7
:1056100043222021A9541A0702D543222B21A95441
:1056200021782A2900D07DE0059A111D1268059184
:10563000002A00DAABE0EA606178671C2E2900D10D
:1056400084E06B4C03222000FFF704F9002806D009
:105650004023001B83402A68013713432B603978AD
:105660007B1C0622634899462976FFF7F3F8002849
:1056700000D192E0604B002B00D178E005AB0093A5
:105680005246290058465D4BFDF73EF80390039BB8
:10569000013308D0039A6B69944663446B614B46AF
:1056A0001978002984D153469B895B061CD468690C
:1056B0001FB0F0BCBB46B246A946A046F0BDFCF701
:1056C000C9FD474B9A4500D051E75B465B689A4657
:1056D00053469B891B0700D556E751465846FDF7B0
:1056E000D1FE002800D154E701204042E0E75B46AC
:1056F0009B689A4643E74B46E31A02934C45D2D047
:105700005B460027A3461C0005E0029B0137BB4215
:1057100034D94B46D95D52462000FFF7DBFE431CCF
:10572000F3D1C0E70800303809280BD8EB689A009D
:10573000D31861785B001B18080030380134092841
:10574000F5D9EB6027002E2900D07AE779782A294D
:105750002DD1059BB81C1A1D1B6805926B60002B90
:1057600002DA01235B426B60B978070069E7072220
:10577000059B07339343083305938BE723006A693E
:105780005C4694469B46029B63446B6120E7524211
:10579000EA60022213432B604EE705AB00935246AA
:1057A00029005846154BFDF761FB03906FE7080091
:1057B0000023303801376B60092800D941E79A008F
:1057C000D31879785B001B18080030380137092896
:1057D000F5D96B6035E75B46DB689A46CFE6C04695
:1057E000487400082874000808740008F876000857
:1057F000007700080477000809270008FD54000816
:1058000010B504001300034A10680A002100FFF7D6
:1058100099FE10BD0400002070B5040008001100BE
:105820001A000023054D2B60FBF72AFA431C00D019
:1058300070BD2B68002BFBD02360F9E780020020AD
:1058400030B514001A000A4B05001B6885B0D868F3
:10585000002C09D0074B019300912B0006490294BC
:1058600000F020F800F016FB044B1C00F3E7C046E4
:10587000040000200C7700081C7700081877000847
:10588000130010B50022FFF7DBFFC0460CB400B5D3
:1058900083B004AB04CB0193FFF754FE03B008BC04
:1058A00002B018470EB400B582B003AB0100054842
:1058B00004CB00680193FFF745FE02B008BC03B0BB
:1058C0001847C04604000020002370B5074D0400AF
:1058D000080011002B60FBF717F9431C00D070BDC6
:1058E0002B68002BFBD02360F9E7C0468002002024
:1058F000F0B5DE46454657464E46E0B593688346CA
:105900000C00904683B0002B23D08B891A0728D532
:105910000A69002A25D0424616689A072DD5002725
:10592000AC4B00259946BA46002D58D02B004D456A
:1059300000D9A84B52465846216AA76AB8470028A2
:1059400058DD43469B6882442D1A181A43469860D6
:10595000EAD1002003B0F0BCBB46B246A946A0463F
:10596000F0BD21005846FDF78DFD002800D02DE147
:105970004246A38916689A07D1D4DA0742D4002296
:1059800000279146002F25D080229200A56813425F
:1059900000D180E0AA46BD4200D9AFE09022D200FB
:1059A000134200D0BBE020685246494600F09AF905
:1059B000A3685D1BA5603D00002723685344236056
:1059C00043469B68A9445D1B43469D60C1D0A389A3
:1059D000002FD9D13268776891460836D2E733680C
:1059E00075689A4608369FE721000198FCF7B4FADB
:1059F00000282FD00C22A35E402201201343A38154
:105A00004042A7E700230022B14600271E005B4664
:105A1000002092460193002F27D000282FD033007A
:105A2000BB469F4200D99B46206822696369904229
:105A300004D9A2689D18AB4500DD9EE05B4561DCA2
:105A4000A56A5246216A0198A847051ED2DD0120A9
:105A5000761BC9D043469B68AA447F1B5D1B434607
:105A60009D6000D175E7002FD7D14B461B689A4641
:105A70004B465F6808239C46E144002FF5D03A006E
:105A80000A215046FEF7E6FE002800D195E0534675
:105A90000130C61AC3E720682369984216D86369A3
:105AA0009A46BB4212D84C4B38009F4200D94B4813
:105AB0005146FBF74BF95346A56A43434A465846BD
:105AC000216AA847051E95DD7F1B79E7BD4200D9F5
:105AD0003D002A00494600F005F9A36822685B1BD7
