:020000040800F2
:1000000000200020B90000088510000899100008A1
:1000100000000000000000000000000000000000E0
:100020000000000000000000000000008510000833
:100030000000000000000000851000088510000886
:10004000851000088510000885100008851000083C
:10005000851000088510000885100008851000082C
:1000600000000000851000088510000885100008B9
:1000700085100008851000080000000085100008A9
:1000800000000000851000080000000000000000D3
:100090008510000800000000851000088510000889
:1000A000851000088510000885100008ED0500087F
:1000B0009D0B00088510000800F060FF00F022FF93
:1000C000E1235B02180000F0E9F962B6C04600F0D7
:1000D000DFF8024B180000F051FBFEE76036000825
:1000E00080B582B000AF0200FB1D1A70FB1D1B78AB
:1000F0001900104801F028F9030019000E4801F01A
:1001000023F903005A1E0D4B5A600C4B00229A60D3
:100110000A4B05221A60C046084B1A6880235B020E
:100120001340F9D0054B00221A60C046BD4602B00C
:1001300080BDC04640420F000048E80110E000E0EA
:1001400080B584B000AF78600023FB6015E00B231E
:10015000FB1800221A7008E0FA20FFF7C1FF0B21FC
:100160007B181A787B1801321A700B23FB181B7846
:10017000032BF1D9FB680133FB60FA687B689A4274
:10018000E5D3C046C046BD4604B080BD80B500AFD3
:10019000A023DB05012252429A601B4BDA6A1A4BFC
:1001A00001210A43DA62A023DB051B68174A1A40C3
:1001B000A023DB058021C9040A431A60A023DB05C4
:1001C0005A69A023DB05802189010A435A61A023D3
:1001D000DB051A68A023DB050D490A401A60A0233D
:1001E000DB05DA68A023DB05802149020A43DA60D7
:1001F000A023DB05DA68A023DB0506490A40DA60A4
:10020000C046BD4680BDC04600100240FFFFFFF360
:10021000FFFFFCFFFFFFFDFF90B58DB000AF7860E2
:100220007A68184B1100180001F092F9A023DB0541
:100230005A69A023DB0514490A405A610A20FFF7D6
:100240007FFF7B68180000F071FD08243B1927210F
:10025000180000F0A5FDA023DB055A69A023DB05EB
:10026000802189010A435A610A20FFF769FF3A1980
:10027000064B1100180001F06BF9C046BD460DB0E9
:1002800090BDC04670350008FFDFFFFF7C350008D9
:1002900080B596B000AF00237B65FFF777FF96230C
:1002A0009B01180000F0D4FBFA239B001800FFF715
:1002B00047FF294B180001F0FDF9284B1800FFF704
:1002C000ABFF274B1800FFF7A7FF264B1800FFF7DF
:1002D000A3FF254B1800FFF79FFF244B1800FFF7E3
:1002E0009BFF234B1800FFF797FF224B1800FFF7E7
:1002F00093FF214B1800FFF78FFF204B180001F0F0
:10030000D9F900237B65A023DB051A6980235B00F4
:10031000134011D17B6D5A1C7A651949381D1A009A
:1003200001F0EEF93B1D180000F000FD2E2001F059
:100330003DF9C820FFF704FF00F078FD031EE2DD61
:100340003B1D4F21180000F02BFD3A1D0D4B1100F5
:10035000180001F0FDF8D6E78C3500089C35000840
:10036000AC350008B8350008C4350008D0350008A1
:10037000DC350008E8350008F435000800360008D0
:10038000483600085836000890B585B000AF786050
:100390003960184B1B68002B02D101235B4224E01B
:1003A0000023FB600AE0FB685A1CFA603A68D41824
:1003B000114B180000F0ADF9030023707B68013B7E
:1003C0001A00FB68934205D20B4B180000F0CCF9E1
:1003D000031EE8D1FB68002B06D03A68FB68D318EF
:1003E00000221A70FB6800E000231800BD4605B02B
:1003F00090BDC046000100206800002080B584B098
:1004000000AF78603960224B1B68002B02D10123BA
:100410005B4238E07B683F2B0BDCC0461D4B18006D
:1004200000F0A2F903004022D21A7B689A42F5D369
:1004300002E002235B4226E00023FB600BE03A6807
:10044000FB68D3181A78134B1100180000F030F92C
:10045000FB680133FB607B68FA689A42EFD30E4B6E
:100460001B68082213400DD10B4B1A680A4B082158
:100470000A431A60074B180000F04BF903001A00FA
:10048000054B9A6200231800BD4604B080BDC046EB
:1004900000010020B40000200038014080B584B085
:1004A00000AF786072B6C046454B00229A64444B58
:1004B0009A6C434B5A64424B5A6C414B1A64414B01
:1004C00000229A643F4B9A6C3E4B5A643D4B5A6CE7
:1004D0003C4B1A643C4B01221A603C4B00221A60D0
:1004E0003B4BDA6A3A4B01210A43DA62394BFB6033
:1004F0007968F86800F028FF0300FB60A023DB05A3
:100500009A68A023DB058021C9020A439A60A023D0
:10051000DB055A68A023DB052F490A405A60A02357
:10052000DB051B682D4A1A40A023DB058021090347
:100530000A431A60A023DB055A6AA023DB05402189
:100540000A435A62A023DB051B68254A1A40A023F0
:10055000DB05802189030A431A60A023DB055A6A60
:10056000A023DB058021C9000A435A62184B5A6B4D
:10057000174B8021C9010A435A631A4B1A68194B59
:100580006C210A431A60174B00225A60154B002257
:100590009A60144BFA68DA60124B1A68114B012109
:1005A0000A431A60104B1A680F4B802109050A4351
:1005B0001A6062B6C046C046BD4604B080BDC046A3
:1005C00068000020B4000020000100200401002089
:1005D000001002400048E801FFFDFFFFFFFFF3FFAE
:1005E000FFFFCFFF0038014000E100E080B500AF21
:1005F000084BDB698022134001D000F025F8054B41
:10060000DB692022134001D000F006F8C046BD4649
:1006100080BDC0460038014080B500AF074B5B6A23
:10062000DAB2074B1100180000F042F8031E02D0A6
:10063000044B01221A60C046BD4680BD003801400F
:10064000680000200401002080B500AF164B1800A0
:1006500000F08AF8031E08D0134B180000F059F878
:1006600003001A00114B9A621BE0104B1A680F4BE3
:1006700008218A431A600D4BDB694022134005D0E4
:100680000A4B1A6A094B40210A431A62074BDB697D
:100690008022134005D0054B9A69044B10210A4370
:1006A0009A61C046BD4680BDB400002000380140BC
:1006B00080B582B000AF78600A00FB1C1A707B68BE
:1006C0001A6C7B685B6C9A4205D17B689B6C002B33
:1006D00001D0012319E072B6C0467B681B6C591C1F
:1006E0007A6811647A68F91C0978D1547B689B6C2C
:1006F0005A1C7B689A647B681B6C402B02D17B6818
:1007000000221A6462B6C04600231800BD4602B03B
:1007100080BD80B584B000AF78607B689B6C002B97
:1007200001D100231CE072B6C0467B685B6C591C8B
:100730007A6851640F22BA187968CB5C13707B68B1
:100740005B6C402B02D17B6800225A647B689B6CF7
:100750005A1E7B689A6462B6C0460F23FB181B784A
:100760001800BD4604B080BD80B582B000AF78608F
:100770007B689B6C1800BD4602B080BD80B582B01E
:1007800000AF78600B4B1B68002B09D101235B4243
:100790000BE07B685A1C7A6019000120FFF72EFEDF
:1007A0007B681B78002BF4D100231800BD4602B0F3
:1007B00080BDC0460001002080B582B000AF0200BD
:1007C000FB1D1A70FB1D19000120FFF717FEC04624
:1007D000BD4602B080BD80B500AF044B1800FFF7E6
:1007E00098FF03001800BD4680BDC0466800002089
:1007F000B0B584B000AF786039601E4B1B68002B29
:1008000002D101235B4231E00023FB600B23FB1884
:1008100000221A7017E0C046174B1800FFF7A4FF1C
:10082000031EF9D00B257C19134B1800FFF771FF3D
:1008300003002370FB685A1CFA601A007B689B183F
:100840007A1912781A703B68013BFA689A4204DA06
:100850000B23FB181B780D2BDDD1FB68002B04DD6F
:10086000FB687A68D31800221A70FB681800BD462E
:1008700004B0B0BD000100206800002090B583B036
:1008800000AFFC1DFFF7A7FF03002370FB1D1B78C3
:100890001800FFF791FFFB1D1B781800BD4603B041
:1008A00090BDB0B584B000AF78603960214B1B6853
:1008B000002B02D101235B4237E00023FB600B23B6
:1008C000FB1800221A701DE0C0461B4B1800FFF7F2
:1008D0004BFF031EF9D00B257C19174B1800FFF7AF
:1008E00018FF030023702C003B191B781800FFF73A
:1008F00063FFFB685A1CFA601A007B689B183A1960
:1009000012781A703B68013BFA689A4204DA0B23AA
:10091000FB181B780D2BD7D1FB68002B04DDFB687F
:100920007A68D31800221A70FB681800BD4604B01C
:10093000B0BDC046000100206800002090B585B021
:1009400000AF78603960184B1B68002B02D101237F
:100950005B4224E00023FB600AE0FB685A1CFA605B
:100960003A68D418114B180000F0ABF9030023705B
:100970007B68013B1A00FB68934205D20B4B1800C1
:1009800000F0CAF9031EE8D1FB68002B06D03A68D4
:10099000FB68D31800221A70FB6800E000231800DF
:1009A000BD4605B090BDC046A40100200C0100204A
:1009B00080B584B000AF78603960224B1B68002B93
:1009C00002D101235B4238E07B683F2B0BDCC04641
:1009D0001D4B180000F0A0F903004022D21A7B68DA
:1009E0009A42F5D302E002235B4226E00023FB603B
:1009F0000BE03A68FB68D3181A78134B1100180003
:100A000000F02EF9FB680133FB607B68FA689A42BC
:100A1000EFD30E4B1B68082213400DD10B4B1A6805
:100A20000A4B08210A431A60074B180000F049F9E5
:100A300003001A00054B9A6200231800BD4604B05B
:100A400080BDC046A40100205801002000440040A1
:100A500080B584B000AF786072B6C046454B0022C6
:100A60009A64444B9A6C434B5A64424B5A6C414BC8
:100A70001A64414B00229A643F4B9A6C3E4B5A6475
:100A80003D4B5A6C3C4B1A643C4B01221A603C4B68
:100A900000221A603B4BDA6A3A4B01210A43DA62C0
:100AA000394BFB607968F86800F04EFC0300FB608E
:100AB000A023DB059A68A023DB05802149050A43B2
:100AC0009A60A023DB055A68A023DB052F490A4062
:100AD0005A60A023DB051B682D4A1A40A023DB05C2
:100AE000802189050A431A60A023DB055A6AA023E6
:100AF000DB058021C9040A435A62A023DB051B6879
:100B00009B009A08A023DB05802109060A431A608E
:100B1000A023DB055A6AA023DB058021C9050A430F
:100B20005A62184B9A6B174B802189020A439A63C9
:100B3000184B1A68174B6C210A431A60154B002298
:100B40005A60144B00229A60124BFA68DA60114B1B
:100B50001A68104B01210A431A600F4B1A680E4B9A
:100B6000802149050A431A6062B6C046C046BD46A8
:100B700004B080BD0C01002058010020A401002019
:100B8000A8010020001002400048E801FFBFFFFF5D
:100B9000FFFFFFCF0044004000E100E080B500AF60
:100BA000084BDB698022134001D000F025F8054B8B
:100BB000DB692022134001D000F006F8C046BD4694
:100BC00080BDC0460044004080B500AF074B5B6A63
:100BD000DAB2074B1100180000F042F8031E02D0F1
:100BE000044B01221A60C046BD4680BD004400404F
:100BF0000C010020A801002080B500AF164B1800A2
:100C000000F08AF8031E08D0134B180000F059F8C2
:100C100003001A00114B9A621BE0104B1A680F4B2D
:100C200008218A431A600D4BDB694022134005D02E
:100C30000A4B1A6A094B40210A431A62074BDB69C7
:100C40008022134005D0054B9A69044B10210A43BA
:100C50009A61C046BD4680BD580100200044004056
:100C600080B582B000AF78600A00FB1C1A707B6808
:100C70001A6C7B685B6C9A4205D17B689B6C002B7D
:100C800001D0012319E072B6C0467B681B6C591C69
:100C90007A6811647A68F91C0978D1547B689B6C76
:100CA0005A1C7B689A647B681B6C402B02D17B6862
:100CB00000221A6462B6C04600231800BD4602B086
:100CC00080BD80B584B000AF78607B689B6C002BE2
:100CD00001D100231CE072B6C0467B685B6C591CD6
:100CE0007A6851640F22BA187968CB5C13707B68FC
:100CF0005B6C402B02D17B6800225A647B689B6C42
:100D00005A1E7B689A6462B6C0460F23FB181B7894
:100D10001800BD4604B080BD80B582B000AF7860D9
:100D20007B689B6C1800BD4602B080BD80B582B068
:100D300000AF78600B4B1B68002B09D101235B428D
:100D40000BE07B685A1C7A6019000120FFF730FE27
:100D50007B681B78002BF4D100231800BD4602B03D
:100D600080BDC046A401002080B582B000AF020063
:100D7000FB1D1A70FB1D19000120FFF719FEC0466C
:100D8000BD4602B080BD80B500AF044B1800FFF730
:100D900098FF03001800BD4680BDC0460C0100202E
:100DA000B0B584B000AF786039601E4B1B68002B73
:100DB00002D101235B4231E00023FB600B23FB18CF
:100DC00000221A7017E0C046174B1800FFF7A4FF67
:100DD000031EF9D00B257C19134B1800FFF771FF88
:100DE00003002370FB685A1CFA601A007B689B188A
:100DF0007A1912781A703B68013BFA689A4204DA51
:100E00000B23FB181B780A2BDDD1FB68002B04DDBC
:100E1000FB687A68D31800221A70FB681800BD4678
:100E200004B0B0BDA40100200C01002080B500AFCB
:100E3000034B1800FFF770FF03001800BD4680BD8C
:100E40000C01002090B583B000AFFC1DFFF79BFFA5
:100E500003002370FB1D1B781800FFF785FFFB1DA7
:100E60001B781800BD4603B090BDB0B584B000AF8C
:100E700078603960214B1B68002B02D101235B4253
:100E800037E00023FB600B23FB1800221A701DE0E3
:100E9000C0461B4B1800FFF73FFF031EF9D00B2580
:100EA0007C19174B1800FFF70CFF030023702C0070
:100EB0003B191B781800FFF757FFFB685A1CFA60B4
:100EC0001A007B689B183A1912781A703B68013B2C
:100ED000FA689A4204DA0B23FB181B780D2BD7D142
:100EE000FB68002B04DDFB687A68D31800221A70B7
:100EF000FB681800BD4604B0B0BDC046A401002088
:100F00000C01002080B582B000AF164B7B60164B01
:100F10003B6007E07A68131D7B603B68191D3960F0
:100F200012681A603A68114B9A42F3D304E03B68A6
:100F30001A1D3A6000221A603A680D4B9A42F6D3A5
:100F40000C4B3B6004E03B681A1D3A601B689847F5
:100F50003A68094B9A42F6D3C046C046BD4602B035
:100F600080BDC04600380008000000206800002056
:100F7000C4010020003800080038000880B500AF28
:100F80003B4B1A683A4B01210A431A60C046384B62
:100F90001B6804221340FAD0354B0122DA60C046A8
:100FA000334BDB680C221340042BF9D1314B1A6808
:100FB000304B02210A431A602E4B1A682D4B012137
:100FC0000A431A602A4B9A6B294B802149050A4330
:100FD0009A63294B802212011A60C046264B5B6837
:100FE00010221340FAD1224BDA68214B23490A40E0
:100FF000DA601F4BDA681E4B8821C9030A43DA60A6
:101000001B4A1B4BD268DA60194A194BD268DA6066
:10101000174A174BD268DA60154B1A68144B1849F7
:101020000A401A60124B1A68114B802149040A4386
:101030001A60C0460E4B1A6880239B041340F9D0F7
:101040000B4BDA680A4B03218A43DA60084BDA68F3
:10105000074B03210A43DA60C046054BDB680C22CC
:1010600013400C2BF9D1C046C046BD4680BDC046DA
:10107000001002400020024000700040FFFF02FF0D
:10108000FFFFFFFE80B500AF024B1800FFF776FBB5
:10109000FEE7C0468836000880B500AF024B180056
:1010A000FFF76CFBFEE7C046B836000880B582B09B
:1010B00000AF7860FEE780B582B000AF78600123B2
:1010C0005B421800BD4602B080BD80B584B000AF61
:1010D000F860B9607A60044B0C221A6001235B420D
:1010E0001800BD4604B080BDB801002080B500AF37
:1010F000034B0B221A6001235B421800BD4680BDE2
:10110000B801002080B582B000AF786039603B68DC
:10111000802292015A6000231800BD4602B080BDB3
:1011200080B500AF01231800BD4680BD80B582B0F8
:1011300000AF78603960044B16221A6001235B42CD
:101140001800BD4602B080BDB801002080B582B055
:1011500000AF78603960044B1F221A6001235B42A4
:101160001800BD4602B080BDB801002080B584B033
:1011700000AFF860B9607A6000231800BD4604B083
:1011800080BD80B582B000AF786039603B68802256
:1011900092015A6000231800BD4602B080BD80B5A0
:1011A00082B000AF786001235B421800BD4602B0F8
:1011B00080BD80B582B000AF7860044B02221A6017
:1011C00001235B421800BD4602B080BDB80100207B
:1011D00080B582B000AF7860044B0A221A60012308
:1011E0005B421800BD4602B080BDC046B801002079
:1011F00080B582B000AF78607B68022B01D80123F4
:1012000003E0044B09221A6000231800BD4602B017
:1012100080BDC046B801002080B586B000AF7860C0
:10122000124B7B61124B3B61124B1B68002B02D1AE
:10123000104B7A691A600F4B1B68FB600D4B1A68E4
:101240007B68D3183A699A4205D20B4B0C221A607C
:1012500001235B4206E0074B1A687B68D218054BF6
:101260001A60FB681800BD4606B080BDC4010020AE
:1012700000100020B4010020B801002080B588B023
:1012800000AFF860B9607A600023BB61FB68002B97
:1012900022D10023FB611AE0FFF79DFA03001A0038
:1012A00017217B181A70BB685A1CBA607A1812781A
:1012B000D2B21A70BB690133BB617B181B78DBB2F9
:1012C0000A2B01D1BB690EE0FB690133FB61FA69AE
:1012D0007B689A42E0DB05E0054B09221A60012396
:1012E0005B4200E0BB691800BD4608B080BDC04647
:1012F000B801002080B586B000AFF860B9607A60B0
:10130000FB68013B012B11D800237B6109E0BB681E
:101310005A1CBA601B781800FFF74EFA7B6901333C
:101320007B617A697B689A42F1DB05E0054B092213
:101330001A6001235B4200E07B681800BD4606B0DE
:1013400080BDC046B801002003460B437FD4002275
:1013500043088B4274D303098B425FD3030A8B4249
:1013600044D3030B8B4228D3030C8B420DD3FF22B3
:10137000090212BA030C8B4202D31212090265D081
:10138000030B8B4219D300E0090AC30B8B4201D334
:10139000CB03C01A5241830B8B4201D38B03C01A7B
:1013A0005241430B8B4201D34B03C01A5241030BF2
:1013B0008B4201D30B03C01A5241C30A8B4201D3A3
:1013C000CB02C01A5241830A8B4201D38B02C01A4E
:1013D0005241430A8B4201D34B02C01A5241030AC5
:1013E0008B4201D30B02C01A5241CDD2C3098B42AA
:1013F00001D3CB01C01A524183098B4201D38B0127
:10140000C01A524143098B4201D34B01C01A5241C9
:1014100003098B4201D30B01C01A5241C3088B420E
:1014200001D3CB00C01A524183088B4201D38B00F9
:10143000C01A524143088B4201D34B00C01A52419B
:10144000411A00D201465241104670475DE0CA0F72
:1014500000D04942031000D34042534000229C4632
:1014600003098B422DD3030A8B4212D3FC2289013C
:1014700012BA030A8B420CD3890192118B4208D312
:10148000890192118B4204D389013AD0921100E074
:101490008909C3098B4201D3CB01C01A5241830988
:1014A0008B4201D38B01C01A524143098B4201D3B5
:1014B0004B01C01A524103098B4201D30B01C01AE0
:1014C0005241C3088B4201D3CB00C01A524183085A
:1014D0008B4201D38B00C01A5241D9D243088B42B0
:1014E00001D34B00C01A5241411A00D20146634653
:1014F00052415B10104601D34042002B00D54942B7
:10150000704763465B1000D3404201B5002000F0F5
:1015100005F802BD0029F8D016E770477047C046AD
:101520000EB410B5040083B0002802D08369002BEC
:101530000BD006AB2000059AA168019301F05CF87E
:1015400003B010BC08BC03B0184700F001FCF0E782
:101550000FB410B50B4B82B01C68002C02D0A369ED
:10156000002B0BD005AB2000049AA168019301F079
:1015700043F802B010BC08BC04B01847200000F0CB
:10158000E7FBEFE70400002070B504000D00002821
:1015900002D08369002B05D029002000A26801F049
:1015A00077FB70BD00F0D4FBF6E7C046094B70B581
:1015B0001C680500002C02D0A369002B05D029006F
:1015C0002000A26801F064FB70BD200000F0C0FBA9
:1015D000F5E7C0460400002070B506000D000028A5
:1015E00037D08369002B32D084682F4B9C423AD08D
:1015F0002E4B9C4244D02E4B9C4252D0A3891B07B9
:1016000035D52369002B32D02978002911D0A36861
:101610000135013BA360002B04DAA269934231DB60
:101620000A292FD023685A1C2260197029780029B2
:10163000EDD1A368013BA360002B2CDA22000A2124
:10164000300000F07DF8431C17D00A2070BD00F078
:101650007FFBB369B468002BC7D1300000F078FB82
:10166000114B9C42C4D17468A3891B07C9D42100C3
:10167000300000F0DBF80028C6D001204042E5E74A
:10168000B468BBE72200300000F05AF8431CBBD11D
:1016900001204042DAE723685A1C22600A221A70AD
:1016A000D3E7F468AAE7C0461C370008FC360008F8
:1016B000DC36000810B5034B01001868FFF78CFFFB
:1016C00010BDC046040000200CB400B59DB00291CE
:1016D000069109491EAB07910491084904CB059175
:1016E00002A9019300F032FE0023029A13701DB08C
:1016F00008BC02B01847C046FFFFFF7F0802FFFF8B
:101700000EB400B50B499CB0079104910A491DAB7A
:1017100005910A4904CB02900690086802A901933A
:1017200000F014FE0023029A13701CB008BC03B032
:101730001847C046FFFFFF7F0802FFFF040000209C
:10174000F8B505000E001400002802D08369002BB4
:1017500029D02D4B9C422BD02C4B9C4246D02C4B5D
:101760009C424ED0A369A360A3891B0726D5236999
:10177000002B23D0FF212268F7B20E406169D31AF3
:1017800099422ADD0133A1680139A160511C216011
:10179000177062699A422BD0A389DB0701D50A2E04
:1017A00026D03000F8BD00F0D3FA174B9C42D3D1BD
:1017B0006C68A369A360A3891B07D8D42100280003
:1017C00000F034F8002819D1FF2123692268F7B20C
:1017D0000E406169D31A9942D4DC2100280000F040
:1017E00039F900280AD101232268CCE7AC68B9E7AF
:1017F0002100280000F02EF90028D2D001267642E0
:10180000CFE7EC68AEE7C0461C370008FC3600089E
:10181000DC360008030010B50A0003490868190007
:10182000FFF78EFF10BDC046040000203E4B70B590
:101830001D6806000C00002D02D0AB69002B1BD0E8
:101840003A4B9C421ED03A4B9C424CD0394B9C4266
:1018500060D00C23E25EA389190719D521690029FC
:1018600021D0D80730D50020A06060694042A06137
:101870000020002930D070BD280000F069FA2B4B01
:101880009C42E0D16C680C23E25EA3891907E5D481
:10189000D90641D55B0728D4216908231A43A281C0
:1018A00093B20029DDD1A02080258000AD00184032
:1018B000A842D6D02100300000F0B6FA0C23E25E38
:1018C000A3892169D807CED400209D0700D4606980
:1018D000A06000200029CED11B06CCD540231A439E
:1018E000A2810138C7E7AC68B3E7616B00290AD071
:1018F00023004433994204D0300000F06FFB0C23E6
:10190000E25E0023636324239A430023216963601A
:101910002160C2E7EC689CE7092333604023012083
:101920001A43A2814042A6E7040000201C370008A9
:10193000FC360008DC360008F0B5C64600B58B89D9
:1019400080460C001A0743D44A68002A61DDE56A24
:10195000002D39D042464146166800220A60DA045A
:101960005BD4012300224046216AA847431C5FD074
:10197000A389E56A5B0706D56368C01A636B002B11
:1019800001D0236CC01A00230200216A4046A847F8
:10199000431C44D143461B68002B40D01D2B01D073
:1019A000162B4DD100236360236923604346616B8E
:1019B0001E60002908D023004433994202D04046DB
:1019C00000F00CFB00236363002080BCB846F0BD30
:1019D0000E69002EF8D00A680E60951B00229B0746
:1019E00000D14A69A260002D04DCEDE736182D1AFB
:1019F000002DE9DD2B0032004046216AA76AB84776
:101A00000028F3DC40220120A38940421343A38134
:101A1000DBE70A6C002A9ADCD6E7606DAAE70023B0
:101A2000636023692360A389DB04BFD56065BDE7DC
:101A300043461B68002B9BD01D2B06D0162B04D0D1
:101A40004022A3891343A381BFE7434600201E60C1
:101A5000BBE7C0460B6970B505000C00002B16D023
:101A6000002802D08369002B15D00E4B9C4210D069
:101A70000D4B9C4212D00D4B9C4211D00C22A35E08
:101A8000002B04D021002800FFF756FF00E00020C3
:101A900070BD6C68F2E700F05BF9E6E7AC68EDE773
:101AA000EC68EBE71C370008FC360008DC36000861
:101AB00070B5041E29D00369002B1DD0184B1D687A
:101AC000002D02D0AB69002B18D0164B9C420ED0D3
:101AD000154B9C421FD0154B9C421ED00C22A35E7E
:101AE000002B09D021002800FFF726FF70BD6C688D
:101AF0000C22A35E002BF5D10020F7E7280000F0B0
:101B000027F9084B9C42E3D1F1E7094B09491868D2
:101B100000F066F9EAE7AC68E0E7EC68DEE7C046AB
:101B2000040000201C370008FC360008DC360008E2
:101B30003C370008551A00080020704710B50249CC
:101B400000F04EF910BDC046551A0008002070473D
:101B500070B568254A1E55430E002900743100F007
:101B60009DFA041E09D000232A00036046600C3051
:101B70000021A060683200F0DDF9200070BDC04691
:101B8000F0B5C646274B07001E6800B5B369002BA9
:101B90002AD00423984648367368B468013B03D5BD
:101BA0001DE06834013B1AD30C22A55E002DF8D14C
:101BB00020001D4B08220021656625606560A56038
:101BC000E36025616561A5615C3000F0B3F9656390
:101BD000A563A564E564200080BCB846F0BD356807
:101BE000002D05D02E00D7E7300000F01FF8D0E719
:101BF000D6213800490000F051FA041E0DD04346AA
:101C0000D0220560250043600C300021A060520006
:101C100000F090F934602E00BEE70C2330603B608A
:101C2000D9E7C0463C3700080100FFFFF0B5D646B3
:101C30004F464646384BC0B5836200238364C36475
:101C40000365364B82B01B6805000193984260D053
:101C50002800FFF795FF68602800FFF791FFA86054
:101C60002800FFF78DFF6E680024E8600423300031
:101C7000746634607460B460F36034617461B4613C
:101C8000082200215C3000F055F9254B254F9A467B
:101C90007362254B37639946B362244B3662F36215
:101CA000AE6898463000224B746634607460B4604D
:101CB000F36034617461B461082200215C3000F08B
:101CC00039F9534673624B46B36243463763F36256
:101CD0003662EE68174B3000F3600822002174660C
:101CE00034607460B46034617461B4615C3000F07D
:101CF00021F9534673624B46B3624346F3620123B4
:101D000036623763AB6102B0E0BCBA46B146A84662
:101D1000F0BD012383619BE73D1B00083C370008B1
:101D2000AD2D0008452E0008D92D0008192E0008F9
:101D3000090001001200020010B5034B03491868A6
:101D400000F04EF810BDC0463C370008551A000898
:101D5000836910B5002B01D1FFF768FF10BDC046A5
:101D60007047C0467047C0467047C0467047C0467F
:101D700010B5034B0349186800F012F810BDC046B7
:101D800004000020391B000810B5034B03491868F4
:101D900000F006F810BDC046040000204D1B0008EE
:101DA000F0B5C646483088460700002600B57B6877
:101DB000BC685D1E0CD4A389012B06D90E22A35E3C
:101DC000013302D02000C04706436834013DF2D2FF
:101DD0003F68002FEBD1300080BCB846F0BDC04654
:101DE000F8B54746CE4680B50700804689460026AE
:101DF00048377B68BC685D1E0DD4A389012B07D9C9
:101E00000E22A35E013303D021004046C84706439B
:101E10006834013DF1D23F68002FEAD13000C0BCE8
:101E2000B946B046F8BDC046F0B58B8906000C0037
:101E300097B09A0707D52300473323602361012316
:101E4000636117B0F0BD0E22895E00292FDB6A4660
:101E500001F024F8002829DBF023019D1B021D401E
:101E60001D4B9C4665446B425D418027FF00390055
:101E7000300000F013F9002823D08021174AB26205
:101E8000A28920600A43A28120616761002DD8D019
:101E900030000E23E15E01F08FF90028D1D003223B
:101EA000A389934301221343A381CAE7A389002591
:101EB00040271B06D9D53900300000F0EFF8002884
:101EC000DBD10C22A35E9A05BBD4032293430222EA
:101ED0001343A381AFE7C04600E0FFFF3D1B0008AE
:101EE00070B50C001D000E23C95E160096B00029C7
:101EF00014DB6A4600F0D2FF00280FDBF022019BC2
:101F0000120213400A4A944663445A4253412B60DA
:101F10008023DB003360002016B070BD0C22A35E6E
:101F200000222A601B06F3D540233360F3E7C04646
:101F300000E0FFFFF0B50500830749D0541E002ADA
:101F400045D003000326CAB202E00135013C3ED36E
:101F500001332A703342F8D1032C30D9FF220A40D2
:101F6000150215432A0415430F2C34D92700103FBE
:101F70003F093E01B4461E001A0010366644156043
:101F800055609560D5601032B242F8D101373F01FB
:101F9000DB190F270C22274022403C00002A0ED0DC
:101FA0003E1FB608B400A4461A001C1D644420C29B
:101FB000A242FCD103240136B6009B193C40002C00
:101FC00005D0C9B21C19197001339C42FBD1F0BD78
:101FD00003001400C0E72700E2E7C04670B5050023
:101FE000002915D00C1F2368002B23DB280001F0EB
:101FF000EBF9294A1368002B05D0A3420BD92168BD
:10200000601883422DD063602800146001F0DEF96F
:1020100070BDA34210D81A005B68002BF9D110687C
:1020200011188C4219D030D363605460280001F03D
:10203000CDF9EDE7E418D9E711685018A04217D0A0
:1020400023D8216860188342EED118685B68844603
:102050006144216063605460E8E7236818181060E9
:10206000E4E718685B688446614421606360CBE7FD
:1020700020680918501811608342D7D118685B682E
:102080008446614411605360D0E70C2328002B6024
:1020900001F09CF9BCE7C046BC010020F8B5032361
:1020A000CD1C9D43083506000C2D27D20C25A942D6
:1020B00026D8300001F088F9284F3A68002A27D046
:1020C000140004E063682200002B21D01C00236868
:1020D0005B1BF7D40B2B17D86368944235D0536041
:1020E000300001F073F9200007220B30231D9043CC
:1020F000C21A984207D01B1AA35004E0002DD6DA6A
:102100000C2300203360F8BD2360E4182560E7E766
:102110007B68002B1BD02900300000F035FE431CEB
:102120000CD00323C41C9C43A04205D0211A3000CC
:1021300000F02AFE431C01D02560D1E70C233000BB
:10214000336001F043F90020DDE73B60C8E7002180
:10215000300000F019FE7860DDE7C046BC010020C9
:10216000F0B5D6464F464646C0B58F6882460C004D
:1021700016001D009F423BD890228B89D20013424B
:1021800012D13D0008682A00310001F0C7F8A368A9
:102190000020DF1B2368A7609C4665442560E0BCE7
:1021A000BA46B146A846F0BD096922686069521A6C
:1021B000914642001218D00F8218681C52104844F1
:1021C0009046904201D9804602005B0513D511006C
:1021D0005046FFF763FF071E21D04A46216901F0F0
:1021E0004BF8A389134A134080221343A38107E0CD
:1021F0001F000868C7E7504601F0EAF8071E0AD03A
:10220000380043464A46484463619B1A2761206070
:102210002F00A360B7E750462169FFF7DFFE0C23CC
:102220005246136040220120A38940421343A381F8
:10223000B5E7C0467FFBFFFFF0B54E464546DE469C
:102240005746E0B5936883B00D0091460190002B8E
:102250006AD0176808688C6843E09022AB89D20086
:1022600013422ED02969421A934668694200121817
:10227000D00F8218701C521058449046904201D9D9
:10228000804602008020C000034236D01100019831
:10229000FFF704FF041E52D05A46296900F0ECFFF4
:1022A000AB89294A134080221343AB814346200067
:1022B0005A462C61B046340058446B619B1A286022
:1022C000AB604246514601F029F8AB6828681C1BF8
:1022D0004B469B6840449E1B4B46AC6028609E600A
:1022E00022D03B687E689A460837002EF9D0A04677
:1022F000B442B2D93400B046E3E7019801F068F87F
:10230000041ED3D1019C29692000FFF767FE0C232E
:1023100023604022AB8901201343AB814A4600234E
:1023200040429360536003E000234A46002053601C
:1023300003B0F0BCBB46B246A946A046F0BD0C2394
:10234000019A1360E5E7C0467FFBFFFFF0B5DE466C
:10235000574645464E46E0B51C008B8982468B4663
:1023600090469DB01B0603D50B69002B00D1EDE014
:10237000002304AD6B6120336B761033AB7643469C
:102380001B787C4E0394002B74D0444604E06378A1
:102390000134002B00D17AE0252BF8D14346E71A0F
:1023A000444500D077E02378002B63D0012200233E
:1023B00052426A604432671C2B60EB60AB60AB54E6
:1023C000AB6506E00123801B83402A680137134375
:1023D0002B6005223000397800F014FF0028F1D17D
:1023E0002B68DA0602D543222021A9541A0702D508
:1023F00043222B21A95439782A2958D1039A111D37
:1024000012680391002A00DA7CE0EA6079787C1C8B
:102410002E295FD0584B03221800984600F0F2FE98
:10242000002807D04346C01A402383402A6801345D
:1024300013432B602178631C062250489846297666
:1024400000F0E0FE002863D04D4B002B53D003ABCF
:1024500000935A46290050464A4B00E000BF81468F
:102460004B46013306D06B694B446B6143461B7886
:10247000002B8AD15B469B895B0600D572E06869B8
:102480001DB0F0BCBB46B246A946A046F0BD4346CF
:10249000E71A4445EED03B00424659465046FFF706
:1024A0005FFE431CE6D06B69DB196B617BE70800BC
:1024B000303809280BD8EB689A00D31879785B007C
:1024C0001B180800303801370928F5D9EB603C00AB
:1024D0002E299FD161782A2924D1039BA01C1A1D83
:1024E0001B6803926B60002B02DA01235B426B6076
:1024F000A17804008EE70722039B07339343083338
:102500000393B0E75242EA60022213432B607DE757
:1025100003AB00935A46290050461A4B00F074FA58
:1025200081469DE708000023303801346B6009289C
:1025300000D96FE79A00D31861785B001B18080078
:10254000303801340928F5D96B6063E74021FFF783
:10255000A5FD5B4618601861002806D040235A4646
:10256000536105E7012040428AE70C2352460138B7
:10257000136085E740370008483700084C370008EB
:102580000000000061210008936810B5013B9360D2
:10259000002B04DA9469A34207DB0A2905D01368EB
:1025A000581C10600800197010BDFFF7C9F8FBE750
:1025B000F8B505000E00002B0DD01400D71802E06E
:1025C0000134BC4207D0320028002178FFF7DCFF3D
:1025D000431CF5D1F8BD0020FCE7C046936810B558
:1025E0001400002B02D10020536010BD00F06AFCE3
:1025F0000023A3606360F8E7F0B5DE4657464E4619
:102600004546E0B583468A4691461C009FB00028A7
:1026100003D08369002B00D1ABE09E4B9A4500D1DB
:10262000ADE09D4B9A4500D1BBE09C4B9A4500D153
:102630002BE153469B891B0700D4A8E053461B6936
:10264000002B00D1A3E0002306AD6B6120336B7635
:102650001033AB762F3B98464B461978904E059435
:1026600000297AD04C460B0004E063780134002B3B
:1026700000D19AE0252BF8D14B46E31A02934C4542
:1026800000D097E02378002B67D00122002352422C
:102690006A60443201342B60EB60AB60AB54AB65D5
:1026A00006E04346801B83402A68013413432B60B5
:1026B00005223000217800F0A5FD0028F1D12B681B
:1026C000DA0602D543222021A9541A0702D5432253
:1026D0002B21A95421782A2900D07DE0059A111DCB
:1026E00012680591002A00DAABE0EA606178671CA5
:1026F0002E2900D184E06B4C0322200000F082FDE3
:10270000002806D04023001B83402A68013713436A
:102710002B6039787B1C062263489946297600F0A5
:1027200071FD002800D192E0604B002B00D178E0D1
:1027300005AB00935246290058465D4B00E000BFB0
:102740000390039B013308D0039A6B69944663445A
:102750006B614B461978002984D153469B895B06EF
:102760001CD468691FB0F0BCBB46B246A946A0465F
:10277000F0BDFFF7EDFA474B9A4500D051E75B46B5
:102780005B689A4653469B891B0700D556E751461E
:102790005846FFF74BF8002800D154E7012040428B
:1027A000E0E75B469B689A4643E74B46E31A029391
:1027B0004C45D2D05B460027A3461C0005E0029B97
:1027C0000137BB4234D94B46D95D52462000FFF752
:1027D000DBFE431CF3D1C0E70800303809280BD8D2
:1027E000EB689A00D31861785B001B18080030383A
:1027F00001340928F5D9EB6027002E2900D07AE7AB
:1028000079782A292DD1059BB81C1A1D1B680592C1
:102810006B60002B02DA01235B426B60B978070022
:1028200069E70722059B07339343083305938BE73A
:1028300023006A695C4694469B46029B63446B6135
:1028400020E75242EA60022213432B604EE705ABB9
:102850000093524629005846154B00F0D5F80390D6
:102860006FE708000023303801376B60092800D972
:1028700041E79A00D31879785B001B1808003038BC
:1028800001370928F5D96B6035E75B46DB689A4666
:10289000CFE6C0461C370008FC360008DC360008CE
:1028A00040370008483700084C3700080000000097
:1028B000B125000810B504001300034A10680A008F
:1028C0002100FFF799FE10BD04000020F8B557461F
:1028D0004E46DE464546E0B51F000A9B92469946A5
:1028E0000A698B6806000C009A4200DA1A00534607
:1028F0001A604323E35C002B02D0514601320A6088
:1029000021688A065ED55346524606201B6802336C
:10291000136021680A00084209D1E268D31A19221B
:1029200093460022A34490460A00002B42DC432336
:10293000E35C591E8B4192060AD53020E1184331E1
:10294000087045215A1C615CA21843320233117091
:102950002200390030004332C847431C19D00623F7
:1029600022681340042B33D0A368226993423DDDD3
:10297000002188469B1A984400251A3402E001354C
:10298000454533DA0123220039003000C847431C93
:10299000F5D101204042F0BCBB46B246A946A04654
:1029A000F8BD01239C465346E2681B68E044D51AF3
:1029B000454520DD01235A4639003000C847431CF5
:1029C000EFD1E6E706220A4212D05A1E9341BFE732
:1029D00053461968E3682269591ACB43DB170B4049
:1029E0009846A3689342C5DC0029C5DC0020D2E7E5
:1029F00053461B6891E743232268E35C591E8B41D1
:102A000092069AD4A4E7C046F0B54E4699464323B1
:102A10009C4657464546DE468C446346E0B587B043
:102A200003930C00097E90460700109A002914D0E9
:102A30000B00583BDBB2202B4BD892489B00C3586D
:102A40009F462368190602D45B0600D501E113688E
:102A5000191D11601B6862691A600023039D2361C0
:102A60004B46210000933800434605AAFFF72EFF8E
:102A7000431C1FD023692A0041463800C847431C25
:102A800018D023689B071ED5E36805981A1A002AF8
:102A90001BDD26000025193605E0E36805980135A1
:102AA0001A1AAA4211DD0123320041463800C847F4
:102AB000431CF2D10120404207B0F0BCBB46B246F5
:102AC000A946A046F0BDE36805989842F4DA1800DC
:102AD000F2E742232500E154413B42352361432381
:102AE0000022E254BCE72368190602D4590600D537
:102AF000BBE01168081D10600A681600002A75DB2B
:102B0000614B9B460A239A464DE02368180602D47F
:102B10005B0600D5A4E01368181D10601E685A4BB0
:102B20009B466F2900D1A7E00A239A4638E0136834
:102B30002500191D11601A684223E254413B4235B9
:102B40002361CCE71368191D11601D68002128005E
:102B5000626800F057FB002800D190E0401B6060E5
:102B60002061BCE7202321680B43236045217820A6
:102B7000605446498B46190631D459062FD5116841
:102B8000081D0E881060DA0702D520221343236047
:102B900010239A46002E03D1226810339A432260F4
:102BA00043230022E2546368A360002B48DB042225
:102BB000216891432160002E27D1002B42D1039D33
:102BC0005346082B31D0039B5B1B236148E7452309
:102BD0005821E15423682C498B461906CDD511683C
:102BE000081D10600E68CEE72368BFE743222D2141
:102BF000A15462687642A260002A02DB0422934359
:102C00002360214B9B460A239A46039D3000514680
:102C100000F0AAFC5B465B5C013D2B7033000600B4
:102C20005345F3D25346082BCDD12368DB07CAD5D1
:102C3000636822699342C6DC3023013D2B70C2E7F2
:102C4000002EE2D15B4625001A7842234235E25439
:102C5000B6E713686169181D10601B681980FCE6EF
:102C60001368181D1E88106059E71168081D106050
:102C700000228E5E320041E708239A4690E76068A2
:102C800020612CE77C3700085437000868370008BB
:102C900070B505000E001400002802D08369002BD7
:102CA0001AD0164B9C421CD0154B9C421BD0154B86
:102CB0009C4220D0A368013BA360002B05DAA269E7
:102CC000934212DBF3B20A2B0FD0FF20236830406F
:102CD0005A1C22601E7070BDFFF73AF8074B9C42E9
:102CE000E2D16C68E6E7AC68E4E722003100280036
:102CF000FEF726FDEFE7EC68DCE7C0461C3700086E
:102D0000FC360008DC3600081B4B70B51E68050059
:102D10000C00002E02D0B369002B1AD0174B9C4236
:102D20001DD0174B9C421CD0164B9C4221D0A3684F
:102D3000013BA360002B05DAA269934213DBEBB2DF
:102D40000A2B10D0FF20236828405A1C22601D70D7
:102D500070BD3000FEF7FCFF084B9C42E1D1746867
:102D6000E5E7B468E3E7220029003000FEF7E8FC5D
:102D7000EEE7F468DBE7C046040000201C370008DB
:102D8000FC360008DC360008002370B5064D040050
:102D900008002B60FEF740FA431C00D070BD2B6882
:102DA000002BFBD02360F9E7B801002070B50C00C0
:102DB0000E25495F00F034FB002803DB636D1B1810
:102DC000636570BDA389024A1340A381F9E7C04639
:102DD000FFEFFFFF00207047F8B50C001F000C2329
:102DE000C95E05001600CB050AD40A4B3200194013
:102DF0002800A1810E23E15E3B0000F029F8F8BD18
:102E00000E23E15E0022022300F0E8F90C23E15ECC
:102E1000EBE7C046FFEFFFFF70B50C000E25495FE2
:102E200000F0DCF9431C06D08023A2895B01134328
:102E3000A381606570BDA389014A1340A381F9E7AE
:102E4000FFEFFFFF10B50E23C95E00F015F810BDAF
:102E500070B50400080011001A000023054D2B6016
:102E6000FEF748FA431C00D070BD2B68002BFBD046
:102E70002360F9E7B8010020002370B5064D040077
:102E800008002B60FEF717F9431C00D070BD2B68BB
:102E9000002BFBD02360F9E7B8010020002370B5B8
:102EA000074D0400080011002B60FEF72BF9431CAE
:102EB00000D070BD2B68002BFBD02360F9E7C04623
:102EC000B8010020F0B5DE46454657464E46E0B50F
:102ED000936883460C00904683B0002B23D08B89E7
:102EE0001A0728D50A69002A25D0424616689A078B
:102EF0002DD50027AC4B00259946BA46002D58D059
:102F00002B004D4500D9A84B52465846216AA76A66
:102F1000B847002858DD43469B6882442D1A181A8A
:102F200043469860EAD1002003B0F0BCBB46B246ED
:102F3000A946A046F0BD21005846FEF777FC0028C0
:102F400000D02DE14246A38916689A07D1D4DA074A
:102F500042D4002200279146002F25D080229200E3
:102F6000A568134200D180E0AA46BD4200D9AFE077
:102F70009022D200134200D0BBE02068524649465E
:102F800000F0CCF9A3685D1BA5603D000027236815
:102F90005344236043469B68A9445D1B43469D60A0
:102FA000C1D0A389002FD9D13268776891460836FD
:102FB000D2E7336875689A4608369FE72100019882
:102FC000FEF748FD00282FD00C22A35E40220120EE
:102FD0001343A3814042A7E700230022B146002704
:102FE0001E005B46002092460193002F27D0002848
:102FF0002FD03300BB469F4200D99B4620682269F0
:103000006369904204D9A2689D18AB4500DD9EE03B
:103010005B4561DCA56A5246216A0198A847051EF6
:10302000D2DD0120761BC9D043469B68AA447F1B92
:103030005D1B43469D6000D175E7002FD7D14B46FD
:103040001B689A464B465F6808239C46E144002F64
:10305000F5D03A000A21504600F0D4F8002800D1FB
:1030600095E053460130C61AC3E7206823699842A9
:1030700016D863699A46BB4212D84C4B38009F421F
:1030800000D94B485146FEF75FF95346A56A4343C2
:103090004A465846216AA847051E95DD7F1B79E7F9
:1030A000BD4200D93D002A00494600F037F9A36827
:1030B00022685B1B5219A3602260002BEED1210015
:1030C0005846FEF7C7FC002800D07DE77F1B61E76C
:1030D0003D00BA46206851E75A46514600F01EF9B5
:1030E0005A46A3685D469B1AA36023685B4423602D
:1030F00097E7606922682169551A42001218D00FBB
:103100008218681C5210C01992460195904201D94C
:10311000824602005B0529D511005846FEF7BEFF26
:10312000051E37D0019A216900F0A6F8A389214A2B
:10313000134080221343A3815246019B2561E81866
:10314000D31A3D00BA4620606261A36016E751467B
:103150002A0000F0E3F8236821005B19019823603E
:10316000FEF778FC002800D15BE72DE7584600F019
:103170002FF9051EE0D121695846FEF72FFF802266
:103180005946A3899343743A1BB20A601EE77B1C1D
:103190001E002FE70C235A4613600C22A35E15E78E
:1031A00001204042C0E6C04600FCFF7FFEFFFF7FDB
:1031B000FFFFFF7F7FFBFFFF002370B5064D04007C
:1031C00008002B60FEF714F8431C00D070BD2B687C
:1031D000002BFBD02360F9E7B801002070B5040094
:1031E000080011001A000023054D2B60FDF7BEFFFB
:1031F000431C00D070BD2B68002BFBD02360F9E787
:10320000B801002070B5CCB283070DD0531E002A40
:103210000FD0032504E00130284206D0013B08D33B
:103220000278A242F7D170BD1300032B0CD8002BFB
:1032300001D10020F7E7C31802E001308342F8D043
:103240000278A242F9D1EEE7FF2529400D02294379
:103250000D04074E0D43026806496A405118914318
:103260003142E8D1043B0430032BF4D8DFE7C046F9
:1032700080808080FFFEFEFEF0B5C64600B50F2AB6
:1032800041D903270D003E0005430C0003002E40EA
:103290002F423DD11500103D2D09A8462D01AC4609
:1032A000844427681D001F6067685F60A7689F608F
:1032B000E7681034DF6010336545F2D145460F23CF
:1032C0000C2401352D01491913404519144222D00F
:1032D0008C59AC5104369C1B032CF9D8043B9B0839
:1032E00001339B00ED18C91803231A40561E002A0B
:1032F00006D00023CC5C1A00EC5401339642F9D17D
:1033000080BCB846F0BD0500561E002AF1D1F7E793
:103310000500561EEDE71A00F6E7C046F0B58842F4
:103320000AD98B18984207D2531E002A03D0CA5CD0
:10333000C254013BFBD2F0BD0F2A0BD80500561E2C
:10334000002AF8D00023CC5C1A00EC5401339642DA
:10335000F9D1F0E703270D003E0005430C00030000
:103360002E402F422BD11500103D2D09AC462F01C8
:103370003F1825681D6065685D60A5689D60E5680B
:103380001034DD601D001033BD42F2D165460F23BD
:103390000C2401352D01491913404519144211D04F
:1033A0008C59AC5104369C1B032CF9D8043B9B0868
:1033B00001339B00ED18C91803231A40BFE705002D
:1033C000561EBFE71A00BAE77047C0467047C046AE
:1033D000F8B506000C00150000291BD0002A15D0F6
:1033E00000F032F82700A84201D33800F8BD2900C8
:1033F0003000FEF753FE071EF7D021002A00FFF72A
:103400003BFF21003000FEF7E9FDEEE7FEF7E6FDA9
:103410000027EAE71100FEF741FE0700E5E7C04696
:1034200070B50400080011001A000023054D2B6040
:10343000FDF724FF431C00D070BD2B68002BFBD090
:103440002360F9E7B80100200B1F1B68181F002B31
:1034500000DB70470B58C018FBE7C046002243084A
:103460008B4274D303098B425FD3030A8B4244D34C
:10347000030B8B4228D3030C8B420DD3FF2209028E
:1034800012BA030C8B4202D31212090265D0030B4D
:103490008B4219D300E0090AC30B8B4201D3CB0343
:1034A000C01A5241830B8B4201D38B03C01A524185
:1034B000430B8B4201D34B03C01A5241030B8B4287
:1034C00001D30B03C01A5241C30A8B4201D3CB0272
:1034D000C01A5241830A8B4201D38B02C01A524157
:1034E000430A8B4201D34B02C01A5241030A8B425A
:1034F00001D30B02C01A5241CDD2C3098B4201D372
:10350000CB01C01A524183098B4201D38B01C01AEF
:10351000524143098B4201D34B01C01A5241030966
:103520008B4201D30B01C01A5241C3088B4201D315
:10353000CB00C01A524183088B4201D38B00C01AC2
:10354000524143088B4201D34B00C01A5241411AE9
:1035500000D20146524110467047FFE701B50020F6
:10356000FDF7DCFF02BDC0460029F7D076E77047C3
:10357000436F6D6D616E643A202573005265737000
:103580006F6E73653A202573000000000D0A4A44EF
:10359000592D343020746573740D000041542B4450
:1035A000564944414242410D0A00000041542B5605
:1035B00045520D0A0000000041542B424155440D74
:1035C0000A00000041542B524649440D0A000000F5
:1035D00041542B445649440D0A00000041542B52DB
:1035E00046430D0A0000000041542B504F57450D33
:1035F0000A00000041542B434C53530D0A000000B5
:103600000D0A507265737320616E6420686F6C647C
:10361000206120707573682D627574746F6E2061FF
:103620007474616368656420746F20504138202889
:1036300070696E2031382920746F207472616E7346
:103640006D69742E0D0000004A44593430207465B1
:1036500073742025640D0A0052583A202573000027
:103660000D0A52657475726E65642066726F6D2006
:103670006D61696E28292E202053797374656D2041
:1036800073746F702E000000496E746572727570ED
:103690007420776974686F75742068616E646C65F6
:1036A000722028495352292E202053797374656D56
:1036B0002073746F702E000048617264204661753B
:1036C0006C7420696E746572727570742E2020534C
:1036D000797374656D2073746F702E0000000000A4
:1036E00000000000000000000000000000000000DA
:1036F00000000000000000000000000000000000CA
:1037000000000000000000000000000000000000B9
:1037100000000000000000000000000000000000A9
:103720000000000000000000000000000000000099
:103730000000000000000000000000000800002061
:10374000232D302B20000000686C4C006566674517
:10375000464700003031323334353637383941424C
:1037600043444546000000003031323334353637AB
:10377000383961626364656600000000CE2B000882
:10378000D22A0008D22A0008D22A0008D22A000829
:10379000D22A0008D22A0008D22A0008D22A000819
:1037A000D22A0008D22A00082E2B0008E62A000898
:1037B000D22A0008D22A0008D22A0008D22A0008F9
:1037C000E62A0008D22A0008D22A0008D22A0008D5
:1037D000D22A0008422A00080A2B0008642B00089D
:1037E000D22A0008D22A0008442B0008D22A000856
:1037F0000A2B0008D22A0008D22A0008E82B000869
:10380000B001002008000020000000001C37000864
:10381000FC360008DC360008000000000000000054
:103820000000000000000000000000000000000098
:103830000000000000000000000000000000000088
:103840000000000000000000000000000000000078
:103850000000000000000000000000000000000068
:08386000000000000000000060
:04000005080000B936
:00000001FF
