:100000000200037581361200DEE582600302006F94
:10001000780079007A007B007C007D00EC4D601C4C
:1000200088828983E493A3A882A9838A828B83F040
:10003000A3AA82AB831CBCFFE31D80E07582007520
:1000400083007C007D00EC4D600AE4F0A31CBCFF43
:10005000F51D80F27582007583007C007D00EC4DFB
:10006000600AE4F0A31CBCFFF51D80F21200DD1253
:1000700003AA80FE457874656E73696F6E2074798B
:1000800070653A20253032782020253032782020C3
:1000900025303278202025303278202025303278E3
:1000A0002020253032780A0048656C6C6F0A0061A8
:1000B0006464723A2025780A0048656C6C6F20579A
:1000C0006F726C640A0057484F414D493A202578B9
:1000D0000A003C4E4F20464C4F41543E002275A72B
:1000E000007597DE7597AD75FF8075EF0675A710E3
:1000F00075C12075A70075A90075A900E5A930E7AD
:10010000FB75A90375A903E5A930E7FB7598107580
:100110008DE6858D8B53890F438920D28ED29943EA
:10012000A41075E10575E20075E340438E04538920
:10013000F0438902758C10758A10D28C75C15C43AE
:10014000C18075820022AA82ABA775A71043A601C1
:1001500075A2C075A3E685A2A485A3A5C29FD29A65
:100160007C00C3EC9A5008109F0280FB0C80F3C205
:100170009A8BA7228582C2C2C030C0FD22C2C03085
:10018000C0FD85C28222D2C1D2C5C2C4C2C030C0A5
:10019000FDC2C522D2C4C2C0221201867582A41239
:1001A00001747582F0120174758255120174120186
:1001B000947582011201461201867582A41201749F
:1001C0007582FB120174758200120174120194751C
:1001D00082011201461201867582A4120174758291
:1001E000FA120174120194758203120146120186FB
:1001F0007582A51201747A00BA06005015EA240926
:10020000F8C002C00012017DE582D000D002F60ADB
:1002100080E6C2C112019475820312014630004B80
:10022000AA0E7B00AC0D7D00850C0F751000850BB0
:1002300011751200850A13751400AE097F00C00203
:10024000C003C004C005C00FC010C011C012C0134D
:10025000C014C006C0077474C0E07400C0E07480AD
:10026000C0E0120433E58124F1F581120186758224
:10027000A41201747582F01201747582AA120174BD
:100280001201947582011201461201867582A41230
:1002900001747582401201747582001201747582B6
:1002A00000120174758200120174758200120174CB
:1002B0007582001201747582001201741201947526
:1002C00082011201461201867582A41201747582A0
:1002D000401201747582001201747582001201745B
:1002E0007582001201747582001201747582001209
:1002F0000174758200120174120194758201120159
:10030000461201867582A41201747582401201742E
:1003100075820012017475820012017475820012D8
:100320000174758200120174120194758201020138
:1003300046AA82AB83ACF0C002C003C0041201869F
:100340007582A412017475820012017412019475F1
:1003500082031201461201867582A5120174D0042F
:10036000D003D0027D00BD0600503AED2AFEE43BEA
:10037000FF8C00C002C003C004C005C006C007C097
:100380000012017DE582D000D007D006D005D00450
:10039000D003D00264172417F98E828F8388F0125D
:1003A00004540D80C1C2C102019474A8C0E074005D
:1003B000C0E07480C0E0120433158115811581748A
:1003C000EBC0E0E4C0E074AFC0E07400C0E0748053
:1003D000C0E0120433E58124FBF58174B9C0E074F8
:1003E00000C0E07480C0E0120433158115811581CE
:1003F00012018675827512017412017DAA82C002F3
:100400001201947B00C00374C6C0E07400C0E074A5
:1004100080C0E0120433E58124FBF58180D2020A1A
:100420008D85823085833185F03285173390041EA7
:100430000204F6C008858108E50824FBF533E508C9
:1004400024FBF8863008863108863290041E120498
:10045000F6D0082220F71030F6118883A88220F504
:1004600007F6A88375830022F280F7F022AA82742F
:100470007EC0E07404C0E0C022C0238A8222052925
:10048000E4B52902052A22AA8274302AFA24C65029
:100490000A74072AFA3001034302208A8202046D9B
:1004A000E582FAC4540FF582C002120487D00274A8
:1004B0000F5AF582020487AA24AB25AC26AD27AEDD
:1004C00028752F20EE2EFEED235401FF4206EA2A66
:1004D000FAEB33FBEC33FCED33FDC3EE952B400818
:1004E000EEC3952BFE430201D52FD98A248B258C90
:1004F000268D278E2822858222858323E4F529F5FF
:100500002AAA30AB31AC328A828B838CF0120AA2D9
:10051000FD74012AF530E43BF5318C32EDFA7003BD
:10052000020A86BA25028003020A7EC205C206C2FA
:1005300007C208C209C20AC20BC20CC202C203C26D
:1005400004752B00752C00752DFFAB30AC31AD322E
:100550008B828C838DF0120AA2FAA3AB82AC838BC0
:10056000308C318D32BA25078A8212046D80928ACE
:1005700006BE3000402E8A06EE24C6402774FFB522
:100580002D13E52C75F00AA4FEEA24D02EF52C706C
:10059000BFD20680BBE52D75F00AA4FEEA24D02E5A
:1005A000F52D80ACBA2E0A74FFB52DA4752D0080F0
:1005B0009F8A06BE6100400E8A06EE2485400753DE
:1005C00002DFD2018002C201BA20028075BA230381
:1005D000020651BA2A03020656BA2B02805FBA2DD0
:1005E000028055BA4202805FBA430302069BBA44B6
:1005F000030207D6BA45030207F0BA46030207EC26
:10060000BA47030207F4BA49030207D6BA4C02807C
:100610003BBA4E030207F8BA4F030207DDBA500394
:1006200002076FBA53030206BFBA55030207E2BAC4
:1006300058030207E7020822D205020550D207023A
:100640000550D208020550D20A020550D20B02050D
:1006500050D20C02055074FFB52D20300A0BE53343
:1006600014F88833862C020550E53324FEF88833CD
:100670008606088607188E2C020550300A0BE533D3
:1006800014F88833862D020550E53324FEF88833AC
:100690008606088607188E2D020550300A0AE533B3
:1006A00014F888338602800FE53324FEF8883386F9
:1006B00003088604188B028A8212046D020827E55B
:1006C0003324FDF888338603088604088605181845
:1006D0008B248C258D268B828C838DF0120ABEABE9
:1006E00082AC838B2E74FFB52D03852E2D20051D26
:1006F000C3E52E952C5016E52CC3952EF52CAB2C6E
:10070000152CEB600875822012046D80F18524821F
:100710008525838526F0120AA2FBFA6029AB2D15E8
:100720002DC3E464808BF063F08095F050188A82CA
:1007300012046DAB24AC25AD260BBB00010C8B2441
:100740008C258D2680C7200503020827C3E52E953A
:100750002C4003020827E52CC3952EF52CAB2C1555
:100760002CEB700302082775822012046D80EEE5E1
:100770003324FDF888338603088604088605181894
:100780008B248C258D26E526FB30E7047A438013E5
:10079000EB546060047A50800AEB30E6047A4980BA
:1007A000027A588A82C00212046D75823A12046D70
:1007B00075823012046D75827812046DD002BA49C8
:1007C00002800BBA500280068525821204A085247F
:1007D000821204A08051D209752B0A804A752B0819
:1007E0008045752B0A8040752B10803BD2028037E4
:1007F000D2038033D204802FE53324FDF88833867A
:100800000308860408860518188B248C258D268BF2
:10081000828C838DF0E529120454A3E52A12045436
:1008200080058A8212046D20020620030330045AD8
:10083000E53324FCF8883386030886040886050817
:1008400086061818188B248C258D268E277524D2A1
:1008500075250075268085243485253585263674D2
:10086000012534FEE43535FFAB368E248F258B26EB
:100870008534828535838536F0120AA2FBFA70032F
:100880000205018A8212046D80CCE52B70030205FB
:10089000017B1E300A2BE53314F88833E6FC3395D0
:1008A000E0FDFEFF8C248D258E268F2720095EAC6F
:1008B000247D007E007F008C248D258E268F27804E
:1008C0004C300B1FE53324FCF8883386040886057A
:1008D0000886060886071818188C248D258E268F02
:1008E00027802AE53324FEF8883386040886051815
:1008F000ED3395E0FEFF8C248D258E268F27200971
:100900000CAC24AD257E007F008E268F27300C4353
:10091000E52445254526452760397408B52B0C7517
:100920008230C00312046DD00380287410B52B23CD
:10093000758230C00312046DD00330010C758278CB
:10094000C00312046DD003800A758258C0031204DC
:100950006DD003300925AC24AD25AE26E527FF3048
:10096000E717C3E49CFCE49DFDE49EFEE49FFF8C3E
:10097000248D258E268F278002C209752E00D20D68
:100980008B00752800C0001204B7D000200D0DE5C3
:1009900028C4FCE6FD4CF61888038002A628052E24
:1009A000B20DE52445254526452770D68803E52C5C
:1009B0007003752C0120061A200517E52E04FCC3D0
:1009C000952C500E758220C00312046DD003152C97
:1009D00080E930090E75822DC00312046DD0031515
:1009E0002C8024E52E602030070E75822BC0031268
:1009F000046DD003152C800F30080C758220C003C5
:100A000012046DD003152C20051EAC2C152CC3E54B
:100A10002E9C50273006047C3080027C208C82C0C3
:100A20000312046DD00380E2C3E52E952C5009E536
:100A30002CC3952EF52C8003752C008B00AB2E1546
:100A40002EEB6022B20D200D0A08E6C4540FFB8B7A
:100A50002880078603740F5BF528852882C0001262
:100A60000487D00080D7200503020501AB2C152C8C
:100A7000EB700302050175822012046D80EE8A82FC
:100A800012046D020501852982852A8322AA82BA71
:100A90000A0810990280FB75990D10990280FB8A53
:100AA000992220F71430F6148883A88220F507E6EF
:100AB000A88375830022E280F7E49322E022AA82D1
:100AC000AB83ACF07D007E008A828B838CF0120AAF
:100AD000A2FFA3AA82AB83EF60070DBD00EA0E80E0
:100AE000E78D828E832200000000000000000000DD
:00000001FF
