:100000000200037581781200FCE582600302006F34
:10001000780079007A007B007C007D00EC4D601C4C
:1000200088828983E493A3A882A9838A828B83F040
:10003000A3AA82AB831CBCFFE31D80E07582007520
:1000400083007C007D00EC4D600AE4F0A31CBCFF43
:10005000F51D80F27582007583007C007D00EC4DFB
:10006000600AE4F0A31CBCFFF51D80F21200FB1235
:10007000037680FE1B5B324A0045464D38204672AF
:10008000657175656E6379206D6561737572656DF7
:10009000656E74207573696E672054696D65722F83
:1000A000436F756E74657220302E0A46696C653A2E
:1000B0002025730A436F6D70696C65643A2025735F
:1000C0002C2025730A0A004672657145464D382E6C
:1000D00063004D61722033312032303234003231CE
:1000E0003A33373A323400433D256C75206E460072
:1000F0003C4E4F20464C4F41543E002275A70075A0
:1001000097DE7597AD43FF8075EF0275A71075C137
:100110002075A70075A90075A900E5A930E7FB7552
:10012000A90375A903E5A930E7FB43A41075E10114
:1001300075E21075E340759810858E8E758DE68595
:100140008D8B53890F438920D28ED29975820022DC
:10015000AA82438E407592B87593FF8592948593D9
:10016000957591047B00C3EB9A5012E59130E7FB43
:1001700053917F108D02800205220B80E97591005A
:1001800022AA82AB83BA0004BB0001227582F9C0A7
:1001900002C0031201507582F91201507582F912E2
:1001A00001507582FA120150D003D0021ABAFF0131
:1001B0001B80D25389F0438905C28C22D2A075825C
:1001C00028120150C2A022AA828AE0A2E79290A23D
:1001D000E69291A2E59292A2E49293C0021201BC2F
:1001E000758228120150D0028AE0A2E39290A2E226
:1001F0009291A2E19292A2E092930201BCAA82D2D1
:10020000978A821201C7900002020181AA82C297D6
:100210008A821201C7900005020181C2A0900014D9
:1002200012018175823312020C75823312020C7531
:10023000823212020C75822812020C75820C120294
:100240000C75820112020C900014020181AA82AB8B
:1002500083ACF07402B523047DC080027D808D8262
:10026000C002C003C00412020C900005120181D02C
:1002700004D003D0027D007E00ED2AFFEE3BF88C17
:10028000018F82888389F01205E1FF60208F82C090
:1002900002C003C004C005C0061201FDD006D0058F
:1002A000D004D003D0020DBD00CF0E80CC3000248E
:1002B0008D028E03C3EA9410EB6480948050157510
:1002C0008220C002C0031201FDD003D0020ABA008E
:1002D000E30B80E02285822685832785F028E4F5DC
:1002E00029F52AE52424FFFFE52534FFF879007A73
:1002F00000C3E99FEA648088F063F08095F050596C
:10030000C002C007C000C001120740AB82D001D0BC
:1003100000D007D002BB0A028003BB0D1DE52925D2
:1003200026FCE52A3527FDAE288C828D838EF0E4ED
:10033000120753852982852A8322E92526FCEA357E
:1003400027FDAE288C828D838EF0EB12075309B9FE
:1003500000010A89298A2A8098E5292526FAE52AB2
:100360003527FBAC288A828B838CF0E412075385F7
:10037000248285258322E4F52BF52CF52DF52EF529
:100380002FF53075314275326F75336F75346D7579
:10039000352075366D753765753874753965753AFC
:1003A00072753B00753C42753D4F753E4F753F4D34
:1003B00075402075414F75425575435475444F75CE
:1003C000454675465275474175484E754947754AC9
:1003D00045754B001201B39001F41201817474C091
:1003E000E07400C0E07480C0E01206E5158115815C
:1003F000158174DEC0E07400C0E07480C0E074D287
:10040000C0E07400C0E07480C0E074C7C0E0740055
:10041000C0E07480C0E07479C0E07400C0E0748013
:10042000C0E01206E5E58124F4F58112021B752374
:1004300001D20090003175F04012024D758A0075AE
:100440008C00752200C28DD28C9003E8120181C20B
:100450008CAA227B008B638A62756100756000AE96
:100460008C7F007A008A038F028E077E00EE256063
:10047000F560EF3561F561EA3562F562EB3563F5FC
:1004800063AC8AE4FD3395E0FAFBEC2560F511EDF1
:100490003561F512EA3562F513EB3563F514902DED
:1004A000B4E4F5F01205FD12072DAA82AB83ACF07F
:1004B000FDC002C003C004C00590A95075F0AB7424
:1004C0004E120801AA82AB83ACF0FDE58124FCF555
:1004D000818A828B838CF0ED120706AA82AB83ACF3
:1004E000F0FDEA252BF52BEB352CF52CEC352DF515
:1004F0002DED352EF52E052FE4B52F020530852F75
:1005000011853012751300751400852B82852C839C
:10051000852DF0E52E12066BAA82AB83ACF0FDC0F0
:1005200002C003C004C00574E7C0E07400C0E074FA
:1005300080C0E0744CC0E07400C0E07440C0E012C1
:1005400007BBE58124F6F581C3E52F9414E53094CB
:10055000004020E52EC313F52EE52D13F52DE52CD7
:1005600013F52CE52B13F52BE530C313C52F13C55D
:100570002FF530852F118530127513007514008505
:100580002B82852C83852DF0E52E12066BAA82AB7B
:1005900083ACF0FDC3EA94A8EB9461EC9400ED9475
:1005A00000401F752301D20090003C75F0401202FC
:1005B0004D752302D20090003C75F04012024D02AE
:1005C000043C752301D20090003175F04012024DB9
:1005D000752302D20090004C75F04012024D0204C7
:1005E0003C20F71430F6148883A88220F507E6A88B
:1005F0008375830022E280F7E49322E022AAF0FBD5
:10060000E5828511F0A4FCADF0E5838511F0A42D01
:10061000FDE435F0FEE5828512F0A42DFDE5F03E07
:10062000FEE433FFEA8511F0A42EFEE5F03FFFE57E
:10063000838512F0A42EFEE5F03FFFE5828513F0DE
:10064000A42EFEE5F03FFFEB8511F0A42FFFEA8515
:1006500012F0A42FFFE5838513F0A42FFFE5828518
:1006600014F0A42F8EF08D838C8222FB7A20E4FC80
:10067000FDFEFFE5822582F582E58333F583E5F013
:1006800033F5F0EB33FB4017DAE98042E58225824F
:10069000F582E58333F583E5F033F5F0EB33FBECDE
:1006A00033FCED33FDEE33FEEF33FFEC9511ED95AA
:1006B00012EE9513EF95144013EC9511FCED951285
:1006C000FDEE9513FEEF9514FF438201DABEEB2297
:1006D000020F4085827285837385F0748510759052
:1006E00006D00209A9C008858108E50824FBF57534
:1006F000E50824FBF886720886730886749006D095
:100700001209A9D008227F9E120F5530D103020F83
:1007100088C3EF9582500974FFF5F0F583F58222C6
:100720007900120FB689828A838BF0EC22FCABF041
:10073000AA83A982749EC2D1F582120FF9020F67B3
:1007400010980280FBAA998A82C002120F40D00240
:100750008A822220F71030F6118883A88220F507BC
:10076000F6A88375830022F280F7F022AA82AB09F3
:10077000AC0AAD0B8B828C838DF0EA12075305090E
:10078000E4B50902050A2285820985830A85F00BF2
:10079000850C72850D73850E74850F7590076C122C
:1007A00009A9AA82AB83AC09AD0AAE0B8C828D83FA
:1007B0008EF0E41207538A828B8322C00885810859
:1007C000E50824F8F575E50824FBF8860908860A8B
:1007D00008860BE50824F8F8867208867308867484
:1007E00090076C1209A9AA82AB83AC09AD0AAE0BC3
:1007F0008C828D838EF0E41207538A828B83D0081B
:100800002212102C30D502B2D1BF0009BC00030265
:100810000FAB020F9EBC0003020F88E583B4FF0BF1
:10082000E582B4FF03020FAB020F88E582B4FF0339
:10083000020F9EC395835007247F400B020F88242C
:1008400080145003020F9EC0E0E4CCCBCAF98D1196
:100850008E128F13EF54F0C4F5147583068514F0CF
:10086000EB84F582E9C4F9EAC4FAEBC4FBEC540F5B
:10087000C47803D6FC18EBD6FB18EAD6FA8582F0CA
:10088000EDA4A8F0FD8582F0EEA428FEE435F0F892
:100890008582F0EFA428FFE435F0F8E99DF9EA9E9F
:1008A000FAEB9FFBEC98FCAD11AE12AF1330E710E2
:1008B0001582E92DF9EA3EFAEB3FFBE43CFC80EDC2
:1008C000C082D58398C3E933F9EA33FAEB33FBEC02
:1008D00033FCC3E99DEA9EEB9FEC9400B3E413F96B
:1008E000D002D0E0C44AFAD003D0E0C44BFBD0041D
:1008F000D0E0F5F0540FC44CFCD082158230F40FD8
:10090000D3EC13FCEB13FBEA13FAE913F90582E9C4
:1009100030E70A74012AFAE43BFBE43CFC020F7F57
:10092000AA827431C0E07409C0E0C064C0658A82E4
:1009300022056BE4B56B02056C22AA8274302AFA98
:1009400024C6500A74072AFA3001034302208A821F
:10095000020920E582FAC4540FF582C00212093A56
:10096000D002740F5AF58202093AAA66AB67AC68E6
:10097000AD69AE6A757120EE2EFEED235401FF4283
:1009800006EA2AFAEB33FBEC33FCED33FDC3EE95BC
:100990006D4008EEC3956DFE430201D571D98A669C
:1009A0008B678C688D698E6A22858264858365E495
:1009B000F56BF56CAA72AB73AC748A828B838CF086
:1009C0001205E1FD74012AF572E43BF5738C74EDB8
:1009D000FA7003020F39BA25028003020F31C205F3
:1009E000C206C207C208C209C20AC20BC20CC202B6
:1009F000C203C204756D00756E00756FFFAB72ACFB
:100A000073AD748B828C838DF01205E1FAA3AB82F7
:100A1000AC838B728C738D74BA25078A821209207D
:100A200080928A06BE3000402E8A06EE24C64027F9
:100A300074FFB56F13E56E75F00AA4FEEA24D02E9C
:100A4000F56E70BFD20680BBE56F75F00AA4FEEAB2
:100A500024D02EF56F80ACBA2E0A74FFB56FA47542
:100A60006F00809F8A06BE6100400E8A06EE2485D4
:100A700040075302DFD2018002C201BA2002807512
:100A8000BA2303020B04BA2A03020B09BA2B028011
:100A90005FBA2D028055BA4202805FBA4303020B4F
:100AA0004EBA4403020C89BA4503020CA3BA4603AA
:100AB000020C9FBA4703020CA7BA4903020C89BA79
:100AC0004C02803BBA4E03020CABBA4F03020C90AF
:100AD000BA5003020C22BA5303020B72BA55030236
:100AE0000C95BA5803020C9A020CD5D205020A03DF
:100AF000D207020A03D208020A03D20A020A03D268
:100B00000B020A03D20C020A0374FFB56F20300AED
:100B10000BE57514F88875866E020A03E57524FEE8
:100B2000F888758606088607188E6E020A03300A52
:100B30000BE57514F88875866F020A03E57524FEC7
:100B4000F888758606088607188E6F020A03300A31
:100B50000AE57514F888758602800FE57524FEF89D
:100B600088758603088604188B028A82120920027F
:100B70000CDAE57524FDF888758603088604088676
:100B80000518188B668C678D688B828C838DF012AC
:100B9000105AAB82AC838B7074FFB56F0385706F96
:100BA00020051DC3E570956E5016E56EC39570F572
:100BB0006EAB6E156EEB600875822012092080F115
:100BC0008566828567838568F01205E1FBFA6029F6
:100BD000AB6F156FC3E464808BF063F08095F050C9
:100BE000188A82120920AB66AC67AD680BBB0001A6
:100BF0000C8B668C678D6880C7200503020CDAC3F6
:100C0000E570956E4003020CDAE56EC39570F56EE3
:100C1000AB6E156EEB7003020CDA758220120920A0
:100C200080EEE57524FDF88875860308860408863D
:100C30000518188B668C678D68E568FB30E7047AC9
:100C4000438013EB546060047A50800AEB30E60472
:100C50007A4980027A588A82C00212092075823A43
:100C6000120920758230120920758278120920D06D
:100C700002BA4902800BBA500280068567821209C7
:100C8000538566821209538051D209756D0A804AD4
:100C9000756D088045756D0A8040756D10803BD27A
:100CA000028037D2038033D204802FE57524FDF80B
:100CB0008875860308860408860518188B668C6775
:100CC0008D688B828C838DF0E56B120753A3E56CE6
:100CD00012075380058A821209202002062003038E
:100CE00030045AE57524FCF88875860308860408E4
:100CF00086050886061818188B668C678D688E69BD
:100D00007566F07567007568808566768567778596
:100D1000687874012576FEE43577FFAB788E668FB0
:100D2000678B688576828577838578F01205E1FB8D
:100D3000FA70030209B48A8212092080CCE56D7032
:100D4000030209B47B1A300A2BE57514F88875E69E
:100D5000FC3395E0FDFEFF8C668D678E688F692001
:100D6000095EAC667D007E007F008C668D678E68B4
:100D70008F69804C300B1FE57524FCF8887586045C
:100D80000886050886060886071818188C668D6779
:100D90008E688F69802AE57524FEF88875860408B8
:100DA000860518ED3395E0FEFF8C668D678E688FA3
:100DB0006920090CAC66AD677E007F008E688F6984
:100DC000300C43E56645674568456960397408B588
:100DD0006D0C758230C003120920D0038028741076
:100DE000B56D23758230C003120920D00330010C89
:100DF000758278C003120920D003800A758258C01A
:100E000003120920D003300925AC66AD67AE68E552
:100E100069FF30E717C3E49CFCE49DFDE49EFEE41B
:100E20009FFF8C668D678E688F698002C20975701E
:100E300000D20D8B00756A00C00012096AD0002034
:100E40000D0DE56AC4FCE6FD4CF61888038002A689
:100E50006A0570B20DE56645674568456970D688D4
:100E600003E56E7003756E0120061A200517E57004
:100E700004FCC3956E500E758220C003120920D069
:100E800003156E80E930090E75822DC0031209200A
:100E9000D003156E8024E570602030070E75822B1C
:100EA000C003120920D003156E800F30080C758224
:100EB00020C003120920D003156E20051EAC6E154C
:100EC0006EC3E5709C50273006047C3080027C2085
:100ED0008C82C003120920D00380E2C3E570956EB6
:100EE0005009E56EC39570F56E8003756E008B003A
:100EF000AB701570EB6022B20D200D0A08E6C454E9
:100F00000FFB8B6A80078603740F5BF56A856A8224
:100F1000C00012093AD00080D72005030209B4AB03
:100F20006E156EEB70030209B475822012092080E1
:100F3000EE8A821209200209B4856B82856C8322B5
:100F4000AA82BA0A0810990280FB75990D109902BD
:100F500080FB8A9922AA82AB83A2F73392D16002E6
:100F6000D2F7F582ACF022B98003EA13B34010EA5D
:100F70002401FAE43BFBE43CFC50047C800582BC89
:100F8000000EBB000BBA0008E4F5F0F583F58222F1
:100F9000A2D1E582138CF092F78B838A8222E4F54A
:100FA00083F58275F080F4A2D11322E4F583F582F3
:100FB00075F0C0747F226040F82582500274FFF5FE
:100FC00082E824F8501ECCCBCAF9E4CC24F85014A3
:100FD000CBCAF9E4CB24F8500BCAF9E4CA24F85080
:100FE0000379002224086010F8C3EC13FCEB13FB18
:100FF000EA13FAE913F9D8F1227804EC7011E582CA
:1010000024F8500AF582E4C9CACBFCD8EF22EC7868
:1010100020058220E713D5820122C3E933F9EA33A0
:10102000FAEB33FBEC33FCD8EA158222AA82AB83BD
:10103000A2F73392D16002D2F7F582ACF0E58124B9
:10104000F9F8E6FD08E6FE0886F008E6A2F7339216
:10105000D56002D2F7F583AFF022AA82AB83ACF061
:101060007D007E008A828B838CF01205E1FFA3AAAB
:1010700082AB83EF60070DBD00EA0E80E78D828EA4
:1010800083220000000000000000000000000000BB
:00000001FF
