:100000000200037581281200EFE582600302006F91
:10001000780079007A007B007C007D00EC4D601C4C
:1000200088828983E493A3A882A9838A828B83F040
:10003000A3AA82AB831CBCFFE31D80E07582007520
:1000400083007C007D00EC4D600AE4F0A31CBCFF43
:10005000F51D80F27582007583007C007D00EC4DFB
:10006000600AE4F0A31CBCFFF51D80F21200EE1242
:1000700001A880FE1B5B324A0045464D3820506582
:1000800072696F64206D6561737572656D656E74FC
:100090002061742070696E2050302E312075736994
:1000A0006E672054696D657220302E0A46696C6552
:1000B0003A2025730A436F6D70696C65643A202598
:1000C000732C2025730A0A004D50552E63004D6194
:1000D0007220333120323032340032323A33383AFF
:1000E0003438003C4E4F20464C4F41543E00227560
:1000F000A7007597DE7597AD43FF8075EF0275A772
:100100001075C12075A70075A90075A900E5A93073
:10011000E7FB75A90375A903E5A930E7FB43A41024
:1001200075E10175E20075E340759810858E8E7556
:100130008DE6858D8B53890F438920D28ED2997598
:10014000820022AA82438E407592B87593FF8592F1
:10015000948593957591047B00C3EB9A500BE591C0
:1001600030E7FB53917F0B80F075910022AA82ABA0
:1001700083BA0004BB0001227582F9C002C00312D9
:1001800001437582F91201437582F91201437582A8
:10019000FA120143D003D0021ABAFF011B80D253D6
:1001A00089F0438901C28C229001F412016D7474AC
:1001B000C0E07400C0E07480C0E012021215811526
:1001C00081158174DAC0E07400C0E07480C0E0740E
:1001D000CEC0E07400C0E07480C0E074C8C0E074B9
:1001E00000C0E07480C0E07479C0E07400C0E074C6
:1001F00080C0E0120212E58124F4F5812202085346
:1002000085821985831A85F01B850A1C9001FD02E1
:1002100002BCC008858108E50824FBF51CE508241C
:10022000FBF8861908861A08861B9001FD1202BC8D
:10023000D00822AA827444C0E07402C0E0C00BC09F
:100240000C8A82220512E4B51202051322AA8274D6
:10025000302AFA24C6500A74072AFA3000034302EF
:10026000208A82020233E582FAC4540FF582C0026A
:1002700012024DD002740F5AF58202024DAA0DAB44
:100280000EAC0FAD10AE11751820EE2EFEED2354FE
:1002900001FF4206EA2AFAEB33FBEC33FCED33FDB7
:1002A000C3EE95144008EEC39514FE430201D51821
:1002B000D98A0D8B0E8C0F8D108E112285820B85A5
:1002C000830CE4F512F513AA19AB1AAC1B8A828BC6
:1002D000838CF0120868FD74012AF519E43BF51AC5
:1002E0008C1BEDFA700302084CBA25028003020849
:1002F00044C204C205C206C207C208C209C20AC279
:100300000BC201C202C2037514007515007516FFF9
:10031000AB19AC1AAD1B8B828C838DF0120868FA76
:10032000A3AB82AC838B198C1A8D1BBA25078A82EA
:1003300012023380928A06BE3000402E8A06EE24D6
:10034000C6402774FFB51613E51575F00AA4FEEA3A
:1003500024D02EF51570BFD20580BBE51675F00AC6
:10036000A4FEEA24D02EF51680ACBA2E0A74FFB58E
:1003700016A4751600809F8A06BE6100400E8A068C
:10038000EE248540075302DFD2008002C200BA206B
:10039000028075BA2303020417BA2A0302041CBAA6
:1003A0002B02805FBA2D028055BA4202805FBA43A9
:1003B00003020461BA440302059CBA45030205B670
:1003C000BA46030205B2BA47030205BABA490302A4
:1003D000059CBA4C02803BBA4E030205BEBA4F03DD
:1003E0000205A3BA5003020535BA5303020485BAC5
:1003F00055030205A8BA58030205AD0205E8D20468
:10040000020316D206020316D207020316D209020D
:100410000316D20A020316D20B02031674FFB51696
:100420002030090BE51C14F8881C8615020316E51C
:100430001C24FEF8881C8606088607188E15020301
:100440001630090BE51C14F8881C8616020316E505
:100450001C24FEF8881C8606088607188E160203E0
:100460001630090AE51C14F8881C8602800FE51C6A
:1004700024FEF8881C8603088604188B028A8212E0
:1004800002330205EDE51C24FDF8881C860308866E
:100490000408860518188B0D8C0E8D0F8B828C83AB
:1004A0008DF012089DAB82AC838B1774FFB51603D9
:1004B00085171620041DC3E51795155016E515C3BD
:1004C0009517F515AB151515EB600875822012020E
:1004D0003380F1850D82850E83850FF0120868FB4D
:1004E000FA6029AB161516C3E464808BF063F080C4
:1004F00095F050188A82120233AB0DAC0EAD0F0B83
:10050000BB00010C8B0D8C0E8D0F80C720040302E5
:1005100005EDC3E517951540030205EDE515C395F7
:1005200017F515AB151515EB70030205ED75822057
:1005300012023380EEE51C24FDF8881C8603088631
:100540000408860518188B0D8C0E8D0FE50FFB30F7
:10055000E7047A438013EB546060047A50800AEB1E
:1005600030E6047A4980027A588A82C00212023345
:1005700075823A1202337582301202337582781214
:100580000233D002BA4902800BBA50028006850EAF
:1005900082120266850D821202668051D20875149D
:1005A0000A804A751408804575140A804075141035
:1005B000803BD2018037D2028033D203802FE51CEA
:1005C00024FDF8881C860308860408860518188B05
:1005D0000D8C0E8D0F8B828C838DF0E512120884AA
:1005E000A3E51312088480058A82120233200106D3
:1005F00020020330035AE51C24FCF8881C860308FB
:1006000086040886050886061818188B0D8C0E8D32
:100610000F8E10750DE3750E00750F80850D1D850D
:100620000E1E850F1F7401251DFEE4351EFFAB1F36
:100630008E0D8F0E8B0F851D82851E83851FF012F8
:100640000868FBFA70030202C78A8212023380CC68
:10065000E51470030202C77B2830092BE51C14F84F
:10066000881CE6FC3395E0FDFEFF8C0D8D0E8E0F91
:100670008F1020085EAC0D7D007E007F008C0D8DFC
:100680000E8E0F8F10804C300A1FE51C24FCF8885A
:100690001C86040886050886060886071818188C24
:1006A0000D8D0E8E0F8F10802AE51C24FEF8881CFD
:1006B000860408860518ED3395E0FEFF8C0D8D0E3F
:1006C0008E0F8F1020080CAC0DAD0E7E007F008EBB
:1006D0000F8F10300B43E50D450E450F4510603967
:1006E0007408B5140C758230C003120233D0038035
:1006F000287410B51423758230C003120233D0035E
:1007000030000C758278C003120233D003800A7562
:100710008258C003120233D003300825AC0DAD0E51
:10072000AE0FE510FF30E717C3E49CFCE49DFDE449
:100730009EFEE49FFF8C0D8D0E8E0F8F108002C2E7
:1007400008751700D20C8B00751100C00012027DD5
:10075000D000200C0DE511C4FCE6FD4CF618880312
:100760008002A6110517B20CE50D450E450F451088
:1007700070D68803E515700375150120051A20044D
:1007800017E51704FCC39515500E758220C003129F
:100790000233D003151580E930080E75822DC00391
:1007A000120233D00315158024E517602030060EA1
:1007B00075822BC003120233D0031515800F30074A
:1007C0000C758220C003120233D003151520041EBD
:1007D000AC151515C3E5179C50273005047C3080F7
:1007E000027C208C82C003120233D00380E2C3E576
:1007F0001795155009E515C39517F515800375155F
:10080000008B00AB171517EB6022B20C200C0A0806
:10081000E6C4540FFB8B1180078603740F5BF51140
:10082000851182C00012024DD00080D7200403023F
:1008300002C7AB151515EB70030202C775822012B3
:10084000023380EE8A821202330202C78512828549
:10085000138322AA82BA0A0810990280FB75990DA7
:1008600010990280FB8A992220F71430F6148883AD
:10087000A88220F507E6A88375830022E280F7E4CA
:100880009322E02220F71030F6118883A88220F509
:1008900007F6A88375830022F280F7F022AA82ABC4
:1008A00083ACF07D007E008A828B838CF012086816
:1008B000FFA3AA82AB83EF60070DBD00EA0E80E7BD
:1008C0008D828E83220000000000000000000000E6
:00000001FF
