:10000000020003758136120189E582600302006FE8
:10001000780079007A007B007C007D00EC4D601C4C
:1000200088828983E493A3A882A9838A828B83F040
:10003000A3AA82AB831CBCFFE31D80E07582007520
:1000400083007C007D00EC4D600AE4F0A31CBCFF43
:10005000F51D80F27582007583007C007D00EC4DFB
:10006000600AE4F0A31CBCFFF51D80F212018812A7
:10007000038580FE41434B20726563696576656444
:100080000A004C6F6F70206578697465640A0043DC
:100090006C656172656420696E74657272757074E6
:1000A00020666C61670A005472616E736665722027
:1000B0007374617274656400534D4230434E303A3C
:1000C00020253032580A005472616E7366657220C2
:1000D000636F6D706C6574650049324320697320ED
:1000E000776F726B696E6720636F72726563746C91
:1000F000790A00493243206973206E6F7420776F4C
:10010000726B696E6720636F72726563746C793AA3
:100110002025750A001B5B324A200A0045464D38EF
:10012000200A46696C653A2025730A436F6D706931
:100130006C65643A2025732C2025730A0A004D5003
:10014000552E63004170722020312032303234004D
:1001500031373A30383A313900496E697420446F8A
:100160006E650A00253032580A004D50553630353C
:100170003020496E697420446F6E650A003C4E4F12
:1001800020464C4F41543E002275A7007597DE75FE
:1001900097AD43FF8075EF0275A71075C12075A755
:1001A0000075A90075A900E5A930E7FB75A90375DD
:1001B000A903E5A930E7FB43A41075E10175E2004E
:1001C00075E340759810858E8E758DE6858D8B5301
:1001D000890F438920D28ED29975820022AA824348
:1001E0008E407592B87593FF85929485939575911D
:1001F000047B00C3EB9A500BE59130E7FB53917FF2
:100200000B80F075910022AA82AB83BA0004BB0078
:1002100001227582F9C002C0031201DD7582F91254
:1002200001DD7582F91201DD7582FA1201DDD0035C
:10023000D0021ABAFF011B80D25389F0438901C250
:100240008C2243A60343CC0375C10043C1C043D6EF
:100250000122AA8243C020EA2AFA430201E5C03003
:10026000E53053C0CF8AC253C0FEE5C030E11BC0A9
:10027000027474C0E07400C0E07480C0E012045ED8
:10028000158115811581D00280D343C02053C0FE53
:1002900080CB7482C0E07400C0E07480C0E01204BF
:1002A0005E158115811581E5C030E1FB748FC0E0DA
:1002B0007400C0E07480C0E012045E1581158115E1
:1002C00081E5C030E1FB850AC2E5C030E1FB43C0F7
:1002D0001022AA8243C020C00274A7C0E07400C0EC
:1002E000E07480C0E012045E158115811581ABC0F9
:1002F0007C00C003C00474B8C0E07400C0E0748027
:10030000C0E012045EE58124FBF581D002E5C03037
:10031000E1FBC00274C7C0E07400C0E07480C0E0BC
:1003200012045E158115811581D002EA2AFA740142
:100330004AF5C2E5C030E1FB85C28243C010227598
:100340000A0075826B0202527582751202D2AA826D
:10035000BA681674D9C0E07400C0E07480C0E012BE
:10036000045E158115811581227B00C002C00374D3
:10037000F3C0E07400C0E07480C0E012045EE58168
:1003800024FBF581229001F41202077415C0E07479
:1003900001C0E07480C0E012045E158115811581F2
:1003A0007450C0E07401C0E07480C0E07444C0E0E8
:1003B0007401C0E07480C0E0743EC0E07401C0E02D
:1003C0007480C0E0741CC0E07401C0E07480C0E0C0
:1003D00012045EE58124F4F5811202427459C0E0F2
:1003E0007401C0E07480C0E012045E1581158115AF
:1003F0008143C0E0AAC07B00C002C0037464C0E0B7
:100400007401C0E07480C0E012045EE58124FBF555
:1004100081AAC07B00C002C0037464C0E07401C044
:10042000E07480C0E012045EE58124FBF5811203D4
:100430003F746AC0E07401C0E07480C0E012045EE2
:10044000158115811581020348020A9F8582308536
:10045000833185F032850B33900449020508C008CA
:10046000858108E50824FBF533E50824FBF8863090
:10047000088631088632900449120508D00822AA5D
:10048000827490C0E07404C0E0C022C0238A82223B
:100490000529E4B52902052A22AA8274302AFA2401
:1004A000C6500A74072AFA3000034302208A8202E7
:1004B000047FE582FAC4540FF582C002120499D079
:1004C00002740F5AF582020499AA24AB25AC26AD1A
:1004D00027AE28752F20EE2EFEED235401FF420695
:1004E000EA2AFAEB33FBEC33FCED33FDC3EE952B3C
:1004F0004008EEC3952BFE430201D52FD98A248BE9
:10050000258C268D278E2822858222858323E4F55B
:1005100029F52AAA30AB31AC328A828B838CF01257
:100520000AB4FD74012AF530E43BF5318C32EDFA62
:100530007003020A98BA25028003020A90C204C21C
:1005400005C206C207C208C209C20AC20BC201C262
:1005500002C203752B00752C00752DFFAB30AC313A
:10056000AD328B828C838DF0120AB4FAA3AB82ACCD
:10057000838B308C318D32BA25078A8212047F80BA
:10058000928A06BE3000402E8A06EE24C6402774AA
:10059000FFB52D13E52C75F00AA4FEEA24D02EF544
:1005A0002C70BFD20580BBE52D75F00AA4FEEA24AD
:1005B000D02EF52D80ACBA2E0A74FFB52DA4752D62
:1005C00000809F8A06BE6100400E8A06EE248540A8
:1005D000075302DFD2008002C200BA20028075BA3F
:1005E0002303020663BA2A03020668BA2B02805F5D
:1005F000BA2D028055BA4202805FBA43030206ADAB
:10060000BA44030207E8BA4503020802BA460302E5
:1006100007FEBA4703020806BA49030207E8BA4CC4
:1006200002803BBA4E0302080ABA4F030207EFBA30
:100630005003020781BA53030206D1BA55030207D9
:10064000F4BA58030207F9020834D204020562D250
:1006500006020562D207020562D209020562D20AC9
:10066000020562D20B02056274FFB52D2030090B22
:10067000E53314F88833862C020562E53324FEF84E
:1006800088338606088607188E2C02056230090B0F
:10069000E53314F88833862D020562E53324FEF82D
:1006A00088338606088607188E2D02056230090AEF
:1006B000E53314F888338602800FE53324FEF8888A
:1006C000338603088604188B028A8212047F02088C
:1006D00039E53324FDF88833860308860408860547
:1006E00018188B248C258D268B828C838DF0120A12
:1006F000E9AB82AC838B2E74FFB52D03852E2D20A4
:10070000041DC3E52E952C5016E52CC3952EF52C13
:10071000AB2C152CEB600875822012047F80F185CC
:1007200024828525838526F0120AB4FBFA6029AB62
:100730002D152DC3E464808BF063F08095F0501884
:100740008A8212047FAB24AC25AD260BBB00010CC2
:100750008B248C258D2680C7200403020839C3E52D
:100760002E952C4003020839E52CC3952EF52CABB1
:100770002C152CEB700302083975822012047F803F
:10078000EEE53324FDF888338603088604088605E1
:1007900018188B248C258D26E526FB30E7047A4338
:1007A0008013EB546060047A50800AEB30E6047AE0
:1007B0004980027A588A82C00212047F75823A12F6
:1007C000047F75823012047F75827812047FD00214
:1007D000BA4902800BBA500280068525821204B203
:1007E0008524821204B28051D208752B0A804A7582
:1007F0002B088045752B0A8040752B10803BD20159
:100800008037D2028033D203802FE53324FDF8886D
:1008100033860308860408860518188B248C258DDA
:10082000268B828C838DF0E529120AD0A3E52A124B
:100830000AD080058A8212047F200106200203303C
:10084000035AE53324FCF8883386030886040886B7
:10085000050886061818188B248C258D268E27757A
:10086000247D7525017526808524348525358526CA
:100870003674012534FEE43535FFAB368E248F25E2
:100880008B268534828535838536F0120AB4FBFACF
:1008900070030205138A8212047F80CCE52B70035B
:1008A0000205137B1230092BE53314F88833E6FC7C
:1008B0003395E0FDFEFF8C248D258E268F272008A2
:1008C0005EAC247D007E007F008C248D258E268FDB
:1008D00027804C300A1FE53324FCF888338604084F
:1008E00086050886060886071818188C248D258E1C
:1008F000268F27802AE53324FEF88833860408866D
:100900000518ED3395E0FEFF8C248D258E268F276C
:1009100020080CAC24AD257E007F008E268F27306A
:100920000B43E52445254526452760397408B52B3A
:100930000C758230C00312047FD00380287410B578
:100940002B23758230C00312047FD00330000C7556
:100950008278C00312047FD003800A758258C003D6
:1009600012047FD003300825AC24AD25AE26E52740
:10097000FF30E717C3E49CFCE49DFDE49EFEE49F8A
:10098000FF8C248D258E268F278002C208752E00AD
:10099000D20C8B00752800C0001204C9D000200CB6
:1009A0000DE528C4FCE6FD4CF61888038002A62855
:1009B000052EB20CE52445254526452770D688032B
:1009C000E52C7003752C0120051A200417E52E0470
:1009D000FCC3952C500E758220C00312047FD003F7
:1009E000152C80E930080E75822DC00312047FD0CB
:1009F00003152C8024E52E602030060E75822BC056
:100A00000312047FD003152C800F30070C75822051
:100A1000C00312047FD003152C20041EAC2C152C0F
:100A2000C3E52E9C50273005047C3080027C208C4E
:100A300082C00312047FD00380E2C3E52E952C50C0
:100A400009E52CC3952EF52C8003752C008B00AB8B
:100A50002E152EEB6022B20C200C0A08E6C4540FAF
:100A6000FB8B2880078603740F5BF528852882C0DE
:100A700000120499D00080D7200403020513AB2C88
:100A8000152CEB700302051375822012047F80EE93
:100A90008A8212047F020513852982852A8322AA6D
:100AA00082BA0A0810990280FB75990D109902808C
:100AB000FB8A992220F71430F6148883A88220F547
:100AC00007E6A88375830022E280F7E49322E02200
:100AD00020F71030F6118883A88220F507F6A88346
:100AE00075830022F280F7F022AA82AB83ACF07DFE
:100AF000007E008A828B838CF0120AB4FFA3AA8244
:100B0000AB83EF60070DBD00EA0E80E78D828E8318
:100B100022000000000000000000000000000000B3
:00000001FF
