:10000000020003758128120181E582600302006FFE
:10001000780079007A007B007C007D00EC4D601C4C
:1000200088828983E493A3A882A9838A828B83F040
:10003000A3AA82AB831CBCFFE31D80E07582007520
:1000400083007C007D00EC4D600AE4F0A31CBCFF43
:10005000F51D80F27582007583007C007D00EC4DFB
:10006000600AE4F0A31CBCFFF51D80F212018012AF
:10007000031780FE5472616E73666572207374613B
:100080007274656400534D4230434E303A2025303F
:1000900032580A005472616E7366657220636F6D28
:1000A000706C6574650049324320697320776F7204
:1000B0006B696E6720636F72726563746C790A0096
:1000C000493243206973206E6F7420776F726B69B9
:1000D0006E6720636F72726563746C793A20257560
:1000E0000A001B5B324A0045464D38205065726954
:1000F0006F64206D6561737572656D656E742061E6
:10010000742070696E2050302E31207573696E67CF
:100110002054696D657220302E0A46696C653A205C
:1001200025730A436F6D70696C65643A2025732CE2
:100130002025730A0A004D50552E6300417072202D
:10014000203120323032340031313A34383A3535CA
:1001500000496E697420446F6E650A00253032587C
:100160000A004D50553630353020496E69742044B0
:100170006F6E650A003C4E4F20464C4F41543E0086
:100180002275A7007597DE7597AD43FF8075EF0266
:1001900075A71075C12075A70075A90075A900E5A0
:1001A000A930E7FB75A90375A903E5A930E7FB436F
:1001B000A41075E10175E20075E340759810858E15
:1001C0008E758DE6858D8B53890F438920D28ED213
:1001D0009975820022AA82438E407592B87593FF6A
:1001E0008592948593957591047B00C3EB9A500B8F
:1001F000E59130E7FB53917F0B80F075910022AAC7
:1002000082AB83BA0004BB0001227582F9C002C030
:10021000031201D57582F91201D57582F91201D543
:100220007582FA1201D5D003D0021ABAFF011B80E1
:10023000D25389F0438901C28C2243A60343CC03E5
:1002400043BA4075C15922AA8243C020E5C030E1BB
:10025000FB8AC2E5C030E1FB8522C2E5C030E1FB8C
:1002600043C01022AA8243C020C0027474C0E0744C
:1002700000C0E07480C0E01203F315811581158180
:10028000ABC07C00C003C0047485C0E07400C0E053
:100290007480C0E01203F3E58124FBF581D002E510
:1002A000C030E1FBC0027494C0E07400C0E0748010
:1002B000C0E01203F3158115811581D002EA2AFAF4
:1002C00074014AF5C2E5C030E1FB85C28243C0102B
:1002D0002275220075826B020247758275120264D4
:1002E000AA82BA681674A6C0E07400C0E07480C028
:1002F000E01203F3158115811581227B00C002C035
:100300000374C0C0E07400C0E07480C0E01203F366
:10031000E58124FBF5812243C0109001F41201FF16
:1003200074E2C0E07400C0E07480C0E01203F31512
:1003300081158115817448C0E07401C0E07480C0EB
:10034000E0743CC0E07401C0E07480C0E07436C06A
:10035000E07401C0E07480C0E074E7C0E07400C0E5
:10036000E07480C0E01203F3E58124F4F581120209
:100370003A7451C0E07401C0E07480C0E01203F32D
:10038000158115811581AAC07B00C002C003745C71
:10039000C0E07401C0E07480C0E01203F3E5812482
:1003A000FBF58153C0EFAAC07B00C002C003745CA0
:1003B000C0E07401C0E07480C0E01203F3E5812462
:1003C000FBF5811202D17462C0E07401C0E0748058
:1003D000C0E01203F31581158115810202DA020AC9
:1003E0003485821985831A85F01B850A1C9003DEEB
:1003F00002049DC008858108E50824FBF51CE5087A
:1004000024FBF8861908861A08861B9003DE12045E
:100410009DD00822AA827425C0E07404C0E0C00BFD
:10042000C00C8A82220512E4B51202051322AA82A8
:1004300074302AFA24C6500A74072AFA300003439B
:1004400002208A82020414E582FAC4540FF582C0A5
:100450000212042ED002740F5AF58202042EAA0D45
:10046000AB0EAC0FAD10AE11751820EE2EFEED23C5
:100470005401FF4206EA2AFAEB33FBEC33FCED337E
:10048000FDC3EE95144008EEC39514FE430201D55A
:1004900018D98A0D8B0E8C0F8D108E112285820B30
:1004A00085830CE4F512F513AA19AB1AAC1B8A82EA
:1004B0008B838CF0120A49FD74012AF519E43BF58F
:1004C0001A8C1BEDFA7003020A2DBA250280030272
:1004D0000A25C204C205C206C207C208C209C20A6E
:1004E000C20BC201C202C203751400751500751655
:1004F000FFAB19AC1AAD1B8B828C838DF0120A49AD
:10050000FAA3AB82AC838B198C1A8D1BBA25078A90
:100510008212041480928A06BE3000402E8A06EEB3
:1005200024C6402774FFB51613E51575F00AA4FE1E
:10053000EA24D02EF51570BFD20580BBE51675F004
:100540000AA4FEEA24D02EF51680ACBA2E0A74FF57
:10055000B516A4751600809F8A06BE6100400E8AFB
:1005600006EE248540075302DFD2008002C200BAA3
:1005700020028075BA23030205F8BA2A030205FD9A
:10058000BA2B02805FBA2D028055BA4202805FBA50
:100590004303020642BA440302077DBA4503020739
:1005A00097BA4603020793BA470302079BBA490367
:1005B00002077DBA4C02803BBA4E0302079FBA4F36
:1005C00003020784BA5003020716BA5303020666F1
:1005D000BA5503020789BA580302078E0207C9D227
:1005E000040204F7D2060204F7D2070204F7D20984
:1005F0000204F7D20A0204F7D20B0204F774FFB523
:10060000162030090BE51C14F8881C86150204F727
:10061000E51C24FEF8881C8606088607188E15023D
:1006200004F730090BE51C14F8881C86160204F741
:10063000E51C24FEF8881C8606088607188E16021C
:1006400004F730090AE51C14F8881C8602800FE5BF
:100650001C24FEF8881C8603088604188B028A82F4
:100660001204140207CEE51C24FDF8881C8603083A
:10067000860408860518188B0D8C0E8D0F8B828CC6
:10068000838DF0120A7EAB82AC838B1774FFB51694
:100690000385171620041DC3E51795155016E5159B
:1006A000C39517F515AB151515EB6008758220126B
:1006B000041480F1850D82850E83850FF0120A499E
:1006C000FBFA6029AB161516C3E464808BF063F067
:1006D0008095F050188A82120414AB0DAC0EAD0F49
:1006E0000BBB00010C8B0D8C0E8D0F80C7200403FB
:1006F0000207CEC3E517951540030207CEE515C3E3
:100700009517F515AB151515EB70030207CE75821D
:100710002012041480EEE51C24FDF8881C860308D2
:10072000860408860518188B0D8C0E8D0FE50FFBBF
:1007300030E7047A438013EB546060047A50800AF7
:10074000EB30E6047A4980027A588A82C0021204A9
:100750001475823A1204147582301204147582786A
:10076000120414D002BA4902800BBA5002800685E6
:100770000E82120447850D821204478051D20875FB
:10078000140A804A751408804575140A804075144F
:1007900010803BD2018037D2028033D203802FE514
:1007A0001C24FDF8881C8603088604088605181892
:1007B0008B0D8C0E8D0F8B828C838DF0E512120ABF
:1007C00065A3E513120A6580058A821204142001CC
:1007D0000620020330035AE51C24FCF8881C86031B
:1007E0000886040886050886061818188B0D8C0ED6
:1007F0008D0F8E10750D75750E01750F80850D1D91
:10080000850E1E850F1F7401251DFEE4351EFFABEE
:100810001F8E0D8F0E8B0F851D82851E83851FF009
:10082000120A49FBFA70030204A88A821204148097
:10083000CCE51470030204A87B2830092BE51C14B6
:10084000F8881CE6FC3395E0FDFEFF8C0D8D0E8EC6
:100850000F8F1020085EAC0D7D007E007F008C0D98
:100860008D0E8E0F8F10804C300A1FE51C24FCF873
:10087000881C860408860508860608860718181846
:100880008C0D8D0E8E0F8F10802AE51C24FEF888AB
:100890001C860408860518ED3395E0FEFF8C0D8D4F
:1008A0000E8E0F8F1020080CAC0DAD0E7E007F0059
:1008B0008E0F8F10300B43E50D450E450F45106030
:1008C000397408B5140C758230C003120414D003B7
:1008D00080287410B51423758230C003120414D01C
:1008E0000330000C758278C003120414D003800A10
:1008F000758258C003120414D003300825AC0DAD26
:100900000EAE0FE510FF30E717C3E49CFCE49DFD3D
:10091000E49EFEE49FFF8C0D8D0E8E0F8F108002E3
:10092000C208751700D20C8B00751100C0001204AC
:100930005ED000200C0DE511C4FCE6FD4CF61888D5
:10094000038002A6110517B20CE50D450E450F45B3
:100950001070D68803E515700375150120051A205F
:100960000417E51704FCC39515500E758220C003CB
:10097000120414D003151580E930080E75822DC0BD
:1009800003120414D00315158024E51760203006E7
:100990000E75822BC003120414D0031515800F307E
:1009A000070C758220C003120414D003151520040F
:1009B0001EAC151515C3E5179C50273005047C3077
:1009C00080027C208C82C003120414D00380E2C316
:1009D000E51795155009E515C39517F515800375AD
:1009E00015008B00AB171517EB6022B20C200C0A18
:1009F00008E6C4540FFB8B1180078603740F5BF568
:100A000011851182C00012042ED00080D72004036B
:100A10000204A8AB151515EB70030204A87582201B
:100A200012041480EE8A821204140204A885128231
:100A300085138322AA82BA0A0810990280FB75994D
:100A40000D10990280FB8A992220F71430F6148841
:100A500083A88220F507E6A88375830022E280F749
:100A6000E49322E02220F71030F6118883A8822038
:100A7000F507F6A88375830022F280F7F022AA8298
:100A8000AB83ACF07D007E008A828B838CF0120AEF
:100A900049FFA3AA82AB83EF60070DBD00EA0E8079
:100AA000E78D828E8322000000000000000000001D
:00000001FF
