:1000000002000375812812016EE582600302006F11
:10001000780079007A007B007C007D00EC4D601C4C
:1000200088828983E493A3A882A9838A828B83F040
:10003000A3AA82AB831CBCFFE31D80E07582007520
:1000400083007C007D00EC4D600AE4F0A31CBCFF43
:10005000F51D80F27582007583007C007D00EC4DFB
:10006000600AE4F0A31CBCFFF51D80F212016D12C2
:10007000030480FE5472616E73666572207374614E
:100080007274656400534D4230434E303A2025303F
:1000900032580A005472616E7366657220636F6D28
:1000A000706C6574650049324320697320776F7204
:1000B0006B696E6720636F72726563746C790A0096
:1000C000493243206973206E6F7420776F726B69B9
:1000D0006E6720636F72726563746C793A20257560
:1000E0000A001B5B324A0045464D38205065726954
:1000F0006F64206D6561737572656D656E742061E6
:10010000742070696E2050302E31207573696E67CF
:100110002054696D657220302E0A46696C653A205C
:1001200025730A436F6D70696C65643A2025732CE2
:100130002025730A0A004D50552E6300417072202D
:10014000203120323032340031313A33343A3139CF
:1001500000496E697420446F6E650A00253032587C
:100160000A003C4E4F20464C4F41543E002275A79A
:10017000007597DE7597AD43FF8075EF0275A71088
:1001800075C12075A70075A90075A900E5A930E71C
:10019000FB75A90375A903E5A930E7FB43A4107516
:1001A000E10175E20075E340759810858E8E758DBE
:1001B000E6858D8B53890F438920D28ED299758223
:1001C0000022AA82438E407592B87593FF8592945F
:1001D0008593957591047B00C3EB9A500BE59130A4
:1001E000E7FB53917F0B80F075910022AA82AB83CD
:1001F000BA0004BB0001227582F9C002C0031201DB
:10020000C27582F91201C27582F91201C27582FAB1
:100210001201C2D003D0021ABAFF011B80D2538947
:10022000F0438901C28C2243A60343CC0343BA4066
:1002300075C15922AA8243C020E5C030E1FB8AC2C1
:10024000E5C030E1FB8522C2E5C030E1FB43C010D0
:1002500022AA8243C020C0027474C0E07400C0E0CF
:100260007480C0E01203AE158115811581ABC07C8E
:1002700000C003C0047485C0E07400C0E07480C096
:10028000E01203AEE58124FBF581D002E5C030E148
:10029000FBC0027494C0E07400C0E07480C0E0123F
:1002A00003AE158115811581D002EA2AFA74014A3C
:1002B000F5C2E5C030E1FB85C28243C01022752241
:1002C0000075826B020234758275120251AA82BADD
:1002D000681674A6C0E07400C0E07480C0E0120329
:1002E000AE158115811581227B00C002C00374C048
:1002F000C0E07400C0E07480C0E01203AEE5812469
:10030000FBF5812243C0109001F41201EC74E2C0AD
:10031000E07400C0E07480C0E01203AE1581158166
:1003200015817448C0E07401C0E07480C0E0743C82
:10033000C0E07401C0E07480C0E07436C0E07401B5
:10034000C0E07480C0E074E7C0E07400C0E0748076
:10035000C0E01203AEE58124F4F5811202271202F7
:10036000BE7451C0E07401C0E07480C0E01203AEFE
:1003700015811581158153C0EFAAC07B00C002C052
:1003800003745CC0E07401C0E07480C0E01203AE8E
:10039000E58124FBF5810202C70209EF85821985F8
:1003A000831A85F01B850A1C900399020458C00823
:1003B000858108E50824FBF51CE50824FBF886196F
:1003C00008861A08861B900399120458D00822AA9E
:1003D0008274E0C0E07403C0E0C00BC00C8A8222CB
:1003E0000512E4B51202051322AA8274302AFA24F7
:1003F000C6500A74072AFA3000034302208A820298
:1004000003CFE582FAC4540FF582C0021203E9D08B
:1004100002740F5AF5820203E9AA0DAB0EAC0FADC0
:1004200010AE11751820EE2EFEED235401FF42068A
:10043000EA2AFAEB33FBEC33FCED33FDC3EE951403
:100440004008EEC39514FE430201D518D98A0D8BDE
:100450000E8C0F8D108E112285820B85830CE4F596
:1004600012F513AA19AB1AAC1B8A828B838CF0127B
:100470000A04FD74012AF519E43BF51A8C1BEDFA08
:1004800070030209E8BA250280030209E0C204C22F
:1004900005C206C207C208C209C20AC20BC201C213
:1004A00002C2037514007515007516FFAB19AC1A5E
:1004B000AD1B8B828C838DF0120A04FAA3AB82AC45
:1004C000838B198C1A8D1BBA25078A821203CF8061
:1004D000928A06BE3000402E8A06EE24C64027745B
:1004E000FFB51613E51575F00AA4FEEA24D02EF523
:1004F0001570BFD20580BBE51675F00AA4FEEA248C
:10050000D02EF51680ACBA2E0A74FFB516A4751657
:1005100000809F8A06BE6100400E8A06EE24854058
:10052000075302DFD2008002C200BA20028075BAEF
:1005300023030205B3BA2A030205B8BA2B02805F6F
:10054000BA2D028055BA4202805FBA43030205FD0C
:10055000BA4403020738BA4503020752BA460302F7
:10056000074EBA4703020756BA4903020738BA4C86
:1005700002803BBA4E0302075ABA4F0302073FBA42
:1005800050030206D1BA5303020621BA55030207EB
:1005900044BA5803020749020784D2040204B2D2C3
:1005A000060204B2D2070204B2D2090204B2D20A8D
:1005B0000204B2D20B0204B274FFB5162030090B4C
:1005C000E51C14F8881C86150204B2E51C24FEF80C
:1005D000881C8606088607188E150204B230090B9F
:1005E000E51C14F8881C86160204B2E51C24FEF8EB
:1005F000881C8606088607188E160204B230090A7F
:10060000E51C14F8881C8602800FE51C24FEF8887F
:100610001C8603088604188B028A821203CF020705
:1006200089E51C24FDF8881C8603088604088605D5
:1006300018188B0D8C0E8D0F8B828C838DF0120A07
:1006400039AB82AC838B1774FFB516038517162060
:10065000041DC3E51795155016E515C39517F51537
:10066000AB151515EB60087582201203CF80F1855C
:100670000D82850E83850FF0120A04FBFA6029AB08
:10068000161516C3E464808BF063F08095F0501863
:100690008A821203CFAB0DAC0EAD0F0BBB00010C69
:1006A0008B0D8C0E8D0F80C7200403020789C3E5D4
:1006B0001795154003020789E515C39517F515AB86
:1006C000151515EB70030207897582201203CF8080
:1006D000EEE51C24FDF8881C8603088604088605C0
:1006E00018188B0D8C0E8D0FE50FFB30E7047A4345
:1006F0008013EB546060047A50800AEB30E6047A91
:100700004980027A588A82C0021203CF75823A1257
:1007100003CF7582301203CF7582781203CFD002D7
:10072000BA4902800BBA50028006850E821204027A
:10073000850D821204028051D20875140A804A7510
:100740001408804575140A8040751410803BD2014E
:100750008037D2028033D203802FE51C24FDF88835
:100760001C860308860408860518188B0D8C0E8DD0
:100770000F8B828C838DF0E512120A20A3E51312F1
:100780000A2080058A821203CF200106200203304E
:10079000035AE51C24FCF8881C8603088604088696
:1007A000050886061818188B0D8C0E8D0F8E107587
:1007B0000D62750E01750F80850D1D850E1E850F4E
:1007C0001F7401251DFEE4351EFFAB1F8E0D8F0E1D
:1007D0008B0F851D82851E83851FF0120A04FBFA8C
:1007E00070030204638A821203CF80CCE514700385
:1007F0000204637B2830092BE51C14F8881CE6FCF6
:100800003395E0FDFEFF8C0D8D0E8E0F8F102008AE
:100810005EAC0D7D007E007F008C0D8D0E8E0F8FE7
:1008200010804C300A1FE51C24FCF8881C86040844
:1008300086050886060886071818188C0D8D0E8EFA
:100840000F8F10802AE51C24FEF8881C8604088679
:100850000518ED3395E0FEFF8C0D8D0E8E0F8F1079
:1008600020080CAC0DAD0E7E007F008E0F8F103077
:100870000B43E50D450E450F451060397408B5145E
:100880000C758230C0031203CFD00380287410B5DA
:100890001423758230C0031203CFD00330000C75CF
:1008A0008278C0031203CFD003800A758258C00338
:1008B0001203CFD003300825AC0DAD0EAE0FE510FE
:1008C000FF30E717C3E49CFCE49DFDE49EFEE49F3B
:1008D000FF8C0D8D0E8E0F8F108002C208751700D1
:1008E000D20C8B00751100C000120419D000200C2E
:1008F0000DE511C4FCE6FD4CF61888038002A61134
:100900000517B20CE50D450E450F451070D688034E
:10091000E515700375150120051A200417E5170465
:10092000FCC39515500E758220C0031203CFD0036F
:10093000151580E930080E75822DC0031203CFD043
:100940000315158024E517602030060E75822BC034
:10095000031203CFD0031515800F30070C758220CA
:10096000C0031203CFD003151520041EAC151515B6
:10097000C3E5179C50273005047C3080027C208C16
:1009800082C0031203CFD00380E2C3E51795155050
:1009900009E515C39517F51580037515008B00AB98
:1009A000171517EB6022B20C200C0A08E6C4540F8E
:1009B000FB8B1180078603740F5BF511851182C0D4
:1009C000001203E9D00080D7200403020463AB15B2
:1009D0001515EB70030204637582201203CF80EEBD
:1009E0008A821203CF02046385128285138322AAAE
:1009F00082BA0A0810990280FB75990D109902803D
:100A0000FB8A992220F71430F6148883A88220F5F7
:100A100007E6A88375830022E280F7E49322E022B0
:100A200020F71030F6118883A88220F507F6A883F6
:100A300075830022F280F7F022AA82AB83ACF07DAE
:100A4000007E008A828B838CF0120A04FFA3AA82A4
:100A5000AB83EF60070DBD00EA0E80E78D828E83C9
:100A60002200000000000000000000000000000064
:00000001FF
