:10000000020003758136120192E582600302006FDF
:10001000780079007A007B007C007D00EC4D601C4C
:1000200088828983E493A3A882A9838A828B83F040
:10003000A3AA82AB831CBCFFE31D80E07582007520
:1000400083007C007D00EC4D600AE4F0A31CBCFF43
:10005000F51D80F27582007583007C007D00EC4DFB
:10006000600AE4F0A31CBCFFF51D80F2120191129E
:10007000040D80FE41434B207265636965766564BB
:100080000A004C6F6F70206578697465640A0043DC
:100090006C656172656420696E74657272757074E6
:1000A00020666C61670A005472616E736665722027
:1000B000737461727465640A00534D4230434E306C
:1000C0003A20253032580A005472616E73666572A8
:1000D00020636F6D706C657465004932433A20256A
:1000E000750A0049324320697320776F726B696E1D
:1000F0006720636F72726563746C790A00493243DA
:10010000206973206E6F7420776F726B696E672041
:10011000636F72726563746C793A2025750A001BEF
:100120005B324A200A0045464D38200A46696C6514
:100130003A2025730A436F6D70696C65643A202517
:10014000732C2025730A0A004D50552E6300417010
:100150007220203220323032340031333A31303A9A
:10016000343200496E697420446F6E650A00253090
:1001700032580A005374617274696E6720746F207C
:10018000726561640A003C4E4F20464C4F41543E1C
:10019000002275A7007597DE7597AD43FF8075EF58
:1001A0000275A71075C12075A70075A90075A90073
:1001B000E5A930E7FB75A90375A903E5A930E7FBBD
:1001C00043A41075E10175E20075E3407598108550
:1001D0008E8E758DE6858D8B53890F438920D28E47
:1001E000D29975820022AA82438E407592B8759387
:1001F000FF8592948593957591047B00C3EB9A508B
:100200000BE59130E7FB53917F0B80F07591002255
:10021000AA82AB83BA0004BB0001227582F9C00236
:10022000C0031201E67582F91201E67582F9120126
:10023000E67582FA1201E6D003D0021ABAFF011B5A
:1002400080D25389F0438901C28C2243A60343E143
:100250000475C10043C1C043D60143A88043E601F1
:1002600022AA8243C020EA2AFA430201E5C030E50F
:100270003053C0CF8AC253C0FEE5C030E11BC0027C
:100280007474C0E07400C0E07480C0E01204E31530
:100290008115811581D00280D343C02053C0FE80D8
:1002A000CB7482C0E07400C0E07480C0E01204E34C
:1002B000158115811581E5C030E1FB748FC0E074B4
:1002C00000C0E07480C0E01204E31581158115813F
:1002D000E5C030E1FB850AC2E5C030E1FB43C01058
:1002E00022AA8243C020EA2AFA74014AFBE5C03000
:1002F000E53453C0CF8BC253C0FEE5C030E11FC010
:1003000002C0037474C0E07400C0E07480C0E012E6
:1003100004E3158115811581D003D00280CF43C03D
:100320002053C0FE80C7C0027482C0E07400C0E0E9
:100330007480C0E01204E315811581158174A7C093
:10034000E07400C0E07480C0E01204E31581158100
:100350001581ABC07C00C003C00474B9C0E0740058
:10036000C0E07480C0E01204E3E58124FBF581D095
:1003700002E5C030E1FBC00274C8C0E07400C0E018
:100380007480C0E01204E3158115811581D00274D8
:10039000014AF5C2E5C030E1FB85C28243C01022AC
:1003A000750A0075826B0202617582751202E1AAFC
:1003B000828A037C00C002C003C004C003C004746E
:1003C000DAC0E07400C0E07480C0E01204E3E581AC
:1003D00024FBF581D004D003D002BA681674E3C0C0
:1003E000E07400C0E07480C0E01204E31581158160
:1003F000158122C003C00474FDC0E07400C0E07425
:1004000080C0E01204E3E58124FBF581229001F431
:10041000120210741FC0E07401C0E07480C0E012CA
:1004200004E3158115811581745AC0E07401C0E0A0
:100430007480C0E0744EC0E07401C0E07480C0E01D
:100440007448C0E07401C0E07480C0E07426C0E06D
:100450007401C0E07480C0E01204E3E58124F4F587
:100460008112024B7463C0E07401C0E07480C0E08C
:100470001204E315811581158143C0E0AAC07B00F9
:10048000C002C003746EC0E07401C0E07480C0E0BC
:100490001204E3E58124FBF581AAC07B00C002C001
:1004A00003746EC0E07401C0E07480C0E01204E325
:1004B000E58124FBF5817474C0E07401C0E07480B0
:1004C000C0E01204E31581158115810203A9020B16
:1004D0002485823085833185F032850B339004CEBC
:1004E00002058DC008858108E50824FBF533E50881
:1004F00024FBF886300886310886329004CE120537
:100500008DD00822AA827415C0E07405C0E0C02214
:10051000C0238A82220529E4B52902052A22AA825B
:1005200074302AFA24C6500A74072AFA30000343AA
:1005300002208A82020504E582FAC4540FF582C0C3
:100540000212051ED002740F5AF58202051EAA245B
:10055000AB25AC26AD27AE28752F20EE2EFEED2361
:100560005401FF4206EA2AFAEB33FBEC33FCED338D
:10057000FDC3EE952B4008EEC3952BFE430201D53B
:100580002FD98A248B258C268D278E28228582229E
:10059000858323E4F529F52AAA30AB31AC328A826F
:1005A0008B838CF0120B39FD74012AF530E43BF596
:1005B000318C32EDFA7003020B1DBA250280030262
:1005C0000B15C204C205C206C207C208C209C20A8C
:1005D000C20BC201C202C203752B00752C00752D1F
:1005E000FFAB30AC31AD328B828C838DF0120B3986
:1005F000FAA3AB82AC838B308C318D32BA25078A5B
:100600008212050480928A06BE3000402E8A06EED1
:1006100024C6402774FFB52D13E52C75F00AA4FEFF
:10062000EA24D02EF52C70BFD20580BBE52D75F0E5
:100630000AA4FEEA24D02EF52D80ACBA2E0A74FF4F
:10064000B52DA4752D00809F8A06BE6100400E8ADC
:1006500006EE248540075302DFD2008002C200BAB2
:1006600020028075BA23030206E8BA2A030206EDC7
:10067000BA2B02805FBA2D028055BA4202805FBA5F
:100680004303020732BA440302086DBA4503020865
:1006900087BA4603020883BA470302088BBA4903A4
:1006A00002086DBA4C02803BBA4E0302088FBA4F63
:1006B00003020874BA5003020806BA53030207562D
:1006C000BA5503020879BA580302087E0208B9D263
:1006D000040205E7D2060205E7D2070205E7D209C0
:1006E0000205E7D20A0205E7D20B0205E774FFB55F
:1006F0002D2030090BE53314F88833862C0205E7EA
:10070000E53324FEF888338606088607188E2C0207
:1007100005E730090BE53314F88833862D0205E729
:10072000E53324FEF888338606088607188E2D02E6
:1007300005E730090AE53314F888338602800FE5AF
:100740003324FEF888338603088604188B028A82D5
:100750001205040208BEE53324FDF8883386030839
:10076000860408860518188B248C258D268B828C90
:10077000838DF0120B6EAB82AC838B2E74FFB52D84
:1007800003852E2D20041DC3E52E952C5016E52C37
:10079000C3952EF52CAB2C152CEB6008758220121E
:1007A000050480F18524828525838526F0120B3986
:1007B000FBFA6029AB2D152DC3E464808BF063F048
:1007C0008095F050188A82120504AB24AC25AD2622
:1007D0000BBB00010C8B248C258D2680C7200403C5
:1007E0000208BEC3E52E952C40030208BEE52CC3CB
:1007F000952EF52CAB2C152CEB70030208BE7582E0
:100800002012050480EEE53324FDF88833860308C2
:10081000860408860518188B248C258D26E526FB72
:1008200030E7047A438013EB546060047A50800A06
:10083000EB30E6047A4980027A588A82C0021205B7
:100840000475823A120504758230120504758278A7
:10085000120504D002BA4902800BBA500280068504
:1008600025821205378524821205378051D20875FA
:100870002B0A804A752B088045752B0A8040752B02
:1008800010803BD2018037D2028033D203802FE523
:100890003324FDF888338603088604088605181873
:1008A0008B248C258D268B828C838DF0E529120B71
:1008B00055A3E52A120B5580058A821205042001F2
:1008C0000620020330035AE53324FCF888338603FC
:1008D0000886040886050886061818188B248C25B7
:1008E0008D268E27752486752501752680852434EE
:1008F00085253585263674012534FEE43535FFAB74
:10090000368E248F258B268534828535838536F077
:10091000120B39FBFA70030205988A8212050480D3
:10092000CCE52B70030205987B1230092BE53314BC
:10093000F88833E6FC3395E0FDFEFF8C248D258E90
:10094000268F2720085EAC247D007E007F008C244B
:100950008D258E268F27804C300A1FE53324FCF826
:10096000883386040886050886060886071818183E
:100970008C248D258E268F27802AE53324FEF88847
:1009800033860408860518ED3395E0FEFF8C248D30
:10099000258E268F2720080CAC24AD257E007F00F5
:1009A0008E268F27300B43E52445254526452760B5
:1009B000397408B52B0C758230C003120504D003BE
:1009C00080287410B52B23758230C003120504D023
:1009D0000330000C758278C003120504D003800A2E
:1009E000758258C003120504D003300825AC24AD2D
:1009F00025AE26E527FF30E717C3E49CFCE49DFD08
:100A0000E49EFEE49FFF8C248D258E268F27800296
:100A1000C208752E00D20C8B00752800C00012058C
:100A20004ED000200C0DE528C4FCE6FD4CF61888DD
:100A3000038002A628052EB20CE52445254526454F
:100A40002770D68803E52C7003752C0120051A2029
:100A50000417E52E04FCC3952C500E758220C003AC
:100A6000120504D003152C80E930080E75822DC0C4
:100A700003120504D003152C8024E52E60203006D7
:100A80000E75822BC003120504D003152C800F3085
:100A9000070C758220C003120504D003152C200416
:100AA0001EAC2C152CC3E52E9C50273005047C3041
:100AB00080027C208C82C003120504D00380E2C334
:100AC000E52E952C5009E52CC3952EF52C80037549
:100AD0002C008B00AB2E152EEB6022B20C200C0AE2
:100AE00008E6C4540FFB8B2880078603740F5BF560
:100AF00028852882C00012051ED00080D72004035C
:100B0000020598AB2C152CEB70030205987582201A
:100B100012050480EE8A8212050402059885298256
:100B2000852A8322AA82BA0A0810990280FB759945
:100B30000D10990280FB8A992220F71430F6148850
:100B400083A88220F507E6A88375830022E280F758
:100B5000E49322E02220F71030F6118883A8822047
:100B6000F507F6A88375830022F280F7F022AA82A7
:100B7000AB83ACF07D007E008A828B838CF0120BFD
:100B800039FFA3AA82AB83EF60070DBD00EA0E8098
:100B9000E78D828E8322000000000000000000002C
:00000001FF
